{"abi":[{"type":"constructor","inputs":[{"name":"dao_","type":"address","internalType":"address"},{"name":"guardianSunset_","type":"uint256","internalType":"uint256"}],"stateMutability":"nonpayable"},{"type":"function","name":"ORACLE_MODULE","inputs":[],"outputs":[{"name":"","type":"bytes32","internalType":"bytes32"}],"stateMutability":"view"},{"type":"function","name":"dao","inputs":[],"outputs":[{"name":"","type":"address","internalType":"address"}],"stateMutability":"view"},{"type":"function","name":"guardianSunset","inputs":[],"outputs":[{"name":"","type":"uint256","internalType":"uint256"}],"stateMutability":"view"},{"type":"function","name":"operator","inputs":[],"outputs":[{"name":"","type":"address","internalType":"address"}],"stateMutability":"view"},{"type":"function","name":"pauseOracle","inputs":[],"outputs":[],"stateMutability":"nonpayable"},{"type":"function","name":"resumeOracle","inputs":[],"outputs":[],"stateMutability":"nonpayable"},{"type":"function","name":"safety","inputs":[],"outputs":[{"name":"","type":"address","internalType":"contract ISafetyAutomata"}],"stateMutability":"view"},{"type":"function","name":"selfRegister","inputs":[],"outputs":[],"stateMutability":"nonpayable"},{"type":"function","name":"setOperator","inputs":[{"name":"newOperator","type":"address","internalType":"address"}],"outputs":[],"stateMutability":"nonpayable"},{"type":"function","name":"setSafetyAutomata","inputs":[{"name":"newSafety","type":"address","internalType":"contract ISafetyAutomata"}],"outputs":[],"stateMutability":"nonpayable"},{"type":"event","name":"OperatorUpdated","inputs":[{"name":"oldOperator","type":"address","indexed":true,"internalType":"address"},{"name":"newOperator","type":"address","indexed":true,"internalType":"address"}],"anonymous":false},{"type":"event","name":"SafetyAutomataSet","inputs":[{"name":"safety","type":"address","indexed":true,"internalType":"address"}],"anonymous":false},{"type":"error","name":"GuardianExpired","inputs":[]},{"type":"error","name":"NotDAO","inputs":[]},{"type":"error","name":"NotOperator","inputs":[]},{"type":"error","name":"SafetyNotSet","inputs":[]},{"type":"error","name":"ZeroAddress","inputs":[]}],"bytecode":{"object":"0x60c060405234801561001057600080fd5b5060405161071c38038061071c83398101604081905261002f91610084565b6001600160a01b0382166100565760405163d92e233d60e01b815260040160405180910390fd5b6001600160a01b03909116608081905260a091909152600180546001600160a01b03191690911790556100be565b6000806040838503121561009757600080fd5b82516001600160a01b03811681146100ae57600080fd5b6020939093015192949293505050565b60805160a0516106176101056000396000818161014a01526101ff01526000818160c5015281816102c80152818161038001528181610442015261050e01526106176000f3fe608060405234801561001057600080fd5b506004361061009e5760003560e01c8063a6757eaf11610066578063a6757eaf1461012a578063b3ab15fb14610132578063c5f62ca214610145578063d86a28bb1461017a578063e1aaa7ca1461018257600080fd5b8063253ea980146100a35780633e5dbf8c146100ad5780634162169f146100c0578063570ca735146101045780636e3f795a14610117575b600080fd5b6100ab6101a9565b005b6100ab6100bb3660046105bd565b6102bd565b6100e77f000000000000000000000000000000000000000000000000000000000000000081565b6040516001600160a01b0390911681526020015b60405180910390f35b6001546100e7906001600160a01b031681565b6000546100e7906001600160a01b031681565b6100ab610375565b6100ab6101403660046105bd565b610437565b61016c7f000000000000000000000000000000000000000000000000000000000000000081565b6040519081526020016100fb565b6100ab610503565b61016c7f352d05fe3946dbe49277552ba941e744d5a96d9c60bc1ba0ea5f1d3ae000f7c881565b6001546001600160a01b031633146101d457604051631f0853c160e21b815260040160405180910390fd5b6000546001600160a01b03166101fd5760405163236c612360e11b815260040160405180910390fd5b7f0000000000000000000000000000000000000000000000000000000000000000421061023d5760405163e91d1a5f60e01b815260040160405180910390fd5b60005460405163040b76d160e51b81527f352d05fe3946dbe49277552ba941e744d5a96d9c60bc1ba0ea5f1d3ae000f7c860048201526001600160a01b039091169063816eda20906024015b600060405180830381600087803b1580156102a357600080fd5b505af11580156102b7573d6000803e3d6000fd5b50505050565b336001600160a01b037f00000000000000000000000000000000000000000000000000000000000000001614610306576040516327568d2f60e11b815260040160405180910390fd5b6001600160a01b03811661032d5760405163d92e233d60e01b815260040160405180910390fd5b600080546001600160a01b0319166001600160a01b038316908117825560405190917f1f4c59cefd708de53a01fa96a7995fb48fb89717f1a398130459bf450a3cab8c91a250565b336001600160a01b037f000000000000000000000000000000000000000000000000000000000000000016146103be576040516327568d2f60e11b815260040160405180910390fd5b6000546001600160a01b03166103e75760405163236c612360e11b815260040160405180910390fd5b600054604051636e518c4960e01b81527f352d05fe3946dbe49277552ba941e744d5a96d9c60bc1ba0ea5f1d3ae000f7c860048201526001600160a01b0390911690636e518c4990602401610289565b336001600160a01b037f00000000000000000000000000000000000000000000000000000000000000001614610480576040516327568d2f60e11b815260040160405180910390fd5b6001600160a01b0381166104a75760405163d92e233d60e01b815260040160405180910390fd5b6001546040516001600160a01b038084169216907ffbe5b6cbafb274f445d7fed869dc77a838d8243a22c460de156560e8857cad0390600090a3600180546001600160a01b0319166001600160a01b0392909216919091179055565b336001600160a01b037f0000000000000000000000000000000000000000000000000000000000000000161461054c576040516327568d2f60e11b815260040160405180910390fd5b6000546001600160a01b03166105755760405163236c612360e11b815260040160405180910390fd5b600054604051630252c74b60e61b81523060048201526001600160a01b03909116906394b1d2c090602401610289565b6001600160a01b03811681146105ba57600080fd5b50565b6000602082840312156105cf57600080fd5b81356105da816105a5565b939250505056fea2646970667358221220654d46f7a266de546a0f13a725a5b5bdfd6de2b301f5fbe576228c7ebd0018fc64736f6c634300081e0033","linkReferences":{}},"methodIdentifiers":{"ORACLE_MODULE()":"e1aaa7ca","dao()":"4162169f","guardianSunset()":"c5f62ca2","operator()":"570ca735","pauseOracle()":"253ea980","resumeOracle()":"a6757eaf","safety()":"6e3f795a","selfRegister()":"d86a28bb","setOperator(address)":"b3ab15fb","setSafetyAutomata(address)":"3e5dbf8c"},"id":31}