{"abi":[{"type":"constructor","inputs":[{"name":"_dao","type":"address","internalType":"address"}],"stateMutability":"nonpayable"},{"type":"function","name":"dao","inputs":[],"outputs":[{"name":"","type":"address","internalType":"address"}],"stateMutability":"view"},{"type":"function","name":"lastAmount","inputs":[],"outputs":[{"name":"","type":"uint256","internalType":"uint256"}],"stateMutability":"view"},{"type":"function","name":"lastToken","inputs":[],"outputs":[{"name":"","type":"address","internalType":"address"}],"stateMutability":"view"},{"type":"function","name":"pause","inputs":[],"outputs":[],"stateMutability":"nonpayable"},{"type":"function","name":"paused","inputs":[],"outputs":[{"name":"","type":"bool","internalType":"bool"}],"stateMutability":"view"},{"type":"function","name":"swapCollateralForStable","inputs":[{"name":"token","type":"address","internalType":"address"},{"name":"amountIn","type":"uint256","internalType":"uint256"}],"outputs":[],"stateMutability":"nonpayable"},{"type":"function","name":"unpause","inputs":[],"outputs":[],"stateMutability":"nonpayable"}],"bytecode":{"object":"0x6080604052348015600f57600080fd5b506040516102a23803806102a2833981016040819052602c916050565b600080546001600160a01b0319166001600160a01b0392909216919091179055607e565b600060208284031215606157600080fd5b81516001600160a01b0381168114607757600080fd5b9392505050565b6102158061008d6000396000f3fe608060405234801561001057600080fd5b506004361061007d5760003560e01c80635c975abb1161005b5780635c975abb146100d9578063829a86d9146100fd5780638456cb59146101145780639c72c0c51461012c57600080fd5b80632f796f50146100825780633f4ba83a146100b25780634162169f146100c6575b600080fd5b600154610095906001600160a01b031681565b6040516001600160a01b0390911681526020015b60405180910390f35b6100c46000805460ff60a01b19169055565b005b600054610095906001600160a01b031681565b6000546100ed90600160a01b900460ff1681565b60405190151581526020016100a9565b61010660025481565b6040519081526020016100a9565b6100c46000805460ff60a01b1916600160a01b179055565b6100c461013a3660046101a7565b600054600160a01b900460ff16156101815760405162461bcd60e51b81526020600482015260066024820152651c185d5cd95960d21b604482015260640160405180910390fd5b600180546001600160a01b0319166001600160a01b039390931692909217909155600255565b600080604083850312156101ba57600080fd5b82356001600160a01b03811681146101d157600080fd5b94602093909301359350505056fea2646970667358221220673d9f8dff00e3cc6440b17982be032f2c3e3d09a8c452df0eaa838580d430ee64736f6c634300081e0033","linkReferences":{}},"methodIdentifiers":{"dao()":"4162169f","lastAmount()":"829a86d9","lastToken()":"2f796f50","pause()":"8456cb59","paused()":"5c975abb","swapCollateralForStable(address,uint256)":"9c72c0c5","unpause()":"3f4ba83a"},"id":25}