{"abi":[{"type":"constructor","inputs":[{"name":"admin","type":"address","internalType":"address"}],"stateMutability":"nonpayable"},{"type":"function","name":"ADMIN_ROLE","inputs":[],"outputs":[{"name":"","type":"bytes32","internalType":"bytes32"}],"stateMutability":"view"},{"type":"function","name":"DAO_ROLE","inputs":[],"outputs":[{"name":"","type":"bytes32","internalType":"bytes32"}],"stateMutability":"view"},{"type":"function","name":"DEFAULT_ADMIN_ROLE","inputs":[],"outputs":[{"name":"","type":"bytes32","internalType":"bytes32"}],"stateMutability":"view"},{"type":"function","name":"getRoleAdmin","inputs":[{"name":"role","type":"bytes32","internalType":"bytes32"}],"outputs":[{"name":"","type":"bytes32","internalType":"bytes32"}],"stateMutability":"view"},{"type":"function","name":"grantRole","inputs":[{"name":"role","type":"bytes32","internalType":"bytes32"},{"name":"account","type":"address","internalType":"address"}],"outputs":[],"stateMutability":"nonpayable"},{"type":"function","name":"hasRole","inputs":[{"name":"role","type":"bytes32","internalType":"bytes32"},{"name":"account","type":"address","internalType":"address"}],"outputs":[{"name":"","type":"bool","internalType":"bool"}],"stateMutability":"view"},{"type":"function","name":"renounceRole","inputs":[{"name":"role","type":"bytes32","internalType":"bytes32"},{"name":"callerConfirmation","type":"address","internalType":"address"}],"outputs":[],"stateMutability":"nonpayable"},{"type":"function","name":"revokeRole","inputs":[{"name":"role","type":"bytes32","internalType":"bytes32"},{"name":"account","type":"address","internalType":"address"}],"outputs":[],"stateMutability":"nonpayable"},{"type":"function","name":"supportsInterface","inputs":[{"name":"interfaceId","type":"bytes4","internalType":"bytes4"}],"outputs":[{"name":"","type":"bool","internalType":"bool"}],"stateMutability":"view"},{"type":"function","name":"sweep","inputs":[{"name":"token","type":"address","internalType":"address"},{"name":"to","type":"address","internalType":"address"},{"name":"amount","type":"uint256","internalType":"uint256"}],"outputs":[],"stateMutability":"nonpayable"},{"type":"event","name":"RoleAdminChanged","inputs":[{"name":"role","type":"bytes32","indexed":true,"internalType":"bytes32"},{"name":"previousAdminRole","type":"bytes32","indexed":true,"internalType":"bytes32"},{"name":"newAdminRole","type":"bytes32","indexed":true,"internalType":"bytes32"}],"anonymous":false},{"type":"event","name":"RoleGranted","inputs":[{"name":"role","type":"bytes32","indexed":true,"internalType":"bytes32"},{"name":"account","type":"address","indexed":true,"internalType":"address"},{"name":"sender","type":"address","indexed":true,"internalType":"address"}],"anonymous":false},{"type":"event","name":"RoleRevoked","inputs":[{"name":"role","type":"bytes32","indexed":true,"internalType":"bytes32"},{"name":"account","type":"address","indexed":true,"internalType":"address"},{"name":"sender","type":"address","indexed":true,"internalType":"address"}],"anonymous":false},{"type":"event","name":"Swept","inputs":[{"name":"token","type":"address","indexed":true,"internalType":"address"},{"name":"to","type":"address","indexed":true,"internalType":"address"},{"name":"amount","type":"uint256","indexed":false,"internalType":"uint256"}],"anonymous":false},{"type":"error","name":"AccessControlBadConfirmation","inputs":[]},{"type":"error","name":"AccessControlUnauthorizedAccount","inputs":[{"name":"account","type":"address","internalType":"address"},{"name":"neededRole","type":"bytes32","internalType":"bytes32"}]},{"type":"error","name":"AddressEmptyCode","inputs":[{"name":"target","type":"address","internalType":"address"}]},{"type":"error","name":"AddressInsufficientBalance","inputs":[{"name":"account","type":"address","internalType":"address"}]},{"type":"error","name":"FailedInnerCall","inputs":[]},{"type":"error","name":"SafeERC20FailedOperation","inputs":[{"name":"token","type":"address","internalType":"address"}]}],"bytecode":{"object":"0x608060405234801561001057600080fd5b5060405161093438038061093483398101604081905261002f91610143565b61003a600082610097565b506100657fa49807205ce4d355092ef5a8a18f56e8913cf4a201fbe287825b095693c2177582610097565b506100907f3b5d4cc60d3ec3516ee8ae083bd60934f6eb2a6c54b1229985c41bfb092b260382610097565b5050610173565b6000828152602081815260408083206001600160a01b038516845290915281205460ff16610139576000838152602081815260408083206001600160a01b03861684529091529020805460ff191660011790556100f13390565b6001600160a01b0316826001600160a01b0316847f2f8788117e7eff1d82e926ec794901d17c78024a50270940304540a733656f0d60405160405180910390a450600161013d565b5060005b92915050565b60006020828403121561015557600080fd5b81516001600160a01b038116811461016c57600080fd5b9392505050565b6107b2806101826000396000f3fe608060405234801561001057600080fd5b506004361061009e5760003560e01c806375b238fc1161006657806375b238fc1461013757806391d148541461015e578063a217fddf14610171578063d547741f14610179578063e9c265181461018c57600080fd5b806301ffc9a7146100a3578063248a9ca3146100cb5780632f2ff15d146100fc57806336568abe1461011157806362c0676714610124575b600080fd5b6100b66100b1366004610664565b6101b3565b60405190151581526020015b60405180910390f35b6100ee6100d936600461068e565b60009081526020819052604090206001015490565b6040519081526020016100c2565b61010f61010a3660046106c3565b6101ea565b005b61010f61011f3660046106c3565b610215565b61010f6101323660046106ef565b61024d565b6100ee7fa49807205ce4d355092ef5a8a18f56e8913cf4a201fbe287825b095693c2177581565b6100b661016c3660046106c3565b6102de565b6100ee600081565b61010f6101873660046106c3565b610307565b6100ee7f3b5d4cc60d3ec3516ee8ae083bd60934f6eb2a6c54b1229985c41bfb092b260381565b60006001600160e01b03198216637965db0b60e01b14806101e457506301ffc9a760e01b6001600160e01b03198316145b92915050565b6000828152602081905260409020600101546102058161032c565b61020f8383610339565b50505050565b6001600160a01b038116331461023e5760405163334bd91960e11b815260040160405180910390fd5b61024882826103cb565b505050565b7f3b5d4cc60d3ec3516ee8ae083bd60934f6eb2a6c54b1229985c41bfb092b26036102778161032c565b61028b6001600160a01b0385168484610436565b826001600160a01b0316846001600160a01b03167f7b09c29f9106defeccc9ac3b823f3aad0b470d120e5df7aed033b5c43a4bf718846040516102d091815260200190565b60405180910390a350505050565b6000918252602082815260408084206001600160a01b0393909316845291905290205460ff1690565b6000828152602081905260409020600101546103228161032c565b61020f83836103cb565b6103368133610488565b50565b600061034583836102de565b6103c3576000838152602081815260408083206001600160a01b03861684529091529020805460ff1916600117905561037b3390565b6001600160a01b0316826001600160a01b0316847f2f8788117e7eff1d82e926ec794901d17c78024a50270940304540a733656f0d60405160405180910390a45060016101e4565b5060006101e4565b60006103d783836102de565b156103c3576000838152602081815260408083206001600160a01b0386168085529252808320805460ff1916905551339286917ff6391f5c32d9c69d2a47ea670b442974b53935d1edc7fd64eb21e047a839171b9190a45060016101e4565b604080516001600160a01b038416602482015260448082018490528251808303909101815260649091019091526020810180516001600160e01b031663a9059cbb60e01b1790526102489084906104ca565b61049282826102de565b6104c65760405163e2517d3f60e01b81526001600160a01b0382166004820152602481018390526044015b60405180910390fd5b5050565b60006104df6001600160a01b0384168361052d565b90508051600014158015610504575080806020019051810190610502919061072b565b155b1561024857604051635274afe760e01b81526001600160a01b03841660048201526024016104bd565b606061053b83836000610542565b9392505050565b6060814710156105675760405163cd78605960e01b81523060048201526024016104bd565b600080856001600160a01b03168486604051610583919061074d565b60006040518083038185875af1925050503d80600081146105c0576040519150601f19603f3d011682016040523d82523d6000602084013e6105c5565b606091505b50915091506105d58683836105df565b9695505050505050565b6060826105f4576105ef8261063b565b61053b565b815115801561060b57506001600160a01b0384163b155b1561063457604051639996b31560e01b81526001600160a01b03851660048201526024016104bd565b508061053b565b80511561064b5780518082602001fd5b604051630a12f52160e11b815260040160405180910390fd5b60006020828403121561067657600080fd5b81356001600160e01b03198116811461053b57600080fd5b6000602082840312156106a057600080fd5b5035919050565b80356001600160a01b03811681146106be57600080fd5b919050565b600080604083850312156106d657600080fd5b823591506106e6602084016106a7565b90509250929050565b60008060006060848603121561070457600080fd5b61070d846106a7565b925061071b602085016106a7565b9150604084013590509250925092565b60006020828403121561073d57600080fd5b8151801515811461053b57600080fd5b6000825160005b8181101561076e5760208186018101518583015201610754565b50600092019182525091905056fea2646970667358221220af5fa275f98fdd6d6cd9b33ceb54d9f4b8a9b5e0b62367ba3bcd8c49133f87bf64736f6c634300081e0033","linkReferences":{}},"methodIdentifiers":{"ADMIN_ROLE()":"75b238fc","DAO_ROLE()":"e9c26518","DEFAULT_ADMIN_ROLE()":"a217fddf","getRoleAdmin(bytes32)":"248a9ca3","grantRole(bytes32,address)":"2f2ff15d","hasRole(bytes32,address)":"91d14854","renounceRole(bytes32,address)":"36568abe","revokeRole(bytes32,address)":"d547741f","supportsInterface(bytes4)":"01ffc9a7","sweep(address,address,uint256)":"62c06767"},"id":11}