{"abi":[{"type":"constructor","inputs":[{"name":"_dao","type":"address","internalType":"address"},{"name":"_oracle","type":"address","internalType":"address"},{"name":"_feeRouter","type":"address","internalType":"address"},{"name":"_stable","type":"address","internalType":"address"}],"stateMutability":"nonpayable"},{"type":"function","name":"dao","inputs":[],"outputs":[{"name":"","type":"address","internalType":"address"}],"stateMutability":"view"},{"type":"function","name":"feeBps","inputs":[],"outputs":[{"name":"","type":"uint16","internalType":"uint16"}],"stateMutability":"view"},{"type":"function","name":"feeRouter","inputs":[],"outputs":[{"name":"","type":"address","internalType":"contract FeeRouterV2"}],"stateMutability":"view"},{"type":"function","name":"oracle","inputs":[],"outputs":[{"name":"","type":"address","internalType":"contract OracleAggregator"}],"stateMutability":"view"},{"type":"function","name":"paused","inputs":[],"outputs":[{"name":"","type":"bool","internalType":"bool"}],"stateMutability":"view"},{"type":"function","name":"setFee","inputs":[{"name":"_feeBps","type":"uint16","internalType":"uint16"}],"outputs":[],"stateMutability":"nonpayable"},{"type":"function","name":"stableToken","inputs":[],"outputs":[{"name":"","type":"address","internalType":"address"}],"stateMutability":"view"},{"type":"function","name":"swapCollateralForStable","inputs":[{"name":"token","type":"address","internalType":"address"},{"name":"amountIn","type":"uint256","internalType":"uint256"}],"outputs":[{"name":"","type":"bool","internalType":"bool"}],"stateMutability":"nonpayable"},{"type":"event","name":"Paused","inputs":[{"name":"account","type":"address","indexed":false,"internalType":"address"}],"anonymous":false},{"type":"event","name":"Unpaused","inputs":[{"name":"account","type":"address","indexed":false,"internalType":"address"}],"anonymous":false},{"type":"error","name":"EnforcedPause","inputs":[]},{"type":"error","name":"ExpectedPause","inputs":[]},{"type":"error","name":"ReentrancyGuardReentrantCall","inputs":[]}],"bytecode":{"object":"0x608060405234801561001057600080fd5b506040516105ba3803806105ba83398101604081905261002f916100ac565b6001600081905580546001600160a01b0395861661010002610100600160a81b0319909116179055600480549385166001600160a01b0319948516179055600380549285169284169290921790915560028054919093169116179055610100565b80516001600160a01b03811681146100a757600080fd5b919050565b600080600080608085870312156100c257600080fd5b6100cb85610090565b93506100d960208601610090565b92506100e760408601610090565b91506100f560608601610090565b905092959194509250565b6104ab8061010f6000396000f3fe608060405234801561001057600080fd5b50600436106100885760003560e01c80638e0055531161005b5780638e005553146101145780639c72c0c514610129578063a9d75b2b1461013c578063f29ebf611461014f57600080fd5b806324a9d8531461008d5780634162169f146100ba5780635c975abb146100ea5780637dc0d1d014610101575b600080fd5b6004546100a290600160a01b900461ffff1681565b60405161ffff90911681526020015b60405180910390f35b6001546100d29061010090046001600160a01b031681565b6040516001600160a01b0390911681526020016100b1565b60015460ff165b60405190151581526020016100b1565b6004546100d2906001600160a01b031681565b6101276101223660046103c1565b610162565b005b6100f16101373660046103ec565b6101d2565b6002546100d2906001600160a01b031681565b6003546100d2906001600160a01b031681565b60015461010090046001600160a01b031633146101b05760405162461bcd60e51b81526020600482015260076024820152666e6f742044414f60c81b60448201526064015b60405180910390fd5b6004805461ffff909216600160a01b0261ffff60a01b19909216919091179055565b60006101dc610371565b6101e461039b565b6000821161021f5760405162461bcd60e51b81526020600482015260086024820152670616d6f756e743d360c41b60448201526064016101a7565b6040516323b872dd60e01b8152336004820152306024820152604481018390526001600160a01b038416906323b872dd906064016020604051808303816000875af1158015610272573d6000803e3d6000fd5b505050506040513d601f19601f820116820180604052508101906102969190610424565b506003546040517ff59ca105c0ea2f88067685df6334c9318a7184b56eca87852bfc2067c1b861e060248201526001600160a01b03858116604483015260648201859052600092169060840160408051601f198184030181529181526020820180516001600160e01b0316632f2b968160e21b179052516103179190610446565b6000604051808303816000865af19150503d8060008114610354576040519150601f19603f3d011682016040523d82523d6000602084013e610359565b606091505b506001935050505061036b6001600055565b92915050565b60026000540361039457604051633ee5aeb560e01b815260040160405180910390fd5b6002600055565b60015460ff16156103bf5760405163d93c066560e01b815260040160405180910390fd5b565b6000602082840312156103d357600080fd5b813561ffff811681146103e557600080fd5b9392505050565b600080604083850312156103ff57600080fd5b82356001600160a01b038116811461041657600080fd5b946020939093013593505050565b60006020828403121561043657600080fd5b815180151581146103e557600080fd5b6000825160005b81811015610467576020818601810151858301520161044d565b50600092019182525091905056fea26469706673582212209f7c866fc199470223f25bc2d8e737e3b7d934649cdc86280c2a79ac582fe60864736f6c634300081e0033","linkReferences":{}},"methodIdentifiers":{"dao()":"4162169f","feeBps()":"24a9d853","feeRouter()":"f29ebf61","oracle()":"7dc0d1d0","paused()":"5c975abb","setFee(uint16)":"8e005553","stableToken()":"a9d75b2b","swapCollateralForStable(address,uint256)":"9c72c0c5"},"id":27}