{"abi":[{"type":"constructor","inputs":[{"name":"_dao","type":"address","internalType":"address"},{"name":"_oracle","type":"address","internalType":"address"},{"name":"_feeRouter","type":"address","internalType":"address"},{"name":"_stable","type":"address","internalType":"address"}],"stateMutability":"nonpayable"},{"type":"function","name":"dao","inputs":[],"outputs":[{"name":"","type":"address","internalType":"address"}],"stateMutability":"view"},{"type":"function","name":"feeBps","inputs":[],"outputs":[{"name":"","type":"uint16","internalType":"uint16"}],"stateMutability":"view"},{"type":"function","name":"feeRouter","inputs":[],"outputs":[{"name":"","type":"address","internalType":"contract IFeeRouterV2"}],"stateMutability":"view"},{"type":"function","name":"oracle","inputs":[],"outputs":[{"name":"","type":"address","internalType":"contract OracleAggregator"}],"stateMutability":"view"},{"type":"function","name":"paused","inputs":[],"outputs":[{"name":"","type":"bool","internalType":"bool"}],"stateMutability":"view"},{"type":"function","name":"setFee","inputs":[{"name":"_feeBps","type":"uint16","internalType":"uint16"}],"outputs":[],"stateMutability":"nonpayable"},{"type":"function","name":"stableToken","inputs":[],"outputs":[{"name":"","type":"address","internalType":"address"}],"stateMutability":"view"},{"type":"function","name":"swapCollateralForStable","inputs":[{"name":"token","type":"address","internalType":"address"},{"name":"amountIn","type":"uint256","internalType":"uint256"}],"outputs":[{"name":"","type":"bool","internalType":"bool"}],"stateMutability":"nonpayable"},{"type":"event","name":"Paused","inputs":[{"name":"account","type":"address","indexed":false,"internalType":"address"}],"anonymous":false},{"type":"event","name":"Unpaused","inputs":[{"name":"account","type":"address","indexed":false,"internalType":"address"}],"anonymous":false},{"type":"error","name":"EnforcedPause","inputs":[]},{"type":"error","name":"ExpectedPause","inputs":[]},{"type":"error","name":"ReentrancyGuardReentrantCall","inputs":[]}],"bytecode":{"object":"0x608060405234801561001057600080fd5b5060405161055138038061055183398101604081905261002f916100ac565b6001600081905580546001600160a01b0395861661010002610100600160a81b0319909116179055600480549385166001600160a01b0319948516179055600380549285169284169290921790915560028054919093169116179055610100565b80516001600160a01b03811681146100a757600080fd5b919050565b600080600080608085870312156100c257600080fd5b6100cb85610090565b93506100d960208601610090565b92506100e760408601610090565b91506100f560608601610090565b905092959194509250565b6104428061010f6000396000f3fe608060405234801561001057600080fd5b50600436106100885760003560e01c80638e0055531161005b5780638e005553146101145780639c72c0c514610129578063a9d75b2b1461013c578063f29ebf611461014f57600080fd5b806324a9d8531461008d5780634162169f146100ba5780635c975abb146100ea5780637dc0d1d014610101575b600080fd5b6004546100a290600160a01b900461ffff1681565b60405161ffff90911681526020015b60405180910390f35b6001546100d29061010090046001600160a01b031681565b6040516001600160a01b0390911681526020016100b1565b60015460ff165b60405190151581526020016100b1565b6004546100d2906001600160a01b031681565b610127610122366004610387565b610162565b005b6100f16101373660046103b2565b6101d2565b6002546100d2906001600160a01b031681565b6003546100d2906001600160a01b031681565b60015461010090046001600160a01b031633146101b05760405162461bcd60e51b81526020600482015260076024820152666e6f742044414f60c81b60448201526064015b60405180910390fd5b6004805461ffff909216600160a01b0261ffff60a01b19909216919091179055565b60006101dc610337565b6101e4610361565b6000821161021f5760405162461bcd60e51b81526020600482015260086024820152670616d6f756e743d360c41b60448201526064016101a7565b6040516323b872dd60e01b8152336004820152306024820152604481018390526001600160a01b038416906323b872dd906064016020604051808303816000875af1158015610272573d6000803e3d6000fd5b505050506040513d601f19601f8201168201806040525081019061029691906103ea565b50600354604051632f2b968160e21b81527ff59ca105c0ea2f88067685df6334c9318a7184b56eca87852bfc2067c1b861e060048201526001600160a01b038581166024830152604482018590529091169063bcae5a0490606401600060405180830381600087803b15801561030b57600080fd5b505af115801561031f573d6000803e3d6000fd5b50505050600190506103316001600055565b92915050565b60026000540361035a57604051633ee5aeb560e01b815260040160405180910390fd5b6002600055565b60015460ff16156103855760405163d93c066560e01b815260040160405180910390fd5b565b60006020828403121561039957600080fd5b813561ffff811681146103ab57600080fd5b9392505050565b600080604083850312156103c557600080fd5b82356001600160a01b03811681146103dc57600080fd5b946020939093013593505050565b6000602082840312156103fc57600080fd5b815180151581146103ab57600080fdfea26469706673582212202e50746bf445133500d4204b264a51a313cdc93f1ef6c38fd8a89463665f99bd64736f6c634300081e0033","linkReferences":{}},"methodIdentifiers":{"dao()":"4162169f","feeBps()":"24a9d853","feeRouter()":"f29ebf61","oracle()":"7dc0d1d0","paused()":"5c975abb","setFee(uint16)":"8e005553","stableToken()":"a9d75b2b","swapCollateralForStable(address,uint256)":"9c72c0c5"},"id":15}