{"abi":[{"type":"constructor","inputs":[{"name":"admin","type":"address","internalType":"address"},{"name":"_oneKUSD","type":"address","internalType":"address"},{"name":"_vault","type":"address","internalType":"address"},{"name":"_auto","type":"address","internalType":"address"},{"name":"_reg","type":"address","internalType":"address"}],"stateMutability":"nonpayable"},{"type":"function","name":"ADMIN_ROLE","inputs":[],"outputs":[{"name":"","type":"bytes32","internalType":"bytes32"}],"stateMutability":"view"},{"type":"function","name":"DEFAULT_ADMIN_ROLE","inputs":[],"outputs":[{"name":"","type":"bytes32","internalType":"bytes32"}],"stateMutability":"view"},{"type":"function","name":"MODULE_PSM","inputs":[],"outputs":[{"name":"","type":"bytes32","internalType":"bytes32"}],"stateMutability":"view"},{"type":"function","name":"feeRouter","inputs":[],"outputs":[{"name":"","type":"address","internalType":"contract IFeeRouterV2"}],"stateMutability":"view"},{"type":"function","name":"getRoleAdmin","inputs":[{"name":"role","type":"bytes32","internalType":"bytes32"}],"outputs":[{"name":"","type":"bytes32","internalType":"bytes32"}],"stateMutability":"view"},{"type":"function","name":"grantRole","inputs":[{"name":"role","type":"bytes32","internalType":"bytes32"},{"name":"account","type":"address","internalType":"address"}],"outputs":[],"stateMutability":"nonpayable"},{"type":"function","name":"hasRole","inputs":[{"name":"role","type":"bytes32","internalType":"bytes32"},{"name":"account","type":"address","internalType":"address"}],"outputs":[{"name":"","type":"bool","internalType":"bool"}],"stateMutability":"view"},{"type":"function","name":"limits","inputs":[],"outputs":[{"name":"","type":"address","internalType":"contract PSMLimits"}],"stateMutability":"view"},{"type":"function","name":"mintFeeBps","inputs":[],"outputs":[{"name":"","type":"uint256","internalType":"uint256"}],"stateMutability":"view"},{"type":"function","name":"oneKUSD","inputs":[],"outputs":[{"name":"","type":"address","internalType":"contract OneKUSD"}],"stateMutability":"view"},{"type":"function","name":"oracle","inputs":[],"outputs":[{"name":"","type":"address","internalType":"contract IOracleAggregator"}],"stateMutability":"view"},{"type":"function","name":"quoteFrom1kUSD","inputs":[{"name":"tokenOut","type":"address","internalType":"address"},{"name":"amountIn1k","type":"uint256","internalType":"uint256"},{"name":"feeBps","type":"uint16","internalType":"uint16"},{"name":"tokenOutDecimals","type":"uint8","internalType":"uint8"}],"outputs":[{"name":"q","type":"tuple","internalType":"struct IPSM.QuoteOut","components":[{"name":"grossOut","type":"uint256","internalType":"uint256"},{"name":"fee","type":"uint256","internalType":"uint256"},{"name":"netOut","type":"uint256","internalType":"uint256"},{"name":"outDecimals","type":"uint8","internalType":"uint8"}]}],"stateMutability":"view"},{"type":"function","name":"quoteTo1kUSD","inputs":[{"name":"tokenIn","type":"address","internalType":"address"},{"name":"amountIn","type":"uint256","internalType":"uint256"},{"name":"feeBps","type":"uint16","internalType":"uint16"},{"name":"tokenInDecimals","type":"uint8","internalType":"uint8"}],"outputs":[{"name":"q","type":"tuple","internalType":"struct IPSM.QuoteOut","components":[{"name":"grossOut","type":"uint256","internalType":"uint256"},{"name":"fee","type":"uint256","internalType":"uint256"},{"name":"netOut","type":"uint256","internalType":"uint256"},{"name":"outDecimals","type":"uint8","internalType":"uint8"}]}],"stateMutability":"view"},{"type":"function","name":"redeemFeeBps","inputs":[],"outputs":[{"name":"","type":"uint256","internalType":"uint256"}],"stateMutability":"view"},{"type":"function","name":"registry","inputs":[],"outputs":[{"name":"","type":"address","internalType":"contract ParameterRegistry"}],"stateMutability":"view"},{"type":"function","name":"renounceRole","inputs":[{"name":"role","type":"bytes32","internalType":"bytes32"},{"name":"callerConfirmation","type":"address","internalType":"address"}],"outputs":[],"stateMutability":"nonpayable"},{"type":"function","name":"revokeRole","inputs":[{"name":"role","type":"bytes32","internalType":"bytes32"},{"name":"account","type":"address","internalType":"address"}],"outputs":[],"stateMutability":"nonpayable"},{"type":"function","name":"safetyAutomata","inputs":[],"outputs":[{"name":"","type":"address","internalType":"contract ISafetyAutomata"}],"stateMutability":"view"},{"type":"function","name":"setFees","inputs":[{"name":"mintFee","type":"uint256","internalType":"uint256"},{"name":"redeemFee","type":"uint256","internalType":"uint256"}],"outputs":[],"stateMutability":"nonpayable"},{"type":"function","name":"setLimits","inputs":[{"name":"_limits","type":"address","internalType":"address"}],"outputs":[],"stateMutability":"nonpayable"},{"type":"function","name":"setOracle","inputs":[{"name":"_oracle","type":"address","internalType":"address"}],"outputs":[],"stateMutability":"nonpayable"},{"type":"function","name":"supportsInterface","inputs":[{"name":"interfaceId","type":"bytes4","internalType":"bytes4"}],"outputs":[{"name":"","type":"bool","internalType":"bool"}],"stateMutability":"view"},{"type":"function","name":"swapFrom1kUSD","inputs":[{"name":"tokenOut","type":"address","internalType":"address"},{"name":"amountIn1k","type":"uint256","internalType":"uint256"},{"name":"to","type":"address","internalType":"address"},{"name":"minOut","type":"uint256","internalType":"uint256"},{"name":"","type":"uint256","internalType":"uint256"}],"outputs":[{"name":"netOut","type":"uint256","internalType":"uint256"}],"stateMutability":"nonpayable"},{"type":"function","name":"swapTo1kUSD","inputs":[{"name":"tokenIn","type":"address","internalType":"address"},{"name":"amountIn","type":"uint256","internalType":"uint256"},{"name":"to","type":"address","internalType":"address"},{"name":"minOut","type":"uint256","internalType":"uint256"},{"name":"","type":"uint256","internalType":"uint256"}],"outputs":[{"name":"netOut","type":"uint256","internalType":"uint256"}],"stateMutability":"nonpayable"},{"type":"function","name":"vault","inputs":[],"outputs":[{"name":"","type":"address","internalType":"contract CollateralVault"}],"stateMutability":"view"},{"type":"event","name":"FeeAccrued","inputs":[{"name":"asset","type":"address","indexed":true,"internalType":"address"},{"name":"amount","type":"uint256","indexed":false,"internalType":"uint256"}],"anonymous":false},{"type":"event","name":"FeesUpdated","inputs":[{"name":"mintFeeBps","type":"uint256","indexed":false,"internalType":"uint256"},{"name":"redeemFeeBps","type":"uint256","indexed":false,"internalType":"uint256"}],"anonymous":false},{"type":"event","name":"PSMFeesRouted","inputs":[{"name":"token","type":"address","indexed":true,"internalType":"address"},{"name":"amount","type":"uint256","indexed":false,"internalType":"uint256"},{"name":"timestamp","type":"uint256","indexed":false,"internalType":"uint256"}],"anonymous":false},{"type":"event","name":"PSMSwapExecuted","inputs":[{"name":"user","type":"address","indexed":true,"internalType":"address"},{"name":"tokenIn","type":"address","indexed":true,"internalType":"address"},{"name":"amountIn","type":"uint256","indexed":false,"internalType":"uint256"},{"name":"timestamp","type":"uint256","indexed":false,"internalType":"uint256"}],"anonymous":false},{"type":"event","name":"RoleAdminChanged","inputs":[{"name":"role","type":"bytes32","indexed":true,"internalType":"bytes32"},{"name":"previousAdminRole","type":"bytes32","indexed":true,"internalType":"bytes32"},{"name":"newAdminRole","type":"bytes32","indexed":true,"internalType":"bytes32"}],"anonymous":false},{"type":"event","name":"RoleGranted","inputs":[{"name":"role","type":"bytes32","indexed":true,"internalType":"bytes32"},{"name":"account","type":"address","indexed":true,"internalType":"address"},{"name":"sender","type":"address","indexed":true,"internalType":"address"}],"anonymous":false},{"type":"event","name":"RoleRevoked","inputs":[{"name":"role","type":"bytes32","indexed":true,"internalType":"bytes32"},{"name":"account","type":"address","indexed":true,"internalType":"address"},{"name":"sender","type":"address","indexed":true,"internalType":"address"}],"anonymous":false},{"type":"event","name":"SwapFrom1kUSD","inputs":[{"name":"user","type":"address","indexed":true,"internalType":"address"},{"name":"tokenOut","type":"address","indexed":false,"internalType":"address"},{"name":"amountIn","type":"uint256","indexed":false,"internalType":"uint256"},{"name":"fee","type":"uint256","indexed":false,"internalType":"uint256"},{"name":"netOut","type":"uint256","indexed":false,"internalType":"uint256"},{"name":"ts","type":"uint256","indexed":false,"internalType":"uint256"}],"anonymous":false},{"type":"event","name":"SwapTo1kUSD","inputs":[{"name":"user","type":"address","indexed":true,"internalType":"address"},{"name":"tokenIn","type":"address","indexed":false,"internalType":"address"},{"name":"amountIn","type":"uint256","indexed":false,"internalType":"uint256"},{"name":"fee","type":"uint256","indexed":false,"internalType":"uint256"},{"name":"netOut","type":"uint256","indexed":false,"internalType":"uint256"},{"name":"ts","type":"uint256","indexed":false,"internalType":"uint256"}],"anonymous":false},{"type":"error","name":"ACCESS_DENIED","inputs":[]},{"type":"error","name":"AccessControlBadConfirmation","inputs":[]},{"type":"error","name":"AccessControlUnauthorizedAccount","inputs":[{"name":"account","type":"address","internalType":"address"},{"name":"neededRole","type":"bytes32","internalType":"bytes32"}]},{"type":"error","name":"CAP_EXCEEDED","inputs":[]},{"type":"error","name":"DEVIATION_EXCEEDED","inputs":[]},{"type":"error","name":"INSUFFICIENT_LIQUIDITY","inputs":[]},{"type":"error","name":"InsufficientOut","inputs":[]},{"type":"error","name":"ORACLE_STALE","inputs":[]},{"type":"error","name":"ORACLE_UNHEALTHY","inputs":[]},{"type":"error","name":"PAUSED","inputs":[]},{"type":"error","name":"PausedError","inputs":[]},{"type":"error","name":"ReentrancyGuardReentrantCall","inputs":[]},{"type":"error","name":"SLIPPAGE","inputs":[]},{"type":"error","name":"SafeERC20FailedOperation","inputs":[{"name":"token","type":"address","internalType":"address"}]},{"type":"error","name":"UNSUPPORTED_ASSET","inputs":[]},{"type":"error","name":"ZERO_AMOUNT","inputs":[]}],"bytecode":{"object":"0x608060405234801561001057600080fd5b506040516118aa3803806118aa83398101604081905261002f91610186565b6001805561003e6000866100be565b506100697fa49807205ce4d355092ef5a8a18f56e8913cf4a201fbe287825b095693c21775866100be565b50600280546001600160a01b039586166001600160a01b0319918216179091556003805494861694821694909417909355600480549285169284169290921790915560058054919093169116179055506101eb565b6000828152602081815260408083206001600160a01b038516845290915281205460ff16610160576000838152602081815260408083206001600160a01b03861684529091529020805460ff191660011790556101183390565b6001600160a01b0316826001600160a01b0316847f2f8788117e7eff1d82e926ec794901d17c78024a50270940304540a733656f0d60405160405180910390a4506001610164565b5060005b92915050565b80516001600160a01b038116811461018157600080fd5b919050565b600080600080600060a0868803121561019e57600080fd5b6101a78661016a565b94506101b56020870161016a565b93506101c36040870161016a565b92506101d16060870161016a565b91506101df6080870161016a565b90509295509295909350565b6116b0806101fa6000396000f3fe608060405234801561001057600080fd5b50600436106101735760003560e01c80637b103999116100de57806397c8bcc111610097578063d58b006b11610071578063d58b006b1461036d578063f29ebf6114610394578063facf40c8146103a7578063fbfa77cf146103ba57600080fd5b806397c8bcc114610349578063a217fddf14610352578063d547741f1461035a57600080fd5b80637b103999146102a15780637dc0d1d0146102b45780638318c76d146102c7578063860aefcf146102da57806391d14854146102ed57806394c5a3781461030057600080fd5b806334f98bde1161013057806334f98bde1461021557806336568abe14610228578063377f973e1461023b5780634ce37be91461026657806375b238fc146102795780637adbf9731461028e57600080fd5b806301ffc9a71461017857806309f6442c146101a05780630b78f9c0146101b757806321af10ab146101cc578063248a9ca3146101df5780632f2ff15d14610202575b600080fd5b61018b6101863660046112a8565b6103cd565b60405190151581526020015b60405180910390f35b6101a9600a5481565b604051908152602001610197565b6101ca6101c53660046112d9565b610404565b005b6101ca6101da366004611317565b610464565b6101a96101ed366004611332565b60009081526020819052604090206001015490565b6101ca61021036600461134b565b61049f565b6101a9610223366004611377565b6104ca565b6101ca61023636600461134b565b610873565b60025461024e906001600160a01b031681565b6040516001600160a01b039091168152602001610197565b60045461024e906001600160a01b031681565b6101a960008051602061165b83398151915281565b6101ca61029c366004611317565b6108ab565b60055461024e906001600160a01b031681565b60075461024e906001600160a01b031681565b6101a96102d5366004611377565b6108e6565b60065461024e906001600160a01b031681565b61018b6102fb36600461134b565b610aa0565b61031361030e3660046113d4565b610ac9565b604051610197919081518152602080830151908201526040808301519082015260609182015160ff169181019190915260800190565b6101a960095481565b6101a9600081565b6101ca61036836600461134b565b610b34565b6101a97ff59ca105c0ea2f88067685df6334c9318a7184b56eca87852bfc2067c1b861e081565b60085461024e906001600160a01b031681565b6103136103b53660046113d4565b610b59565b60035461024e906001600160a01b031681565b60006001600160e01b03198216637965db0b60e01b14806103fe57506301ffc9a760e01b6001600160e01b03198316145b92915050565b60008051602061165b83398151915261041c81610bc7565b6009839055600a82905560408051848152602081018490527f5c6323bf1c2d7aaea2c091a4751c1c87af7f2864650c336507a77d0557af37a1910160405180910390a1505050565b60008051602061165b83398151915261047c81610bc7565b50600680546001600160a01b0319166001600160a01b0392909216919091179055565b6000828152602081905260409020600101546104ba81610bc7565b6104c48383610bd4565b50505050565b6004546000906001600160a01b03161580159061056f57506004805460405163241b71bb60e01b81527ff59ca105c0ea2f88067685df6334c9318a7184b56eca87852bfc2067c1b861e0928101929092526001600160a01b03169063241b71bb90602401602060405180830381865afa15801561054b573d6000803e3d6000fd5b505050506040513d601f19601f8201168201806040525081019061056f919061143c565b1561058d57604051633b3b4caf60e21b815260040160405180910390fd5b610595610c66565b600085116105dc5760405162461bcd60e51b815260206004820152600f60248201526e050534d3a20616d6f756e74496e3d3608c1b60448201526064015b60405180910390fd5b6105e586610c90565b60006012905060008060006105fe8a8a60095487610d66565b92509250925061060d83610dd5565b8681101561062e576040516302f9993560e61b815260040160405180910390fd5b60035461064a906001600160a01b038c8116913391168c610e49565b600354604051638340f54960e01b81526001600160a01b038c81166004830152336024830152604482018c905290911690638340f54990606401600060405180830381600087803b15801561069e57600080fd5b505af11580156106b2573d6000803e3d6000fd5b50506002546040516340c10f1960e01b81526001600160a01b038c811660048301526024820186905290911692506340c10f199150604401600060405180830381600087803b15801561070457600080fd5b505af1158015610718573d6000803e3d6000fd5b5050505060008211801561073657506008546001600160a01b031615155b156107b957600854600254604051632f2b968160e21b81526b50534d5f4d494e545f46454560a01b60048201526001600160a01b0391821660248201526044810185905291169063bcae5a0490606401600060405180830381600087803b1580156107a057600080fd5b505af11580156107b4573d6000803e3d6000fd5b505050505b604080516001600160a01b038c1681526020810185905290810183905260608101829052426080820152909450849033907f658d4e439126bca4a27d834c36c73df99a10c1d39e2c439bd54c2223632f95ba9060a0015b60405180910390a2604080518a81524260208201526001600160a01b038c169133917fdd5e1f06d096186bcff783954d1f231623f500b2c147d0b79eb007652d6d8fb6910160405180910390a35050505061086a60018055565b95945050505050565b6001600160a01b038116331461089c5760405163334bd91960e11b815260040160405180910390fd5b6108a68282610ea3565b505050565b60008051602061165b8339815191526108c381610bc7565b50600780546001600160a01b0319166001600160a01b0392909216919091179055565b6004546000906001600160a01b03161580159061098b57506004805460405163241b71bb60e01b81527ff59ca105c0ea2f88067685df6334c9318a7184b56eca87852bfc2067c1b861e0928101929092526001600160a01b03169063241b71bb90602401602060405180830381865afa158015610967573d6000803e3d6000fd5b505050506040513d601f19601f8201168201806040525081019061098b919061143c565b156109a957604051633b3b4caf60e21b815260040160405180910390fd5b6109b1610c66565b600085116109f35760405162461bcd60e51b815260206004820152600f60248201526e050534d3a20616d6f756e74496e3d3608c1b60448201526064016105d3565b6109fc86610c90565b6000601290506000806000610a158a8a600a5487610f0e565b925092509250610a2483610dd5565b86811015610a45576040516302f9993560e61b815260040160405180910390fd5b604080516001600160a01b038c1681526020810185905290810183905260608101829052426080820152909450849033907fc32bc6394da23465a544c4df789da1aadd72beb16a566d844ff490d78ec027799060a001610810565b6000918252602082815260408084206001600160a01b0393909316845291905290205460ff1690565b610af76040518060800160405280600081526020016000815260200160008152602001600060ff1681525090565b6000806000610b0888888888610d66565b604080516080810182529384526020840192909252908201526012606082015298975050505050505050565b600082815260208190526040902060010154610b4f81610bc7565b6104c48383610ea3565b610b876040518060800160405280600081526020016000815260200160008152602001600060ff1681525090565b6000806000610b9888888888610f0e565b6040805160808101825293845260208401929092529082015260ff909516606086015250929695505050505050565b610bd18133610f83565b50565b6000610be08383610aa0565b610c5e576000838152602081815260408083206001600160a01b03861684529091529020805460ff19166001179055610c163390565b6001600160a01b0316826001600160a01b0316847f2f8788117e7eff1d82e926ec794901d17c78024a50270940304540a733656f0d60405160405180910390a45060016103fe565b5060006103fe565b600260015403610c8957604051633ee5aeb560e01b815260040160405180910390fd5b6002600155565b6007546001600160a01b0316610ca35750565b600760009054906101000a90046001600160a01b03166001600160a01b031663cd905dff6040518163ffffffff1660e01b8152600401602060405180830381865afa158015610cf6573d6000803e3d6000fd5b505050506040513d601f19601f82011682018060405250810190610d1a919061143c565b610bd15760405162461bcd60e51b815260206004820152601b60248201527f50534d3a206f7261636c65206e6f74206f7065726174696f6e616c000000000060448201526064016105d3565b600080600085600003610d8157506000915081905080610dcb565b600080610d8d89610fc0565b91509150610d9d888784846110f6565b9450612710610db061ffff89168761146d565b610dba9190611484565b9350610dc684866114a6565b925050505b9450945094915050565b6006546001600160a01b0316610de85750565b60065460405163e30691ed60e01b8152600481018390526001600160a01b039091169063e30691ed90602401600060405180830381600087803b158015610e2e57600080fd5b505af1158015610e42573d6000803e3d6000fd5b5050505050565b604080516001600160a01b0385811660248301528416604482015260648082018490528251808303909101815260849091019091526020810180516001600160e01b03166323b872dd60e01b1790526104c4908590611195565b6000610eaf8383610aa0565b15610c5e576000838152602081815260408083206001600160a01b0386168085529252808320805460ff1916905551339286917ff6391f5c32d9c69d2a47ea670b442974b53935d1edc7fd64eb21e047a839171b9190a45060016103fe565b600080600085600003610f2957506000915081905080610dcb565b600080610f3589610fc0565b8996509092509050612710610f4e61ffff89168761146d565b610f589190611484565b93506000610f6685876114a6565b9050610f7481888585611206565b93505050509450945094915050565b610f8d8282610aa0565b610fbc5760405163e2517d3f60e01b81526001600160a01b0382166004820152602481018390526044016105d3565b5050565b60075460009081906001600160a01b0316610fe85750670de0b6b3a764000092601292509050565b6007546040516341976e0960e01b81526001600160a01b03858116600483015260009216906341976e0990602401608060405180830381865afa158015611033573d6000803e3d6000fd5b505050506040513d601f19601f8201168201806040525081019061105791906114b9565b905080604001516110a25760405162461bcd60e51b815260206004820152601560248201527450534d3a206f7261636c6520756e6865616c74687960581b60448201526064016105d3565b80516000126110e45760405162461bcd60e51b815260206004820152600e60248201526d50534d3a2062616420707269636560901b60448201526064016105d3565b80516020909101519094909350915050565b600060128460ff16101561113057600061111185601261153f565b905061111e81600a61163f565b611128908761146d565b955050611164565b60128460ff16111561116457600061114960128661153f565b905061115681600a61163f565b6111609087611484565b9550505b600061117460ff8416600a61164e565b905080611181858861146d565b61118b9190611484565b9695505050505050565b600080602060008451602086016000885af1806111b8576040513d6000823e3d81fd5b50506000513d915081156111d05780600114156111dd565b6001600160a01b0384163b155b156104c457604051635274afe760e01b81526001600160a01b03851660048201526024016105d3565b60008061121760ff8416600a61164e565b9050600084611226838961146d565b6112309190611484565b905060128660ff16101561126a57600061124b87601261153f565b905061125881600a61163f565b6112629083611484565b93505061129e565b60128660ff16111561129a57600061128360128861153f565b905061129081600a61163f565b611262908361146d565b8092505b5050949350505050565b6000602082840312156112ba57600080fd5b81356001600160e01b0319811681146112d257600080fd5b9392505050565b600080604083850312156112ec57600080fd5b50508035926020909101359150565b80356001600160a01b038116811461131257600080fd5b919050565b60006020828403121561132957600080fd5b6112d2826112fb565b60006020828403121561134457600080fd5b5035919050565b6000806040838503121561135e57600080fd5b8235915061136e602084016112fb565b90509250929050565b600080600080600060a0868803121561138f57600080fd5b611398866112fb565b9450602086013593506113ad604087016112fb565b94979396509394606081013594506080013592915050565b60ff81168114610bd157600080fd5b600080600080608085870312156113ea57600080fd5b6113f3856112fb565b935060208501359250604085013561ffff8116811461141157600080fd5b91506060850135611421816113c5565b939692955090935050565b8051801515811461131257600080fd5b60006020828403121561144e57600080fd5b6112d28261142c565b634e487b7160e01b600052601160045260246000fd5b80820281158282048414176103fe576103fe611457565b6000826114a157634e487b7160e01b600052601260045260246000fd5b500490565b818103818111156103fe576103fe611457565b600060808284031280156114cc57600080fd5b600090506040516080810181811067ffffffffffffffff821117156114ff57634e487b7160e01b83526041600452602483fd5b604052835181526020840151611514816113c5565b60208201526115256040850161142c565b604082015260609384015193810193909352509092915050565b60ff82811682821603908111156103fe576103fe611457565b6001815b60018411156115935780850481111561157757611577611457565b600184161561158557908102905b60019390931c92800261155c565b935093915050565b6000826115aa575060016103fe565b816115b7575060006103fe565b81600181146115cd57600281146115d7576115f3565b60019150506103fe565b60ff8411156115e8576115e8611457565b50506001821b6103fe565b5060208310610133831016604e8410600b8410161715611616575081810a6103fe565b6116236000198484611558565b806000190482111561163757611637611457565b029392505050565b60006112d260ff84168361159b565b60006112d2838361159b56fea49807205ce4d355092ef5a8a18f56e8913cf4a201fbe287825b095693c21775a26469706673582212205ef609304f19d8000b375b16734caa613f72145aca38c00dce4b0786b6dc629864736f6c634300081e0033","linkReferences":{}},"methodIdentifiers":{"ADMIN_ROLE()":"75b238fc","DEFAULT_ADMIN_ROLE()":"a217fddf","MODULE_PSM()":"d58b006b","feeRouter()":"f29ebf61","getRoleAdmin(bytes32)":"248a9ca3","grantRole(bytes32,address)":"2f2ff15d","hasRole(bytes32,address)":"91d14854","limits()":"860aefcf","mintFeeBps()":"97c8bcc1","oneKUSD()":"377f973e","oracle()":"7dc0d1d0","quoteFrom1kUSD(address,uint256,uint16,uint8)":"facf40c8","quoteTo1kUSD(address,uint256,uint16,uint8)":"94c5a378","redeemFeeBps()":"09f6442c","registry()":"7b103999","renounceRole(bytes32,address)":"36568abe","revokeRole(bytes32,address)":"d547741f","safetyAutomata()":"4ce37be9","setFees(uint256,uint256)":"0b78f9c0","setLimits(address)":"21af10ab","setOracle(address)":"7adbf973","supportsInterface(bytes4)":"01ffc9a7","swapFrom1kUSD(address,uint256,address,uint256,uint256)":"8318c76d","swapTo1kUSD(address,uint256,address,uint256,uint256)":"34f98bde","vault()":"fbfa77cf"},"id":3}