{"abi":[{"type":"constructor","inputs":[{"name":"admin","type":"address","internalType":"address"},{"name":"_oneKUSD","type":"address","internalType":"address"},{"name":"_vault","type":"address","internalType":"address"},{"name":"_auto","type":"address","internalType":"address"},{"name":"_reg","type":"address","internalType":"address"}],"stateMutability":"nonpayable"},{"type":"function","name":"ADMIN_ROLE","inputs":[],"outputs":[{"name":"","type":"bytes32","internalType":"bytes32"}],"stateMutability":"view"},{"type":"function","name":"DEFAULT_ADMIN_ROLE","inputs":[],"outputs":[{"name":"","type":"bytes32","internalType":"bytes32"}],"stateMutability":"view"},{"type":"function","name":"getRoleAdmin","inputs":[{"name":"role","type":"bytes32","internalType":"bytes32"}],"outputs":[{"name":"","type":"bytes32","internalType":"bytes32"}],"stateMutability":"view"},{"type":"function","name":"grantRole","inputs":[{"name":"role","type":"bytes32","internalType":"bytes32"},{"name":"account","type":"address","internalType":"address"}],"outputs":[],"stateMutability":"nonpayable"},{"type":"function","name":"hasRole","inputs":[{"name":"role","type":"bytes32","internalType":"bytes32"},{"name":"account","type":"address","internalType":"address"}],"outputs":[{"name":"","type":"bool","internalType":"bool"}],"stateMutability":"view"},{"type":"function","name":"mintFeeBps","inputs":[],"outputs":[{"name":"","type":"uint256","internalType":"uint256"}],"stateMutability":"view"},{"type":"function","name":"oneKUSD","inputs":[],"outputs":[{"name":"","type":"address","internalType":"contract OneKUSD"}],"stateMutability":"view"},{"type":"function","name":"quoteFrom1kUSD","inputs":[{"name":"tokenOut","type":"address","internalType":"address"},{"name":"amountIn1k","type":"uint256","internalType":"uint256"},{"name":"feeBps","type":"uint16","internalType":"uint16"},{"name":"tokenOutDecimals","type":"uint8","internalType":"uint8"}],"outputs":[{"name":"q","type":"tuple","internalType":"struct IPSM.QuoteOut","components":[{"name":"grossOut","type":"uint256","internalType":"uint256"},{"name":"fee","type":"uint256","internalType":"uint256"},{"name":"netOut","type":"uint256","internalType":"uint256"},{"name":"outDecimals","type":"uint8","internalType":"uint8"}]}],"stateMutability":"view"},{"type":"function","name":"quoteTo1kUSD","inputs":[{"name":"tokenIn","type":"address","internalType":"address"},{"name":"amountIn","type":"uint256","internalType":"uint256"},{"name":"feeBps","type":"uint16","internalType":"uint16"},{"name":"tokenInDecimals","type":"uint8","internalType":"uint8"}],"outputs":[{"name":"q","type":"tuple","internalType":"struct IPSM.QuoteOut","components":[{"name":"grossOut","type":"uint256","internalType":"uint256"},{"name":"fee","type":"uint256","internalType":"uint256"},{"name":"netOut","type":"uint256","internalType":"uint256"},{"name":"outDecimals","type":"uint8","internalType":"uint8"}]}],"stateMutability":"view"},{"type":"function","name":"redeemFeeBps","inputs":[],"outputs":[{"name":"","type":"uint256","internalType":"uint256"}],"stateMutability":"view"},{"type":"function","name":"registry","inputs":[],"outputs":[{"name":"","type":"address","internalType":"contract ParameterRegistry"}],"stateMutability":"view"},{"type":"function","name":"renounceRole","inputs":[{"name":"role","type":"bytes32","internalType":"bytes32"},{"name":"callerConfirmation","type":"address","internalType":"address"}],"outputs":[],"stateMutability":"nonpayable"},{"type":"function","name":"revokeRole","inputs":[{"name":"role","type":"bytes32","internalType":"bytes32"},{"name":"account","type":"address","internalType":"address"}],"outputs":[],"stateMutability":"nonpayable"},{"type":"function","name":"safetyAutomata","inputs":[],"outputs":[{"name":"","type":"address","internalType":"contract ISafetyAutomata"}],"stateMutability":"view"},{"type":"function","name":"setFees","inputs":[{"name":"mintFee","type":"uint256","internalType":"uint256"},{"name":"redeemFee","type":"uint256","internalType":"uint256"}],"outputs":[],"stateMutability":"nonpayable"},{"type":"function","name":"supportsInterface","inputs":[{"name":"interfaceId","type":"bytes4","internalType":"bytes4"}],"outputs":[{"name":"","type":"bool","internalType":"bool"}],"stateMutability":"view"},{"type":"function","name":"swapFrom1kUSD","inputs":[{"name":"tokenOut","type":"address","internalType":"address"},{"name":"amountIn1k","type":"uint256","internalType":"uint256"},{"name":"to","type":"address","internalType":"address"},{"name":"minOut","type":"uint256","internalType":"uint256"},{"name":"","type":"uint256","internalType":"uint256"}],"outputs":[{"name":"netOut","type":"uint256","internalType":"uint256"}],"stateMutability":"nonpayable"},{"type":"function","name":"swapTo1kUSD","inputs":[{"name":"tokenIn","type":"address","internalType":"address"},{"name":"amountIn","type":"uint256","internalType":"uint256"},{"name":"to","type":"address","internalType":"address"},{"name":"minOut","type":"uint256","internalType":"uint256"},{"name":"","type":"uint256","internalType":"uint256"}],"outputs":[{"name":"netOut","type":"uint256","internalType":"uint256"}],"stateMutability":"nonpayable"},{"type":"function","name":"vault","inputs":[],"outputs":[{"name":"","type":"address","internalType":"contract CollateralVault"}],"stateMutability":"view"},{"type":"event","name":"FeeAccrued","inputs":[{"name":"asset","type":"address","indexed":true,"internalType":"address"},{"name":"amount","type":"uint256","indexed":false,"internalType":"uint256"}],"anonymous":false},{"type":"event","name":"FeesUpdated","inputs":[{"name":"mintFeeBps","type":"uint256","indexed":false,"internalType":"uint256"},{"name":"redeemFeeBps","type":"uint256","indexed":false,"internalType":"uint256"}],"anonymous":false},{"type":"event","name":"RoleAdminChanged","inputs":[{"name":"role","type":"bytes32","indexed":true,"internalType":"bytes32"},{"name":"previousAdminRole","type":"bytes32","indexed":true,"internalType":"bytes32"},{"name":"newAdminRole","type":"bytes32","indexed":true,"internalType":"bytes32"}],"anonymous":false},{"type":"event","name":"RoleGranted","inputs":[{"name":"role","type":"bytes32","indexed":true,"internalType":"bytes32"},{"name":"account","type":"address","indexed":true,"internalType":"address"},{"name":"sender","type":"address","indexed":true,"internalType":"address"}],"anonymous":false},{"type":"event","name":"RoleRevoked","inputs":[{"name":"role","type":"bytes32","indexed":true,"internalType":"bytes32"},{"name":"account","type":"address","indexed":true,"internalType":"address"},{"name":"sender","type":"address","indexed":true,"internalType":"address"}],"anonymous":false},{"type":"event","name":"SwapFrom1kUSD","inputs":[{"name":"user","type":"address","indexed":true,"internalType":"address"},{"name":"tokenOut","type":"address","indexed":false,"internalType":"address"},{"name":"amountIn","type":"uint256","indexed":false,"internalType":"uint256"},{"name":"fee","type":"uint256","indexed":false,"internalType":"uint256"},{"name":"netOut","type":"uint256","indexed":false,"internalType":"uint256"},{"name":"ts","type":"uint256","indexed":false,"internalType":"uint256"}],"anonymous":false},{"type":"event","name":"SwapTo1kUSD","inputs":[{"name":"user","type":"address","indexed":true,"internalType":"address"},{"name":"tokenIn","type":"address","indexed":false,"internalType":"address"},{"name":"amountIn","type":"uint256","indexed":false,"internalType":"uint256"},{"name":"fee","type":"uint256","indexed":false,"internalType":"uint256"},{"name":"netOut","type":"uint256","indexed":false,"internalType":"uint256"},{"name":"ts","type":"uint256","indexed":false,"internalType":"uint256"}],"anonymous":false},{"type":"error","name":"ACCESS_DENIED","inputs":[]},{"type":"error","name":"AccessControlBadConfirmation","inputs":[]},{"type":"error","name":"AccessControlUnauthorizedAccount","inputs":[{"name":"account","type":"address","internalType":"address"},{"name":"neededRole","type":"bytes32","internalType":"bytes32"}]},{"type":"error","name":"AddressEmptyCode","inputs":[{"name":"target","type":"address","internalType":"address"}]},{"type":"error","name":"AddressInsufficientBalance","inputs":[{"name":"account","type":"address","internalType":"address"}]},{"type":"error","name":"CAP_EXCEEDED","inputs":[]},{"type":"error","name":"DEVIATION_EXCEEDED","inputs":[]},{"type":"error","name":"FailedInnerCall","inputs":[]},{"type":"error","name":"INSUFFICIENT_LIQUIDITY","inputs":[]},{"type":"error","name":"InsufficientOut","inputs":[]},{"type":"error","name":"ORACLE_STALE","inputs":[]},{"type":"error","name":"ORACLE_UNHEALTHY","inputs":[]},{"type":"error","name":"PAUSED","inputs":[]},{"type":"error","name":"PausedError","inputs":[]},{"type":"error","name":"ReentrancyGuardReentrantCall","inputs":[]},{"type":"error","name":"SLIPPAGE","inputs":[]},{"type":"error","name":"SafeERC20FailedOperation","inputs":[{"name":"token","type":"address","internalType":"address"}]},{"type":"error","name":"UNSUPPORTED_ASSET","inputs":[]},{"type":"error","name":"ZERO_AMOUNT","inputs":[]}],"bytecode":{"object":"0x608060405234801561001057600080fd5b506040516110e43803806110e483398101604081905261002f91610186565b6001805561003e6000866100be565b506100697fa49807205ce4d355092ef5a8a18f56e8913cf4a201fbe287825b095693c21775866100be565b50600280546001600160a01b039586166001600160a01b0319918216179091556003805494861694821694909417909355600480549285169284169290921790915560058054919093169116179055506101eb565b6000828152602081815260408083206001600160a01b038516845290915281205460ff16610160576000838152602081815260408083206001600160a01b03861684529091529020805460ff191660011790556101183390565b6001600160a01b0316826001600160a01b0316847f2f8788117e7eff1d82e926ec794901d17c78024a50270940304540a733656f0d60405160405180910390a4506001610164565b5060005b92915050565b80516001600160a01b038116811461018157600080fd5b919050565b600080600080600060a0868803121561019e57600080fd5b6101a78661016a565b94506101b56020870161016a565b93506101c36040870161016a565b92506101d16060870161016a565b91506101df6080870161016a565b90509295509295909350565b610eea806101fa6000396000f3fe608060405234801561001057600080fd5b50600436106101215760003560e01c806375b238fc116100ad57806397c8bcc11161007157806397c8bcc1146102bd578063a217fddf146102c6578063d547741f146102ce578063facf40c814610274578063fbfa77cf146102e157600080fd5b806375b238fc146102145780637b1039991461023b5780638318c76d1461024e57806391d148541461026157806394c5a3781461027457600080fd5b80632f2ff15d116100f45780632f2ff15d1461019d57806334f98bde146101b057806336568abe146101c3578063377f973e146101d65780634ce37be91461020157600080fd5b806301ffc9a71461012657806309f6442c1461014e5780630b78f9c014610165578063248a9ca31461017a575b600080fd5b610139610134366004610ca8565b6102f4565b60405190151581526020015b60405180910390f35b61015760075481565b604051908152602001610145565b610178610173366004610cd2565b61032b565b005b610157610188366004610cf4565b60009081526020819052604090206001015490565b6101786101ab366004610d29565b61039d565b6101576101be366004610d55565b6103c8565b6101786101d1366004610d29565b6105ce565b6002546101e9906001600160a01b031681565b6040516001600160a01b039091168152602001610145565b6004546101e9906001600160a01b031681565b6101577fa49807205ce4d355092ef5a8a18f56e8913cf4a201fbe287825b095693c2177581565b6005546101e9906001600160a01b031681565b61015761025c366004610d55565b610606565b61013961026f366004610d29565b61086b565b610287610282366004610da3565b610894565b604051610145919081518152602080830151908201526040808301519082015260609182015160ff169181019190915260800190565b61015760065481565b610157600081565b6101786102dc366004610d29565b610919565b6003546101e9906001600160a01b031681565b60006001600160e01b03198216637965db0b60e01b148061032557506301ffc9a760e01b6001600160e01b03198316145b92915050565b7fa49807205ce4d355092ef5a8a18f56e8913cf4a201fbe287825b095693c217756103558161093e565b6006839055600782905560408051848152602081018490527f5c6323bf1c2d7aaea2c091a4751c1c87af7f2864650c336507a77d0557af37a1910160405180910390a1505050565b6000828152602081905260409020600101546103b88161093e565b6103c2838361094b565b50505050565b6004546000906001600160a01b03161580159061046d57506004805460405163241b71bb60e01b81527ff59ca105c0ea2f88067685df6334c9318a7184b56eca87852bfc2067c1b861e0928101929092526001600160a01b03169063241b71bb90602401602060405180830381865afa158015610449573d6000803e3d6000fd5b505050506040513d601f19601f8201168201806040525081019061046d9190610e01565b1561048b57604051633b3b4caf60e21b815260040160405180910390fd5b6104936109dd565b6003546104af906001600160a01b038881169133911688610a07565b6000612710600654876104c29190610e39565b6104cc9190610e50565b90506104d88187610e72565b9150838210156104fb576040516302f9993560e61b815260040160405180910390fd5b6002546040516340c10f1960e01b81526001600160a01b03878116600483015260248201859052909116906340c10f1990604401600060405180830381600087803b15801561054957600080fd5b505af115801561055d573d6000803e3d6000fd5b5050604080516001600160a01b038b168152602081018a9052908101849052606081018590524260808201523392507f658d4e439126bca4a27d834c36c73df99a10c1d39e2c439bd54c2223632f95ba915060a0015b60405180910390a2506105c560018055565b95945050505050565b6001600160a01b03811633146105f75760405163334bd91960e11b815260040160405180910390fd5b6106018282610a61565b505050565b6004546000906001600160a01b0316158015906106ab57506004805460405163241b71bb60e01b81527ff59ca105c0ea2f88067685df6334c9318a7184b56eca87852bfc2067c1b861e0928101929092526001600160a01b03169063241b71bb90602401602060405180830381865afa158015610687573d6000803e3d6000fd5b505050506040513d601f19601f820116820180604052508101906106ab9190610e01565b156106c957604051633b3b4caf60e21b815260040160405180910390fd5b6106d16109dd565b600254604051632770a7eb60e21b8152336004820152602481018790526001600160a01b0390911690639dc29fac90604401600060405180830381600087803b15801561071d57600080fd5b505af1158015610731573d6000803e3d6000fd5b505050506000612710600754876107489190610e39565b6107529190610e50565b905061075e8187610e72565b915083821015610781576040516302f9993560e61b815260040160405180910390fd5b60035460405163f4b23e0360e01b81526001600160a01b0389811660048301528781166024830152604482018590527f338ff8aaf12c4341737de26ab50db8dd883a65d80ccb1b653d09265a7255938860648301529091169063f4b23e0390608401600060405180830381600087803b1580156107fd57600080fd5b505af1158015610811573d6000803e3d6000fd5b5050604080516001600160a01b038b168152602081018a9052908101849052606081018590524260808201523392507fc32bc6394da23465a544c4df789da1aadd72beb16a566d844ff490d78ec02779915060a0016105b3565b6000918252602082815260408084206001600160a01b0393909316845291905290205460ff1690565b6108c26040518060800160405280600081526020016000815260200160008152602001600060ff1681525090565b60006127106108d561ffff861687610e39565b6108df9190610e50565b905060006108ed8287610e72565b60408051608081018252978852602088019390935291860191909152505060ff16606083015250919050565b6000828152602081905260409020600101546109348161093e565b6103c28383610a61565b6109488133610acc565b50565b6000610957838361086b565b6109d5576000838152602081815260408083206001600160a01b03861684529091529020805460ff1916600117905561098d3390565b6001600160a01b0316826001600160a01b0316847f2f8788117e7eff1d82e926ec794901d17c78024a50270940304540a733656f0d60405160405180910390a4506001610325565b506000610325565b600260015403610a0057604051633ee5aeb560e01b815260040160405180910390fd5b6002600155565b604080516001600160a01b0385811660248301528416604482015260648082018490528251808303909101815260849091019091526020810180516001600160e01b03166323b872dd60e01b1790526103c2908590610b0e565b6000610a6d838361086b565b156109d5576000838152602081815260408083206001600160a01b0386168085529252808320805460ff1916905551339286917ff6391f5c32d9c69d2a47ea670b442974b53935d1edc7fd64eb21e047a839171b9190a4506001610325565b610ad6828261086b565b610b0a5760405163e2517d3f60e01b81526001600160a01b0382166004820152602481018390526044015b60405180910390fd5b5050565b6000610b236001600160a01b03841683610b71565b90508051600014158015610b48575080806020019051810190610b469190610e01565b155b1561060157604051635274afe760e01b81526001600160a01b0384166004820152602401610b01565b6060610b7f83836000610b86565b9392505050565b606081471015610bab5760405163cd78605960e01b8152306004820152602401610b01565b600080856001600160a01b03168486604051610bc79190610e85565b60006040518083038185875af1925050503d8060008114610c04576040519150601f19603f3d011682016040523d82523d6000602084013e610c09565b606091505b5091509150610c19868383610c23565b9695505050505050565b606082610c3857610c3382610c7f565b610b7f565b8151158015610c4f57506001600160a01b0384163b155b15610c7857604051639996b31560e01b81526001600160a01b0385166004820152602401610b01565b5080610b7f565b805115610c8f5780518082602001fd5b604051630a12f52160e11b815260040160405180910390fd5b600060208284031215610cba57600080fd5b81356001600160e01b031981168114610b7f57600080fd5b60008060408385031215610ce557600080fd5b50508035926020909101359150565b600060208284031215610d0657600080fd5b5035919050565b80356001600160a01b0381168114610d2457600080fd5b919050565b60008060408385031215610d3c57600080fd5b82359150610d4c60208401610d0d565b90509250929050565b600080600080600060a08688031215610d6d57600080fd5b610d7686610d0d565b945060208601359350610d8b60408701610d0d565b94979396509394606081013594506080013592915050565b60008060008060808587031215610db957600080fd5b610dc285610d0d565b935060208501359250604085013561ffff81168114610de057600080fd5b9150606085013560ff81168114610df657600080fd5b939692955090935050565b600060208284031215610e1357600080fd5b81518015158114610b7f57600080fd5b634e487b7160e01b600052601160045260246000fd5b808202811582820484141761032557610325610e23565b600082610e6d57634e487b7160e01b600052601260045260246000fd5b500490565b8181038181111561032557610325610e23565b6000825160005b81811015610ea65760208186018101518583015201610e8c565b50600092019182525091905056fea26469706673582212204772aedeebf7e709db5872cb889bdca73cbbc298edf183dd28ab2f99baa10f0964736f6c634300081e0033","linkReferences":{}},"methodIdentifiers":{"ADMIN_ROLE()":"75b238fc","DEFAULT_ADMIN_ROLE()":"a217fddf","getRoleAdmin(bytes32)":"248a9ca3","grantRole(bytes32,address)":"2f2ff15d","hasRole(bytes32,address)":"91d14854","mintFeeBps()":"97c8bcc1","oneKUSD()":"377f973e","quoteFrom1kUSD(address,uint256,uint16,uint8)":"facf40c8","quoteTo1kUSD(address,uint256,uint16,uint8)":"94c5a378","redeemFeeBps()":"09f6442c","registry()":"7b103999","renounceRole(bytes32,address)":"36568abe","revokeRole(bytes32,address)":"d547741f","safetyAutomata()":"4ce37be9","setFees(uint256,uint256)":"0b78f9c0","supportsInterface(bytes4)":"01ffc9a7","swapFrom1kUSD(address,uint256,address,uint256,uint256)":"8318c76d","swapTo1kUSD(address,uint256,address,uint256,uint256)":"34f98bde","vault()":"fbfa77cf"},"id":8}