{"abi":[{"type":"constructor","inputs":[{"name":"admin","type":"address","internalType":"address"},{"name":"_oneKUSD","type":"address","internalType":"address"},{"name":"_vault","type":"address","internalType":"address"},{"name":"_auto","type":"address","internalType":"address"},{"name":"_reg","type":"address","internalType":"address"}],"stateMutability":"nonpayable"},{"type":"function","name":"ADMIN_ROLE","inputs":[],"outputs":[{"name":"","type":"bytes32","internalType":"bytes32"}],"stateMutability":"view"},{"type":"function","name":"DEFAULT_ADMIN_ROLE","inputs":[],"outputs":[{"name":"","type":"bytes32","internalType":"bytes32"}],"stateMutability":"view"},{"type":"function","name":"MODULE_PSM","inputs":[],"outputs":[{"name":"","type":"bytes32","internalType":"bytes32"}],"stateMutability":"view"},{"type":"function","name":"feeRouter","inputs":[],"outputs":[{"name":"","type":"address","internalType":"contract IFeeRouterV2"}],"stateMutability":"view"},{"type":"function","name":"getRoleAdmin","inputs":[{"name":"role","type":"bytes32","internalType":"bytes32"}],"outputs":[{"name":"","type":"bytes32","internalType":"bytes32"}],"stateMutability":"view"},{"type":"function","name":"grantRole","inputs":[{"name":"role","type":"bytes32","internalType":"bytes32"},{"name":"account","type":"address","internalType":"address"}],"outputs":[],"stateMutability":"nonpayable"},{"type":"function","name":"hasRole","inputs":[{"name":"role","type":"bytes32","internalType":"bytes32"},{"name":"account","type":"address","internalType":"address"}],"outputs":[{"name":"","type":"bool","internalType":"bool"}],"stateMutability":"view"},{"type":"function","name":"limits","inputs":[],"outputs":[{"name":"","type":"address","internalType":"contract PSMLimits"}],"stateMutability":"view"},{"type":"function","name":"mintFeeBps","inputs":[],"outputs":[{"name":"","type":"uint256","internalType":"uint256"}],"stateMutability":"view"},{"type":"function","name":"oneKUSD","inputs":[],"outputs":[{"name":"","type":"address","internalType":"contract OneKUSD"}],"stateMutability":"view"},{"type":"function","name":"oracle","inputs":[],"outputs":[{"name":"","type":"address","internalType":"contract IOracleAggregator"}],"stateMutability":"view"},{"type":"function","name":"quoteFrom1kUSD","inputs":[{"name":"tokenOut","type":"address","internalType":"address"},{"name":"amountIn1k","type":"uint256","internalType":"uint256"},{"name":"feeBps","type":"uint16","internalType":"uint16"},{"name":"tokenOutDecimals","type":"uint8","internalType":"uint8"}],"outputs":[{"name":"q","type":"tuple","internalType":"struct IPSM.QuoteOut","components":[{"name":"grossOut","type":"uint256","internalType":"uint256"},{"name":"fee","type":"uint256","internalType":"uint256"},{"name":"netOut","type":"uint256","internalType":"uint256"},{"name":"outDecimals","type":"uint8","internalType":"uint8"}]}],"stateMutability":"view"},{"type":"function","name":"quoteTo1kUSD","inputs":[{"name":"tokenIn","type":"address","internalType":"address"},{"name":"amountIn","type":"uint256","internalType":"uint256"},{"name":"feeBps","type":"uint16","internalType":"uint16"},{"name":"tokenInDecimals","type":"uint8","internalType":"uint8"}],"outputs":[{"name":"q","type":"tuple","internalType":"struct IPSM.QuoteOut","components":[{"name":"grossOut","type":"uint256","internalType":"uint256"},{"name":"fee","type":"uint256","internalType":"uint256"},{"name":"netOut","type":"uint256","internalType":"uint256"},{"name":"outDecimals","type":"uint8","internalType":"uint8"}]}],"stateMutability":"view"},{"type":"function","name":"redeemFeeBps","inputs":[],"outputs":[{"name":"","type":"uint256","internalType":"uint256"}],"stateMutability":"view"},{"type":"function","name":"registry","inputs":[],"outputs":[{"name":"","type":"address","internalType":"contract ParameterRegistry"}],"stateMutability":"view"},{"type":"function","name":"renounceRole","inputs":[{"name":"role","type":"bytes32","internalType":"bytes32"},{"name":"callerConfirmation","type":"address","internalType":"address"}],"outputs":[],"stateMutability":"nonpayable"},{"type":"function","name":"revokeRole","inputs":[{"name":"role","type":"bytes32","internalType":"bytes32"},{"name":"account","type":"address","internalType":"address"}],"outputs":[],"stateMutability":"nonpayable"},{"type":"function","name":"safetyAutomata","inputs":[],"outputs":[{"name":"","type":"address","internalType":"contract ISafetyAutomata"}],"stateMutability":"view"},{"type":"function","name":"setFees","inputs":[{"name":"mintFee","type":"uint256","internalType":"uint256"},{"name":"redeemFee","type":"uint256","internalType":"uint256"}],"outputs":[],"stateMutability":"nonpayable"},{"type":"function","name":"setLimits","inputs":[{"name":"_limits","type":"address","internalType":"address"}],"outputs":[],"stateMutability":"nonpayable"},{"type":"function","name":"setOracle","inputs":[{"name":"_oracle","type":"address","internalType":"address"}],"outputs":[],"stateMutability":"nonpayable"},{"type":"function","name":"supportsInterface","inputs":[{"name":"interfaceId","type":"bytes4","internalType":"bytes4"}],"outputs":[{"name":"","type":"bool","internalType":"bool"}],"stateMutability":"view"},{"type":"function","name":"swapFrom1kUSD","inputs":[{"name":"tokenOut","type":"address","internalType":"address"},{"name":"amountIn1k","type":"uint256","internalType":"uint256"},{"name":"to","type":"address","internalType":"address"},{"name":"minOut","type":"uint256","internalType":"uint256"},{"name":"","type":"uint256","internalType":"uint256"}],"outputs":[{"name":"netOut","type":"uint256","internalType":"uint256"}],"stateMutability":"nonpayable"},{"type":"function","name":"swapTo1kUSD","inputs":[{"name":"tokenIn","type":"address","internalType":"address"},{"name":"amountIn","type":"uint256","internalType":"uint256"},{"name":"to","type":"address","internalType":"address"},{"name":"minOut","type":"uint256","internalType":"uint256"},{"name":"","type":"uint256","internalType":"uint256"}],"outputs":[{"name":"netOut","type":"uint256","internalType":"uint256"}],"stateMutability":"nonpayable"},{"type":"function","name":"vault","inputs":[],"outputs":[{"name":"","type":"address","internalType":"contract CollateralVault"}],"stateMutability":"view"},{"type":"event","name":"FeeAccrued","inputs":[{"name":"asset","type":"address","indexed":true,"internalType":"address"},{"name":"amount","type":"uint256","indexed":false,"internalType":"uint256"}],"anonymous":false},{"type":"event","name":"FeesUpdated","inputs":[{"name":"mintFeeBps","type":"uint256","indexed":false,"internalType":"uint256"},{"name":"redeemFeeBps","type":"uint256","indexed":false,"internalType":"uint256"}],"anonymous":false},{"type":"event","name":"PSMFeesRouted","inputs":[{"name":"token","type":"address","indexed":true,"internalType":"address"},{"name":"amount","type":"uint256","indexed":false,"internalType":"uint256"},{"name":"timestamp","type":"uint256","indexed":false,"internalType":"uint256"}],"anonymous":false},{"type":"event","name":"PSMSwapExecuted","inputs":[{"name":"user","type":"address","indexed":true,"internalType":"address"},{"name":"tokenIn","type":"address","indexed":true,"internalType":"address"},{"name":"amountIn","type":"uint256","indexed":false,"internalType":"uint256"},{"name":"timestamp","type":"uint256","indexed":false,"internalType":"uint256"}],"anonymous":false},{"type":"event","name":"RoleAdminChanged","inputs":[{"name":"role","type":"bytes32","indexed":true,"internalType":"bytes32"},{"name":"previousAdminRole","type":"bytes32","indexed":true,"internalType":"bytes32"},{"name":"newAdminRole","type":"bytes32","indexed":true,"internalType":"bytes32"}],"anonymous":false},{"type":"event","name":"RoleGranted","inputs":[{"name":"role","type":"bytes32","indexed":true,"internalType":"bytes32"},{"name":"account","type":"address","indexed":true,"internalType":"address"},{"name":"sender","type":"address","indexed":true,"internalType":"address"}],"anonymous":false},{"type":"event","name":"RoleRevoked","inputs":[{"name":"role","type":"bytes32","indexed":true,"internalType":"bytes32"},{"name":"account","type":"address","indexed":true,"internalType":"address"},{"name":"sender","type":"address","indexed":true,"internalType":"address"}],"anonymous":false},{"type":"event","name":"SwapFrom1kUSD","inputs":[{"name":"user","type":"address","indexed":true,"internalType":"address"},{"name":"tokenOut","type":"address","indexed":false,"internalType":"address"},{"name":"amountIn","type":"uint256","indexed":false,"internalType":"uint256"},{"name":"fee","type":"uint256","indexed":false,"internalType":"uint256"},{"name":"netOut","type":"uint256","indexed":false,"internalType":"uint256"},{"name":"ts","type":"uint256","indexed":false,"internalType":"uint256"}],"anonymous":false},{"type":"event","name":"SwapTo1kUSD","inputs":[{"name":"user","type":"address","indexed":true,"internalType":"address"},{"name":"tokenIn","type":"address","indexed":false,"internalType":"address"},{"name":"amountIn","type":"uint256","indexed":false,"internalType":"uint256"},{"name":"fee","type":"uint256","indexed":false,"internalType":"uint256"},{"name":"netOut","type":"uint256","indexed":false,"internalType":"uint256"},{"name":"ts","type":"uint256","indexed":false,"internalType":"uint256"}],"anonymous":false},{"type":"error","name":"ACCESS_DENIED","inputs":[]},{"type":"error","name":"AccessControlBadConfirmation","inputs":[]},{"type":"error","name":"AccessControlUnauthorizedAccount","inputs":[{"name":"account","type":"address","internalType":"address"},{"name":"neededRole","type":"bytes32","internalType":"bytes32"}]},{"type":"error","name":"CAP_EXCEEDED","inputs":[]},{"type":"error","name":"DEVIATION_EXCEEDED","inputs":[]},{"type":"error","name":"INSUFFICIENT_LIQUIDITY","inputs":[]},{"type":"error","name":"InsufficientOut","inputs":[]},{"type":"error","name":"ORACLE_STALE","inputs":[]},{"type":"error","name":"ORACLE_UNHEALTHY","inputs":[]},{"type":"error","name":"PAUSED","inputs":[]},{"type":"error","name":"PausedError","inputs":[]},{"type":"error","name":"ReentrancyGuardReentrantCall","inputs":[]},{"type":"error","name":"SLIPPAGE","inputs":[]},{"type":"error","name":"UNSUPPORTED_ASSET","inputs":[]},{"type":"error","name":"ZERO_AMOUNT","inputs":[]}],"bytecode":{"object":"0x608060405234801561001057600080fd5b5060405161165438038061165483398101604081905261002f91610186565b6001805561003e6000866100be565b506100697fa49807205ce4d355092ef5a8a18f56e8913cf4a201fbe287825b095693c21775866100be565b50600280546001600160a01b039586166001600160a01b0319918216179091556003805494861694821694909417909355600480549285169284169290921790915560058054919093169116179055506101eb565b6000828152602081815260408083206001600160a01b038516845290915281205460ff16610160576000838152602081815260408083206001600160a01b03861684529091529020805460ff191660011790556101183390565b6001600160a01b0316826001600160a01b0316847f2f8788117e7eff1d82e926ec794901d17c78024a50270940304540a733656f0d60405160405180910390a4506001610164565b5060005b92915050565b80516001600160a01b038116811461018157600080fd5b919050565b600080600080600060a0868803121561019e57600080fd5b6101a78661016a565b94506101b56020870161016a565b93506101c36040870161016a565b92506101d16060870161016a565b91506101df6080870161016a565b90509295509295909350565b61145a806101fa6000396000f3fe608060405234801561001057600080fd5b50600436106101735760003560e01c80637b103999116100de57806397c8bcc111610097578063d58b006b11610071578063d58b006b1461036d578063f29ebf6114610394578063facf40c8146103a7578063fbfa77cf146103ba57600080fd5b806397c8bcc114610349578063a217fddf14610352578063d547741f1461035a57600080fd5b80637b103999146102a15780637dc0d1d0146102b45780638318c76d146102c7578063860aefcf146102da57806391d14854146102ed57806394c5a3781461030057600080fd5b806334f98bde1161013057806334f98bde1461021557806336568abe14610228578063377f973e1461023b5780634ce37be91461026657806375b238fc146102795780637adbf9731461028e57600080fd5b806301ffc9a71461017857806309f6442c146101a05780630b78f9c0146101b757806321af10ab146101cc578063248a9ca3146101df5780632f2ff15d14610202575b600080fd5b61018b610186366004611052565b6103cd565b60405190151581526020015b60405180910390f35b6101a9600a5481565b604051908152602001610197565b6101ca6101c5366004611083565b610404565b005b6101ca6101da3660046110c1565b610464565b6101a96101ed3660046110dc565b60009081526020819052604090206001015490565b6101ca6102103660046110f5565b61049f565b6101a9610223366004611121565b6104ca565b6101ca6102363660046110f5565b6106e8565b60025461024e906001600160a01b031681565b6040516001600160a01b039091168152602001610197565b60045461024e906001600160a01b031681565b6101a960008051602061140583398151915281565b6101ca61029c3660046110c1565b610720565b60055461024e906001600160a01b031681565b60075461024e906001600160a01b031681565b6101a96102d5366004611121565b61075b565b60065461024e906001600160a01b031681565b61018b6102fb3660046110f5565b610915565b61031361030e36600461117e565b61093e565b604051610197919081518152602080830151908201526040808301519082015260609182015160ff169181019190915260800190565b6101a960095481565b6101a9600081565b6101ca6103683660046110f5565b6109a9565b6101a97ff59ca105c0ea2f88067685df6334c9318a7184b56eca87852bfc2067c1b861e081565b60085461024e906001600160a01b031681565b6103136103b536600461117e565b6109ce565b60035461024e906001600160a01b031681565b60006001600160e01b03198216637965db0b60e01b14806103fe57506301ffc9a760e01b6001600160e01b03198316145b92915050565b60008051602061140583398151915261041c81610a3c565b6009839055600a82905560408051848152602081018490527f5c6323bf1c2d7aaea2c091a4751c1c87af7f2864650c336507a77d0557af37a1910160405180910390a1505050565b60008051602061140583398151915261047c81610a3c565b50600680546001600160a01b0319166001600160a01b0392909216919091179055565b6000828152602081905260409020600101546104ba81610a3c565b6104c48383610a49565b50505050565b6004546000906001600160a01b03161580159061056f57506004805460405163241b71bb60e01b81527ff59ca105c0ea2f88067685df6334c9318a7184b56eca87852bfc2067c1b861e0928101929092526001600160a01b03169063241b71bb90602401602060405180830381865afa15801561054b573d6000803e3d6000fd5b505050506040513d601f19601f8201168201806040525081019061056f91906111e6565b1561058d57604051633b3b4caf60e21b815260040160405180910390fd5b610595610adb565b600085116105dc5760405162461bcd60e51b815260206004820152600f60248201526e050534d3a20616d6f756e74496e3d3608c1b60448201526064015b60405180910390fd5b6105e586610b05565b60006012905060008060006105fe8a8a60095487610bdb565b92509250925061060d83610c4a565b8681101561062e576040516302f9993560e61b815260040160405180910390fd5b604080516001600160a01b038c1681526020810185905290810183905260608101829052426080820152909450849033907f658d4e439126bca4a27d834c36c73df99a10c1d39e2c439bd54c2223632f95ba9060a0015b60405180910390a2604080518a81524260208201526001600160a01b038c169133917fdd5e1f06d096186bcff783954d1f231623f500b2c147d0b79eb007652d6d8fb6910160405180910390a3505050506106df60018055565b95945050505050565b6001600160a01b03811633146107115760405163334bd91960e11b815260040160405180910390fd5b61071b8282610cbe565b505050565b60008051602061140583398151915261073881610a3c565b50600780546001600160a01b0319166001600160a01b0392909216919091179055565b6004546000906001600160a01b03161580159061080057506004805460405163241b71bb60e01b81527ff59ca105c0ea2f88067685df6334c9318a7184b56eca87852bfc2067c1b861e0928101929092526001600160a01b03169063241b71bb90602401602060405180830381865afa1580156107dc573d6000803e3d6000fd5b505050506040513d601f19601f8201168201806040525081019061080091906111e6565b1561081e57604051633b3b4caf60e21b815260040160405180910390fd5b610826610adb565b600085116108685760405162461bcd60e51b815260206004820152600f60248201526e050534d3a20616d6f756e74496e3d3608c1b60448201526064016105d3565b61087186610b05565b600060129050600080600061088a8a8a600a5487610d29565b92509250925061089983610c4a565b868110156108ba576040516302f9993560e61b815260040160405180910390fd5b604080516001600160a01b038c1681526020810185905290810183905260608101829052426080820152909450849033907fc32bc6394da23465a544c4df789da1aadd72beb16a566d844ff490d78ec027799060a001610685565b6000918252602082815260408084206001600160a01b0393909316845291905290205460ff1690565b61096c6040518060800160405280600081526020016000815260200160008152602001600060ff1681525090565b600080600061097d88888888610bdb565b604080516080810182529384526020840192909252908201526012606082015298975050505050505050565b6000828152602081905260409020600101546109c481610a3c565b6104c48383610cbe565b6109fc6040518060800160405280600081526020016000815260200160008152602001600060ff1681525090565b6000806000610a0d88888888610d29565b6040805160808101825293845260208401929092529082015260ff909516606086015250929695505050505050565b610a468133610d9e565b50565b6000610a558383610915565b610ad3576000838152602081815260408083206001600160a01b03861684529091529020805460ff19166001179055610a8b3390565b6001600160a01b0316826001600160a01b0316847f2f8788117e7eff1d82e926ec794901d17c78024a50270940304540a733656f0d60405160405180910390a45060016103fe565b5060006103fe565b600260015403610afe57604051633ee5aeb560e01b815260040160405180910390fd5b6002600155565b6007546001600160a01b0316610b185750565b600760009054906101000a90046001600160a01b03166001600160a01b031663cd905dff6040518163ffffffff1660e01b8152600401602060405180830381865afa158015610b6b573d6000803e3d6000fd5b505050506040513d601f19601f82011682018060405250810190610b8f91906111e6565b610a465760405162461bcd60e51b815260206004820152601b60248201527f50534d3a206f7261636c65206e6f74206f7065726174696f6e616c000000000060448201526064016105d3565b600080600085600003610bf657506000915081905080610c40565b600080610c0289610ddb565b91509150610c1288878484610f11565b9450612710610c2561ffff891687611217565b610c2f919061122e565b9350610c3b8486611250565b925050505b9450945094915050565b6006546001600160a01b0316610c5d5750565b60065460405163e30691ed60e01b8152600481018390526001600160a01b039091169063e30691ed90602401600060405180830381600087803b158015610ca357600080fd5b505af1158015610cb7573d6000803e3d6000fd5b5050505050565b6000610cca8383610915565b15610ad3576000838152602081815260408083206001600160a01b0386168085529252808320805460ff1916905551339286917ff6391f5c32d9c69d2a47ea670b442974b53935d1edc7fd64eb21e047a839171b9190a45060016103fe565b600080600085600003610d4457506000915081905080610c40565b600080610d5089610ddb565b8996509092509050612710610d6961ffff891687611217565b610d73919061122e565b93506000610d818587611250565b9050610d8f81888585610fb0565b93505050509450945094915050565b610da88282610915565b610dd75760405163e2517d3f60e01b81526001600160a01b0382166004820152602481018390526044016105d3565b5050565b60075460009081906001600160a01b0316610e035750670de0b6b3a764000092601292509050565b6007546040516341976e0960e01b81526001600160a01b03858116600483015260009216906341976e0990602401608060405180830381865afa158015610e4e573d6000803e3d6000fd5b505050506040513d601f19601f82011682018060405250810190610e729190611263565b90508060400151610ebd5760405162461bcd60e51b815260206004820152601560248201527450534d3a206f7261636c6520756e6865616c74687960581b60448201526064016105d3565b8051600012610eff5760405162461bcd60e51b815260206004820152600e60248201526d50534d3a2062616420707269636560901b60448201526064016105d3565b80516020909101519094909350915050565b600060128460ff161015610f4b576000610f2c8560126112e9565b9050610f3981600a6113e9565b610f439087611217565b955050610f7f565b60128460ff161115610f7f576000610f646012866112e9565b9050610f7181600a6113e9565b610f7b908761122e565b9550505b6000610f8f60ff8416600a6113f8565b905080610f9c8588611217565b610fa6919061122e565b9695505050505050565b600080610fc160ff8416600a6113f8565b9050600084610fd08389611217565b610fda919061122e565b905060128660ff161015611014576000610ff58760126112e9565b905061100281600a6113e9565b61100c908361122e565b935050611048565b60128660ff16111561104457600061102d6012886112e9565b905061103a81600a6113e9565b61100c9083611217565b8092505b5050949350505050565b60006020828403121561106457600080fd5b81356001600160e01b03198116811461107c57600080fd5b9392505050565b6000806040838503121561109657600080fd5b50508035926020909101359150565b80356001600160a01b03811681146110bc57600080fd5b919050565b6000602082840312156110d357600080fd5b61107c826110a5565b6000602082840312156110ee57600080fd5b5035919050565b6000806040838503121561110857600080fd5b82359150611118602084016110a5565b90509250929050565b600080600080600060a0868803121561113957600080fd5b611142866110a5565b945060208601359350611157604087016110a5565b94979396509394606081013594506080013592915050565b60ff81168114610a4657600080fd5b6000806000806080858703121561119457600080fd5b61119d856110a5565b935060208501359250604085013561ffff811681146111bb57600080fd5b915060608501356111cb8161116f565b939692955090935050565b805180151581146110bc57600080fd5b6000602082840312156111f857600080fd5b61107c826111d6565b634e487b7160e01b600052601160045260246000fd5b80820281158282048414176103fe576103fe611201565b60008261124b57634e487b7160e01b600052601260045260246000fd5b500490565b818103818111156103fe576103fe611201565b6000608082840312801561127657600080fd5b600090506040516080810181811067ffffffffffffffff821117156112a957634e487b7160e01b83526041600452602483fd5b6040528351815260208401516112be8161116f565b60208201526112cf604085016111d6565b604082015260609384015193810193909352509092915050565b60ff82811682821603908111156103fe576103fe611201565b6001815b600184111561133d5780850481111561132157611321611201565b600184161561132f57908102905b60019390931c928002611306565b935093915050565b600082611354575060016103fe565b81611361575060006103fe565b816001811461137757600281146113815761139d565b60019150506103fe565b60ff84111561139257611392611201565b50506001821b6103fe565b5060208310610133831016604e8410600b84101617156113c0575081810a6103fe565b6113cd6000198484611302565b80600019048211156113e1576113e1611201565b029392505050565b600061107c60ff841683611345565b600061107c838361134556fea49807205ce4d355092ef5a8a18f56e8913cf4a201fbe287825b095693c21775a264697066735822122051b0a1d6892d98210ebeb3b4ca195866cece954191593486ff6da67c3c362e9d64736f6c634300081e0033","linkReferences":{}},"methodIdentifiers":{"ADMIN_ROLE()":"75b238fc","DEFAULT_ADMIN_ROLE()":"a217fddf","MODULE_PSM()":"d58b006b","feeRouter()":"f29ebf61","getRoleAdmin(bytes32)":"248a9ca3","grantRole(bytes32,address)":"2f2ff15d","hasRole(bytes32,address)":"91d14854","limits()":"860aefcf","mintFeeBps()":"97c8bcc1","oneKUSD()":"377f973e","oracle()":"7dc0d1d0","quoteFrom1kUSD(address,uint256,uint16,uint8)":"facf40c8","quoteTo1kUSD(address,uint256,uint16,uint8)":"94c5a378","redeemFeeBps()":"09f6442c","registry()":"7b103999","renounceRole(bytes32,address)":"36568abe","revokeRole(bytes32,address)":"d547741f","safetyAutomata()":"4ce37be9","setFees(uint256,uint256)":"0b78f9c0","setLimits(address)":"21af10ab","setOracle(address)":"7adbf973","supportsInterface(bytes4)":"01ffc9a7","swapFrom1kUSD(address,uint256,address,uint256,uint256)":"8318c76d","swapTo1kUSD(address,uint256,address,uint256,uint256)":"34f98bde","vault()":"fbfa77cf"},"id":3}