{"abi":[{"type":"constructor","inputs":[{"name":"_stable","type":"address","internalType":"address"},{"name":"_asset","type":"address","internalType":"address"},{"name":"_dao","type":"address","internalType":"address"},{"name":"_safety","type":"address","internalType":"address"},{"name":"_psm","type":"address","internalType":"address"},{"name":"_moduleId","type":"bytes32","internalType":"bytes32"}],"stateMutability":"nonpayable"},{"type":"function","name":"asset","inputs":[],"outputs":[{"name":"","type":"address","internalType":"contract IERC20"}],"stateMutability":"view"},{"type":"function","name":"assetBalance","inputs":[],"outputs":[{"name":"","type":"uint256","internalType":"uint256"}],"stateMutability":"view"},{"type":"function","name":"buybackWindowAccumulatedBps","inputs":[],"outputs":[{"name":"","type":"uint128","internalType":"uint128"}],"stateMutability":"view"},{"type":"function","name":"buybackWindowDuration","inputs":[],"outputs":[{"name":"","type":"uint64","internalType":"uint64"}],"stateMutability":"view"},{"type":"function","name":"buybackWindowStart","inputs":[],"outputs":[{"name":"","type":"uint64","internalType":"uint64"}],"stateMutability":"view"},{"type":"function","name":"dao","inputs":[],"outputs":[{"name":"","type":"address","internalType":"address"}],"stateMutability":"view"},{"type":"function","name":"executeBuyback","inputs":[{"name":"recipient","type":"address","internalType":"address"},{"name":"amountStable","type":"uint256","internalType":"uint256"},{"name":"minAssetOut","type":"uint256","internalType":"uint256"},{"name":"deadline","type":"uint256","internalType":"uint256"}],"outputs":[],"stateMutability":"nonpayable"},{"type":"function","name":"executeBuybackPSM","inputs":[{"name":"amount1k","type":"uint256","internalType":"uint256"},{"name":"recipient","type":"address","internalType":"address"},{"name":"minOut","type":"uint256","internalType":"uint256"},{"name":"deadline","type":"uint256","internalType":"uint256"}],"outputs":[{"name":"amountAssetOut","type":"uint256","internalType":"uint256"}],"stateMutability":"nonpayable"},{"type":"function","name":"fundStable","inputs":[{"name":"amount","type":"uint256","internalType":"uint256"}],"outputs":[],"stateMutability":"nonpayable"},{"type":"function","name":"getStrategy","inputs":[{"name":"id","type":"uint256","internalType":"uint256"}],"outputs":[{"name":"","type":"tuple","internalType":"struct BuybackVault.StrategyConfig","components":[{"name":"asset","type":"address","internalType":"address"},{"name":"weightBps","type":"uint16","internalType":"uint16"},{"name":"enabled","type":"bool","internalType":"bool"}]}],"stateMutability":"view"},{"type":"function","name":"maxBuybackSharePerOpBps","inputs":[],"outputs":[{"name":"","type":"uint16","internalType":"uint16"}],"stateMutability":"view"},{"type":"function","name":"maxBuybackSharePerWindowBps","inputs":[],"outputs":[{"name":"","type":"uint16","internalType":"uint16"}],"stateMutability":"view"},{"type":"function","name":"moduleId","inputs":[],"outputs":[{"name":"","type":"bytes32","internalType":"bytes32"}],"stateMutability":"view"},{"type":"function","name":"oracleHealthGateEnforced","inputs":[],"outputs":[{"name":"","type":"bool","internalType":"bool"}],"stateMutability":"view"},{"type":"function","name":"oracleHealthModule","inputs":[],"outputs":[{"name":"","type":"address","internalType":"address"}],"stateMutability":"view"},{"type":"function","name":"psm","inputs":[],"outputs":[{"name":"","type":"address","internalType":"contract IPegStabilityModuleLike"}],"stateMutability":"view"},{"type":"function","name":"safety","inputs":[],"outputs":[{"name":"","type":"address","internalType":"contract ISafetyAutomata"}],"stateMutability":"view"},{"type":"function","name":"setBuybackWindowConfig","inputs":[{"name":"newDuration","type":"uint64","internalType":"uint64"},{"name":"newCapBps","type":"uint16","internalType":"uint16"}],"outputs":[],"stateMutability":"nonpayable"},{"type":"function","name":"setMaxBuybackSharePerOpBps","inputs":[{"name":"newCapBps","type":"uint16","internalType":"uint16"}],"outputs":[],"stateMutability":"nonpayable"},{"type":"function","name":"setOracleHealthGateConfig","inputs":[{"name":"newModule","type":"address","internalType":"address"},{"name":"newEnforced","type":"bool","internalType":"bool"}],"outputs":[],"stateMutability":"nonpayable"},{"type":"function","name":"setStrategiesEnforced","inputs":[{"name":"enforced","type":"bool","internalType":"bool"}],"outputs":[],"stateMutability":"nonpayable"},{"type":"function","name":"setStrategy","inputs":[{"name":"id","type":"uint256","internalType":"uint256"},{"name":"asset_","type":"address","internalType":"address"},{"name":"weightBps_","type":"uint16","internalType":"uint16"},{"name":"enabled_","type":"bool","internalType":"bool"}],"outputs":[],"stateMutability":"nonpayable"},{"type":"function","name":"stable","inputs":[],"outputs":[{"name":"","type":"address","internalType":"contract IERC20"}],"stateMutability":"view"},{"type":"function","name":"stableBalance","inputs":[],"outputs":[{"name":"","type":"uint256","internalType":"uint256"}],"stateMutability":"view"},{"type":"function","name":"strategiesEnforced","inputs":[],"outputs":[{"name":"","type":"bool","internalType":"bool"}],"stateMutability":"view"},{"type":"function","name":"strategyCount","inputs":[],"outputs":[{"name":"","type":"uint256","internalType":"uint256"}],"stateMutability":"view"},{"type":"function","name":"withdrawAsset","inputs":[{"name":"to","type":"address","internalType":"address"},{"name":"amount","type":"uint256","internalType":"uint256"}],"outputs":[],"stateMutability":"nonpayable"},{"type":"function","name":"withdrawStable","inputs":[{"name":"to","type":"address","internalType":"address"},{"name":"amount","type":"uint256","internalType":"uint256"}],"outputs":[],"stateMutability":"nonpayable"},{"type":"event","name":"AssetWithdrawn","inputs":[{"name":"to","type":"address","indexed":true,"internalType":"address"},{"name":"amount","type":"uint256","indexed":false,"internalType":"uint256"}],"anonymous":false},{"type":"event","name":"BuybackExecuted","inputs":[{"name":"recipient","type":"address","indexed":true,"internalType":"address"},{"name":"stableIn","type":"uint256","indexed":false,"internalType":"uint256"},{"name":"assetOut","type":"uint256","indexed":false,"internalType":"uint256"}],"anonymous":false},{"type":"event","name":"BuybackExecuted","inputs":[{"name":"amount1k","type":"uint256","indexed":false,"internalType":"uint256"},{"name":"amountAsset","type":"uint256","indexed":false,"internalType":"uint256"},{"name":"recipient","type":"address","indexed":true,"internalType":"address"}],"anonymous":false},{"type":"event","name":"BuybackOracleHealthGateUpdated","inputs":[{"name":"oldModule","type":"address","indexed":true,"internalType":"address"},{"name":"newModule","type":"address","indexed":true,"internalType":"address"},{"name":"oldEnforced","type":"bool","indexed":false,"internalType":"bool"},{"name":"newEnforced","type":"bool","indexed":false,"internalType":"bool"}],"anonymous":false},{"type":"event","name":"BuybackTreasuryCapUpdated","inputs":[{"name":"oldCapBps","type":"uint16","indexed":false,"internalType":"uint16"},{"name":"newCapBps","type":"uint16","indexed":false,"internalType":"uint16"}],"anonymous":false},{"type":"event","name":"BuybackWindowConfigUpdated","inputs":[{"name":"oldDuration","type":"uint64","indexed":false,"internalType":"uint64"},{"name":"newDuration","type":"uint64","indexed":false,"internalType":"uint64"},{"name":"oldCapBps","type":"uint16","indexed":false,"internalType":"uint16"},{"name":"newCapBps","type":"uint16","indexed":false,"internalType":"uint16"}],"anonymous":false},{"type":"event","name":"FundStable","inputs":[{"name":"amount","type":"uint256","indexed":false,"internalType":"uint256"}],"anonymous":false},{"type":"event","name":"StableFunded","inputs":[{"name":"from","type":"address","indexed":true,"internalType":"address"},{"name":"amount","type":"uint256","indexed":false,"internalType":"uint256"}],"anonymous":false},{"type":"event","name":"StableWithdrawn","inputs":[{"name":"to","type":"address","indexed":true,"internalType":"address"},{"name":"amount","type":"uint256","indexed":false,"internalType":"uint256"}],"anonymous":false},{"type":"event","name":"StrategyEnforcementUpdated","inputs":[{"name":"enforced","type":"bool","indexed":false,"internalType":"bool"}],"anonymous":false},{"type":"event","name":"StrategyUpdated","inputs":[{"name":"id","type":"uint256","indexed":true,"internalType":"uint256"},{"name":"asset","type":"address","indexed":false,"internalType":"address"},{"name":"weightBps","type":"uint16","indexed":false,"internalType":"uint16"},{"name":"enabled","type":"bool","indexed":false,"internalType":"bool"}],"anonymous":false},{"type":"event","name":"WithdrawAsset","inputs":[{"name":"to","type":"address","indexed":true,"internalType":"address"},{"name":"amount","type":"uint256","indexed":false,"internalType":"uint256"}],"anonymous":false},{"type":"event","name":"WithdrawStable","inputs":[{"name":"to","type":"address","indexed":true,"internalType":"address"},{"name":"amount","type":"uint256","indexed":false,"internalType":"uint256"}],"anonymous":false},{"type":"error","name":"BUYBACK_GUARDIAN_STOP","inputs":[]},{"type":"error","name":"BUYBACK_ORACLE_UNHEALTHY","inputs":[]},{"type":"error","name":"BUYBACK_TREASURY_CAP_EXCEEDED","inputs":[]},{"type":"error","name":"INSUFFICIENT_BALANCE","inputs":[]},{"type":"error","name":"INVALID_AMOUNT","inputs":[]},{"type":"error","name":"INVALID_STRATEGY","inputs":[]},{"type":"error","name":"NOT_DAO","inputs":[]},{"type":"error","name":"NO_ENABLED_STRATEGY_FOR_ASSET","inputs":[]},{"type":"error","name":"NO_STRATEGY_CONFIGURED","inputs":[]},{"type":"error","name":"PAUSED","inputs":[]},{"type":"error","name":"SafeERC20FailedOperation","inputs":[{"name":"token","type":"address","internalType":"address"}]},{"type":"error","name":"ZERO_ADDRESS","inputs":[]},{"type":"error","name":"ZERO_AMOUNT","inputs":[]}],"bytecode":{"object":"0x61014060405234801561001157600080fd5b50604051612373380380612373833981016040819052610030916100ec565b6001600160a01b038616158061004d57506001600160a01b038516155b8061005f57506001600160a01b038416155b8061007157506001600160a01b038316155b8061008357506001600160a01b038216155b156100a15760405163538ba4f960e01b815260040160405180910390fd5b6001600160a01b0395861660805293851660a05291841660c052831660e0529091166101005261012052610159565b80516001600160a01b03811681146100e757600080fd5b919050565b60008060008060008060c0878903121561010557600080fd5b61010e876100d0565b955061011c602088016100d0565b945061012a604088016100d0565b9350610138606088016100d0565b9250610146608088016100d0565b915060a087015190509295509295509295565b60805160a05160c05160e05161010051610120516120cf6102a4600039600081816103e60152818161062b01528181610aa601528181610cbd015281816110be01526117830152600081816101f6015281816108940152818161099001528181610dfc0152610e7d0152600081816103580152818161065101528181610acc01528181610ce3015281816110e401526117a90152600081816102c50152818161059601528181610a5901528181610c7001528181610f44015281816110710152818161127a0152818161130b0152818161151e01528181611736015261190001526000818161028b015281816108160152818161094801528181610bb201528181610e38015261143a01526000818161024701528181610512015281816106fa015281816108c301528181610dda015281816111ca0152818161186801526119f701526120cf6000f3fe608060405234801561001057600080fd5b50600436106101c35760003560e01c80637588017a116100f9578063b9417dc311610097578063cfc0cc3411610071578063cfc0cc341461047d578063d6f2263b146104c1578063e5c8a6cb146104d4578063e650f288146104e757600080fd5b8063b9417dc31461044d578063c24afa3b14610460578063c66f24551461047557600080fd5b80638d364532116100d35780638d364532146103ce578063a1308f27146103e1578063a4b9b71714610408578063b07427f61461043a57600080fd5b80637588017a1461037a578063814583a41461038e5780638a8422ca146103b457600080fd5b806338e4f0641161016657806358ea73221161014057806358ea7322146102f457806359fb48bb1461032d57806365466d31146103405780636e3f795a1461035357600080fd5b806338e4f064146102ad5780634162169f146102c0578063489751a5146102e757600080fd5b806322be3de1116101a257806322be3de11461024257806324ac82c51461026957806330c382151461027157806338d52e0f1461028657600080fd5b8062e37578146101c857806304bda262146101f157806322068b4414610230575b600080fd5b6001546101dc90600160b81b900460ff1681565b60405190151581526020015b60405180910390f35b6102187f000000000000000000000000000000000000000000000000000000000000000081565b6040516001600160a01b0390911681526020016101e8565b6000545b6040519081526020016101e8565b6102187f000000000000000000000000000000000000000000000000000000000000000081565b6102346104fa565b61028461027f366004611e0d565b61058b565b005b6102187f000000000000000000000000000000000000000000000000000000000000000081565b6102846102bb366004611e46565b610a4e565b6102187f000000000000000000000000000000000000000000000000000000000000000081565b6001546101dc9060ff1681565b6002546103149068010000000000000000900467ffffffffffffffff1681565b60405167ffffffffffffffff90911681526020016101e8565b61023461033b366004611e70565b610c63565b61028461034e366004611ebd565b610f39565b6102187f000000000000000000000000000000000000000000000000000000000000000081565b6002546103149067ffffffffffffffff1681565b6001546103a190610100900461ffff1681565b60405161ffff90911681526020016101e8565b60015461021890630100000090046001600160a01b031681565b6102846103dc366004611e46565b611066565b6102347f000000000000000000000000000000000000000000000000000000000000000081565b60025461042290600160801b90046001600160801b031681565b6040516001600160801b0390911681526020016101e8565b610284610448366004611f0d565b61126f565b61028461045b366004611f31565b611300565b6001546103a190600160c01b900461ffff1681565b610234611422565b61049061048b366004611f68565b611471565b6040805182516001600160a01b0316815260208084015161ffff1690820152918101511515908201526060016101e8565b6102846104cf366004611f81565b611513565b6102846104e2366004611f68565b61172b565b6102846104f5366004611fd0565b6118f5565b6040516370a0823160e01b81523060048201526000907f00000000000000000000000000000000000000000000000000000000000000006001600160a01b0316906370a08231906024015b602060405180830381865afa158015610562573d6000803e3d6000fd5b505050506040513d601f19601f820116820180604052508101906105869190611feb565b905090565b336001600160a01b037f000000000000000000000000000000000000000000000000000000000000000016146105d45760405163f9091ca360e01b815260040160405180910390fd5b6001600160a01b0384166105fb5760405163538ba4f960e01b815260040160405180910390fd5b8260000361061c5760405163fae8279160e01b815260040160405180910390fd5b60405163241b71bb60e01b81527f000000000000000000000000000000000000000000000000000000000000000060048201527f00000000000000000000000000000000000000000000000000000000000000006001600160a01b03169063241b71bb90602401602060405180830381865afa1580156106a0573d6000803e3d6000fd5b505050506040513d601f19601f820116820180604052508101906106c49190612004565b156106e257604051632a6ab56360e21b815260040160405180910390fd5b6040516370a0823160e01b81523060048201526000907f00000000000000000000000000000000000000000000000000000000000000006001600160a01b0316906370a0823190602401602060405180830381865afa158015610749573d6000803e3d6000fd5b505050506040513d601f19601f8201168201806040525081019061076d9190611feb565b90508381101561079057604051632858f9ab60e11b815260040160405180910390fd5b610799846119c6565b6107a1611ab2565b60015460ff161561087d576000805490036107cf5760405163f2f576c760e01b815260040160405180910390fd5b6000805b60005481101561085c5760008082815481106107f1576107f1612021565b60009182526020909120018054909150600160b01b900460ff168015610844575080547f00000000000000000000000000000000000000000000000000000000000000006001600160a01b039081169116145b1561085357600192505061085c565b506001016107d3565b508061087b576040516370e4af7f60e01b815260040160405180910390fd5b505b60405163095ea7b360e01b81526001600160a01b037f000000000000000000000000000000000000000000000000000000000000000081166004830152602482018690527f0000000000000000000000000000000000000000000000000000000000000000169063095ea7b3906044016020604051808303816000875af115801561090c573d6000803e3d6000fd5b505050506040513d601f19601f820116820180604052508101906109309190612004565b50604051638318c76d60e01b81526001600160a01b037f00000000000000000000000000000000000000000000000000000000000000008116600483015260248201869052868116604483015260648201859052608482018490526000917f000000000000000000000000000000000000000000000000000000000000000090911690638318c76d9060a4016020604051808303816000875af11580156109db573d6000803e3d6000fd5b505050506040513d601f19601f820116820180604052508101906109ff9190611feb565b60408051878152602081018390529192506001600160a01b038816917fce6abc4aa99ab2d137d5f7e34bec0e883a186fd2d76b29f2e1c30afcc68d7336910160405180910390a2505050505050565b336001600160a01b037f00000000000000000000000000000000000000000000000000000000000000001614610a975760405163f9091ca360e01b815260040160405180910390fd5b60405163241b71bb60e01b81527f000000000000000000000000000000000000000000000000000000000000000060048201527f00000000000000000000000000000000000000000000000000000000000000006001600160a01b03169063241b71bb90602401602060405180830381865afa158015610b1b573d6000803e3d6000fd5b505050506040513d601f19601f82011682018060405250810190610b3f9190612004565b15610b5d57604051632a6ab56360e21b815260040160405180910390fd5b6001600160a01b038216610b845760405163538ba4f960e01b815260040160405180910390fd5b80600003610ba557604051630f6fa54560e41b815260040160405180910390fd5b610bd96001600160a01b037f0000000000000000000000000000000000000000000000000000000000000000168383611b78565b816001600160a01b03167f94b055d454fefc95ba06924afbaac83912b1575d621a7d32a4675303246bb7d082604051610c1491815260200190565b60405180910390a2816001600160a01b03167f204ca9134f9cbebdba89e58f95bb70284a601fddcdc380608638fe6e737dc00282604051610c5791815260200190565b60405180910390a25050565b6000336001600160a01b037f00000000000000000000000000000000000000000000000000000000000000001614610cae5760405163f9091ca360e01b815260040160405180910390fd5b60405163241b71bb60e01b81527f000000000000000000000000000000000000000000000000000000000000000060048201527f00000000000000000000000000000000000000000000000000000000000000006001600160a01b03169063241b71bb90602401602060405180830381865afa158015610d32573d6000803e3d6000fd5b505050506040513d601f19601f82011682018060405250810190610d569190612004565b15610d7457604051632a6ab56360e21b815260040160405180910390fd5b6001600160a01b038416610d9b5760405163538ba4f960e01b815260040160405180910390fd5b84600003610dbc57604051630f6fa54560e41b815260040160405180910390fd5b610dc5856119c6565b610dcd611ab2565b610e216001600160a01b037f0000000000000000000000000000000000000000000000000000000000000000167f000000000000000000000000000000000000000000000000000000000000000087611bdc565b604051638318c76d60e01b81526001600160a01b037f00000000000000000000000000000000000000000000000000000000000000008116600483015260248201879052858116604483015260648201859052608482018490527f00000000000000000000000000000000000000000000000000000000000000001690638318c76d9060a4016020604051808303816000875af1158015610ec6573d6000803e3d6000fd5b505050506040513d601f19601f82011682018060405250810190610eea9190611feb565b60408051878152602081018390529192506001600160a01b038616917fb226e46e9ea13f5bbac224e6b365c82beb22fbd42694f7721db493241b3337db910160405180910390a2949350505050565b336001600160a01b037f00000000000000000000000000000000000000000000000000000000000000001614610f825760405163f9091ca360e01b815260040160405180910390fd5b6127108161ffff161115610fdd5760405162461bcd60e51b815260206004820152601760248201527f57494e444f575f4341505f4250535f544f4f5f4849474800000000000000000060448201526064015b60405180910390fd5b600280546001805461ffff858116600160c01b81810261ffff60c01b1985161790945567ffffffffffffffff8881169687905560408051919096168082526020820197909752939092041692820183905260608201527f6b3e69dde659b29754710125e52f7ae1bed7c546562391435d837833f8effaf89060800160405180910390a150505050565b336001600160a01b037f000000000000000000000000000000000000000000000000000000000000000016146110af5760405163f9091ca360e01b815260040160405180910390fd5b60405163241b71bb60e01b81527f000000000000000000000000000000000000000000000000000000000000000060048201527f00000000000000000000000000000000000000000000000000000000000000006001600160a01b03169063241b71bb90602401602060405180830381865afa158015611133573d6000803e3d6000fd5b505050506040513d601f19601f820116820180604052508101906111579190612004565b1561117557604051632a6ab56360e21b815260040160405180910390fd5b6001600160a01b03821661119c5760405163538ba4f960e01b815260040160405180910390fd5b806000036111bd57604051630f6fa54560e41b815260040160405180910390fd5b6111f16001600160a01b037f0000000000000000000000000000000000000000000000000000000000000000168383611b78565b816001600160a01b03167fc0c38a768e4dc449a238498e0e4efe579f69439b116d0318f3c81f15da6e713c8260405161122c91815260200190565b60405180910390a2816001600160a01b03167fd050e29e581784a455abc0c0f4eaa735b9d7c516f8d2016494a4a2517a1874f582604051610c5791815260200190565b336001600160a01b037f000000000000000000000000000000000000000000000000000000000000000016146112b85760405163f9091ca360e01b815260040160405180910390fd5b6001805460ff19168215159081179091556040519081527ff859f80510d361966a09dd42a93cabf995e6fca518a718f46b3c11d031ee731e906020015b60405180910390a150565b336001600160a01b037f000000000000000000000000000000000000000000000000000000000000000016146113495760405163f9091ca360e01b815260040160405180910390fd5b600154630100000081046001600160a01b031690600160b81b900460ff1682801561137b57506001600160a01b038416155b156113995760405163538ba4f960e01b815260040160405180910390fd5b600180546301000000600160c01b03191663010000006001600160a01b0387811691820260ff60b81b191692909217600160b81b8715159081029190911790935560408051851515815260208101949094529092918516917f873051e493ce72369fad62d5489e113fae58c02a371669dbaa287f860facfe7e910160405180910390a350505050565b6040516370a0823160e01b81523060048201526000907f00000000000000000000000000000000000000000000000000000000000000006001600160a01b0316906370a0823190602401610545565b60408051606081018252600080825260208201819052918101829052905482106114ae5760405163084e779960e41b815260040160405180910390fd5b600082815481106114c1576114c1612021565b60009182526020918290206040805160608101825291909201546001600160a01b038116825261ffff600160a01b8204169382019390935260ff600160b01b9093049290921615159082015292915050565b336001600160a01b037f0000000000000000000000000000000000000000000000000000000000000000161461155c5760405163f9091ca360e01b815260040160405180910390fd5b6001600160a01b0383166115835760405163538ba4f960e01b815260040160405180910390fd5b604080516060810182526001600160a01b038516815261ffff8416602082015282151591810191909152600054850361163a576000805460018101825590805281517f290decd9548b62a8d60345a988386fc84ba6bc95484008f6362f93160ef3e5639091018054602084015160408501511515600160b01b0260ff60b01b1961ffff909216600160a01b026001600160b01b03199093166001600160a01b039095169490941791909117169190911790556116d4565b6000548510156116bb57806000868154811061165857611658612021565b6000918252602091829020835191018054928401516040909401511515600160b01b0260ff60b01b1961ffff909516600160a01b026001600160b01b03199094166001600160a01b039093169290921792909217929092169190911790556116d4565b60405163084e779960e41b815260040160405180910390fd5b604080516001600160a01b038616815261ffff8516602082015283151581830152905186917f56098d2fd583fa3f800a0ae74ab94fe8cb910e860bec310b470220a777e398b5919081900360600190a25050505050565b336001600160a01b037f000000000000000000000000000000000000000000000000000000000000000016146117745760405163f9091ca360e01b815260040160405180910390fd5b60405163241b71bb60e01b81527f000000000000000000000000000000000000000000000000000000000000000060048201527f00000000000000000000000000000000000000000000000000000000000000006001600160a01b03169063241b71bb90602401602060405180830381865afa1580156117f8573d6000803e3d6000fd5b505050506040513d601f19601f8201168201806040525081019061181c9190612004565b1561183a57604051632a6ab56360e21b815260040160405180910390fd5b8060000361185b57604051630f6fa54560e41b815260040160405180910390fd5b6118906001600160a01b037f000000000000000000000000000000000000000000000000000000000000000016333084611c66565b60405181815233907febb96990fb8aae925fe05e95b1ca57f664ef5c06728c95fcd5b85a13def2f54a9060200160405180910390a26040518181527f46ef2e261844bf0251d5e6ac939b49e2ff7eece0d61e28ea5854d2dbb84116a7906020016112f5565b336001600160a01b037f0000000000000000000000000000000000000000000000000000000000000000161461193e5760405163f9091ca360e01b815260040160405180910390fd5b6127108161ffff1611156119655760405163fae8279160e01b815260040160405180910390fd5b6001805461ffff83811661010081810262ffff001985161790945560408051949093049091168084526020840191909152917fd0ec99cb7fc2ea9aeb8d47fd8212b16a60b434497bfea78cc83c30edc5c01fc5910160405180910390a15050565b600154610100900461ffff1660008190036119df575050565b6040516370a0823160e01b81523060048201526000907f00000000000000000000000000000000000000000000000000000000000000006001600160a01b0316906370a0823190602401602060405180830381865afa158015611a46573d6000803e3d6000fd5b505050506040513d601f19601f82011682018060405250810190611a6a9190611feb565b90506000612710611a7f61ffff85168461204d565b611a899190612064565b905080841115611aac576040516344d01f1160e01b815260040160405180910390fd5b50505050565b600154600160b81b900460ff16611ac557565b600154630100000090046001600160a01b031680611af657604051633651255f60e21b815260040160405180910390fd5b806001600160a01b031663e40208046040518163ffffffff1660e01b8152600401602060405180830381865afa158015611b34573d6000803e3d6000fd5b505050506040513d601f19601f82011682018060405250810190611b589190612004565b611b7557604051633651255f60e21b815260040160405180910390fd5b50565b6040516001600160a01b03838116602483015260448201839052611bd791859182169063a9059cbb906064015b604051602081830303815290604052915060e01b6020820180516001600160e01b038381831617835250505050611c9f565b505050565b604051636eb1769f60e11b81523060048201526001600160a01b0383811660248301526000919085169063dd62ed3e90604401602060405180830381865afa158015611c2c573d6000803e3d6000fd5b505050506040513d601f19601f82011682018060405250810190611c509190611feb565b9050611aac8484611c618585612086565b611d10565b6040516001600160a01b038481166024830152838116604483015260648201839052611aac9186918216906323b872dd90608401611ba5565b600080602060008451602086016000885af180611cc2576040513d6000823e3d81fd5b50506000513d91508115611cda578060011415611ce7565b6001600160a01b0384163b155b15611aac57604051635274afe760e01b81526001600160a01b0385166004820152602401610fd4565b604080516001600160a01b038416602482015260448082018490528251808303909101815260649091019091526020810180516001600160e01b031663095ea7b360e01b179052611d618482611da0565b611aac576040516001600160a01b03848116602483015260006044830152611d9691869182169063095ea7b390606401611ba5565b611aac8482611c9f565b6000806000806020600086516020880160008a5af192503d91506000519050828015611de557508115611dd65780600114611de5565b6000866001600160a01b03163b115b93505050505b92915050565b80356001600160a01b0381168114611e0857600080fd5b919050565b60008060008060808587031215611e2357600080fd5b611e2c85611df1565b966020860135965060408601359560600135945092505050565b60008060408385031215611e5957600080fd5b611e6283611df1565b946020939093013593505050565b60008060008060808587031215611e8657600080fd5b84359350611e9660208601611df1565b93969395505050506040820135916060013590565b803561ffff81168114611e0857600080fd5b60008060408385031215611ed057600080fd5b823567ffffffffffffffff81168114611ee857600080fd5b9150611ef660208401611eab565b90509250929050565b8015158114611b7557600080fd5b600060208284031215611f1f57600080fd5b8135611f2a81611eff565b9392505050565b60008060408385031215611f4457600080fd5b611f4d83611df1565b91506020830135611f5d81611eff565b809150509250929050565b600060208284031215611f7a57600080fd5b5035919050565b60008060008060808587031215611f9757600080fd5b84359350611fa760208601611df1565b9250611fb560408601611eab565b91506060850135611fc581611eff565b939692955090935050565b600060208284031215611fe257600080fd5b611f2a82611eab565b600060208284031215611ffd57600080fd5b5051919050565b60006020828403121561201657600080fd5b8151611f2a81611eff565b634e487b7160e01b600052603260045260246000fd5b634e487b7160e01b600052601160045260246000fd5b8082028115828204841417611deb57611deb612037565b60008261208157634e487b7160e01b600052601260045260246000fd5b500490565b80820180821115611deb57611deb61203756fea26469706673582212201c31e4fd01d25aab1fa35a3af9a898c0ea79f6e7427d3262c0246b71e79e991864736f6c634300081e0033","linkReferences":{}},"methodIdentifiers":{"asset()":"38d52e0f","assetBalance()":"c66f2455","buybackWindowAccumulatedBps()":"a4b9b717","buybackWindowDuration()":"7588017a","buybackWindowStart()":"58ea7322","dao()":"4162169f","executeBuyback(address,uint256,uint256,uint256)":"30c38215","executeBuybackPSM(uint256,address,uint256,uint256)":"59fb48bb","fundStable(uint256)":"e5c8a6cb","getStrategy(uint256)":"cfc0cc34","maxBuybackSharePerOpBps()":"814583a4","maxBuybackSharePerWindowBps()":"c24afa3b","moduleId()":"a1308f27","oracleHealthGateEnforced()":"00e37578","oracleHealthModule()":"8a8422ca","psm()":"04bda262","safety()":"6e3f795a","setBuybackWindowConfig(uint64,uint16)":"65466d31","setMaxBuybackSharePerOpBps(uint16)":"e650f288","setOracleHealthGateConfig(address,bool)":"b9417dc3","setStrategiesEnforced(bool)":"b07427f6","setStrategy(uint256,address,uint16,bool)":"d6f2263b","stable()":"22be3de1","stableBalance()":"24ac82c5","strategiesEnforced()":"489751a5","strategyCount()":"22068b44","withdrawAsset(address,uint256)":"38e4f064","withdrawStable(address,uint256)":"8d364532"},"id":0}