{"abi":[{"type":"constructor","inputs":[{"name":"_oracle","type":"address","internalType":"contract IOracleAggregator"},{"name":"_safety","type":"address","internalType":"contract ISafetyAutomata"}],"stateMutability":"nonpayable"},{"type":"function","name":"getStatus","inputs":[],"outputs":[{"name":"","type":"uint8","internalType":"enum IOracleWatcher.Status"}],"stateMutability":"view"},{"type":"function","name":"isHealthy","inputs":[],"outputs":[{"name":"","type":"bool","internalType":"bool"}],"stateMutability":"view"},{"type":"function","name":"oracle","inputs":[],"outputs":[{"name":"","type":"address","internalType":"contract IOracleAggregator"}],"stateMutability":"view"},{"type":"function","name":"refreshState","inputs":[],"outputs":[],"stateMutability":"nonpayable"},{"type":"function","name":"safetyAutomata","inputs":[],"outputs":[{"name":"","type":"address","internalType":"contract ISafetyAutomata"}],"stateMutability":"view"},{"type":"function","name":"updateHealth","inputs":[],"outputs":[],"stateMutability":"nonpayable"},{"type":"event","name":"HealthUpdated","inputs":[{"name":"status","type":"uint8","indexed":false,"internalType":"enum IOracleWatcher.Status"},{"name":"timestamp","type":"uint256","indexed":false,"internalType":"uint256"}],"anonymous":false}],"bytecode":{"object":"0x6080604052348015600f57600080fd5b506040516104b43803806104b4833981016040819052602c91608d565b600080546001600160a01b039384166001600160a01b031991821617909155600180549290931691161790556002805460ff199081169091556004805490911690554260035560c2565b6001600160a01b0381168114608a57600080fd5b50565b60008060408385031215609f57600080fd5b825160a8816076565b602084015190925060b7816076565b809150509250929050565b6103e3806100d16000396000f3fe608060405234801561001057600080fd5b50600436106100625760003560e01c8063276598a0146100675780634ce37be9146100715780634e69d560146100a15780637dc0d1d0146100b4578063d849e94f146100c7578063e4020804146100cf575b600080fd5b61006f6100e7565b005b600154610084906001600160a01b031681565b6040516001600160a01b0390911681526020015b60405180910390f35b60025460ff166040516100989190610326565b600054610084906001600160a01b031681565b61006f6102b2565b6100d76102bc565b6040519015158152602001610098565b600080546040805163cd905dff60e01b8152905183926001600160a01b03169163cd905dff9160048083019260209291908290030181865afa92505050801561014d575060408051601f3d908101601f1916820190925261014a9181019061033a565b60015b156101555791505b60018054604051602481019290925260009182916001600160a01b03169060440160408051601f198184030181529181526020820180516001600160e01b031663bc61e73360e01b179052516101ab9190610363565b600060405180830381855afa9150503d80600081146101e6576040519150601f19603f3d011682016040523d82523d6000602084013e6101eb565b606091505b50915091508180156101ff57506020815110155b1561021b5780806020019051810190610218919061033a565b92505b821561023a57600280546001919060ff191682805b021790555061025c565b836102515760028054819060ff1916600182610230565b6002805460ff191690555b4260038190556004805460ff191660011790556002546040517f881f547fae2c6c81a79b64f116928d8c615c5692a446d1040f1daa003eed6187926102a49260ff1691610392565b60405180910390a150505050565b6102ba6100e7565b565b60045460009060ff166102cf5750600190565b60006002805460ff16908111156102e8576102e86102ee565b14905090565b634e487b7160e01b600052602160045260246000fd5b6003811061032257634e487b7160e01b600052602160045260246000fd5b9052565b602081016103348284610304565b92915050565b60006020828403121561034c57600080fd5b8151801515811461035c57600080fd5b9392505050565b6000825160005b81811015610384576020818601810151858301520161036a565b506000920191825250919050565b604081016103a08285610304565b826020830152939250505056fea264697066735822122026fbfc6525c66d5ff6a3adf3c9d95ef06c78ca4f36936291b7749eeb8b0ab7d764736f6c634300081e0033","linkReferences":{}},"methodIdentifiers":{"getStatus()":"4e69d560","isHealthy()":"e4020804","oracle()":"7dc0d1d0","refreshState()":"d849e94f","safetyAutomata()":"4ce37be9","updateHealth()":"276598a0"},"id":26}