{"abi":[{"type":"function","name":"getAddress","inputs":[{"name":"key","type":"bytes32","internalType":"bytes32"}],"outputs":[{"name":"","type":"address","internalType":"address"}],"stateMutability":"view"},{"type":"function","name":"getUint","inputs":[{"name":"key","type":"bytes32","internalType":"bytes32"}],"outputs":[{"name":"","type":"uint256","internalType":"uint256"}],"stateMutability":"view"},{"type":"function","name":"setAddress","inputs":[{"name":"key","type":"bytes32","internalType":"bytes32"},{"name":"value","type":"address","internalType":"address"}],"outputs":[],"stateMutability":"nonpayable"},{"type":"function","name":"setUint","inputs":[{"name":"key","type":"bytes32","internalType":"bytes32"},{"name":"value","type":"uint256","internalType":"uint256"}],"outputs":[],"stateMutability":"nonpayable"}],"bytecode":{"object":"0x6080604052348015600f57600080fd5b506101d08061001f6000396000f3fe608060405234801561001057600080fd5b506004361061004c5760003560e01c806321f8a72114610051578063bd02d0f514610097578063ca446dd9146100c5578063e2a4853a14610103575b600080fd5b61007a61005f366004610123565b6000908152600160205260409020546001600160a01b031690565b6040516001600160a01b0390911681526020015b60405180910390f35b6100b76100a5366004610123565b60009081526020819052604090205490565b60405190815260200161008e565b6101016100d336600461013c565b60009182526001602052604090912080546001600160a01b0319166001600160a01b03909216919091179055565b005b610101610111366004610178565b60009182526020829052604090912055565b60006020828403121561013557600080fd5b5035919050565b6000806040838503121561014f57600080fd5b8235915060208301356001600160a01b038116811461016d57600080fd5b809150509250929050565b6000806040838503121561018b57600080fd5b5050803592602090910135915056fea2646970667358221220433a1c1c97c867d1e991d9622e4803bb255ac44dc5f29edd6e6bae39d0a46e0064736f6c634300081e0033","linkReferences":{}},"methodIdentifiers":{"getAddress(bytes32)":"21f8a721","getUint(bytes32)":"bd02d0f5","setAddress(bytes32,address)":"ca446dd9","setUint(bytes32,uint256)":"e2a4853a"},"id":13}