{"abi":[{"type":"constructor","inputs":[{"name":"_admin","type":"address","internalType":"address"}],"stateMutability":"nonpayable"},{"type":"function","name":"DOMAIN_SEPARATOR","inputs":[],"outputs":[{"name":"","type":"bytes32","internalType":"bytes32"}],"stateMutability":"view"},{"type":"function","name":"admin","inputs":[],"outputs":[{"name":"","type":"address","internalType":"address"}],"stateMutability":"view"},{"type":"function","name":"allowance","inputs":[{"name":"o","type":"address","internalType":"address"},{"name":"s","type":"address","internalType":"address"}],"outputs":[{"name":"","type":"uint256","internalType":"uint256"}],"stateMutability":"view"},{"type":"function","name":"approve","inputs":[{"name":"spender","type":"address","internalType":"address"},{"name":"amount","type":"uint256","internalType":"uint256"}],"outputs":[{"name":"","type":"bool","internalType":"bool"}],"stateMutability":"nonpayable"},{"type":"function","name":"balanceOf","inputs":[{"name":"a","type":"address","internalType":"address"}],"outputs":[{"name":"","type":"uint256","internalType":"uint256"}],"stateMutability":"view"},{"type":"function","name":"burn","inputs":[{"name":"from","type":"address","internalType":"address"},{"name":"amount","type":"uint256","internalType":"uint256"}],"outputs":[],"stateMutability":"nonpayable"},{"type":"function","name":"decimals","inputs":[],"outputs":[{"name":"","type":"uint8","internalType":"uint8"}],"stateMutability":"pure"},{"type":"function","name":"isBurner","inputs":[{"name":"","type":"address","internalType":"address"}],"outputs":[{"name":"","type":"bool","internalType":"bool"}],"stateMutability":"view"},{"type":"function","name":"isMinter","inputs":[{"name":"","type":"address","internalType":"address"}],"outputs":[{"name":"","type":"bool","internalType":"bool"}],"stateMutability":"view"},{"type":"function","name":"mint","inputs":[{"name":"to","type":"address","internalType":"address"},{"name":"amount","type":"uint256","internalType":"uint256"}],"outputs":[],"stateMutability":"nonpayable"},{"type":"function","name":"name","inputs":[],"outputs":[{"name":"","type":"string","internalType":"string"}],"stateMutability":"pure"},{"type":"function","name":"nonces","inputs":[{"name":"owner","type":"address","internalType":"address"}],"outputs":[{"name":"","type":"uint256","internalType":"uint256"}],"stateMutability":"view"},{"type":"function","name":"pause","inputs":[],"outputs":[],"stateMutability":"nonpayable"},{"type":"function","name":"paused","inputs":[],"outputs":[{"name":"","type":"bool","internalType":"bool"}],"stateMutability":"view"},{"type":"function","name":"permit","inputs":[{"name":"owner","type":"address","internalType":"address"},{"name":"spender","type":"address","internalType":"address"},{"name":"value","type":"uint256","internalType":"uint256"},{"name":"deadline","type":"uint256","internalType":"uint256"},{"name":"v","type":"uint8","internalType":"uint8"},{"name":"r","type":"bytes32","internalType":"bytes32"},{"name":"s","type":"bytes32","internalType":"bytes32"}],"outputs":[],"stateMutability":"nonpayable"},{"type":"function","name":"setAdmin","inputs":[{"name":"newAdmin","type":"address","internalType":"address"}],"outputs":[],"stateMutability":"nonpayable"},{"type":"function","name":"setBurner","inputs":[{"name":"account","type":"address","internalType":"address"},{"name":"enabled","type":"bool","internalType":"bool"}],"outputs":[],"stateMutability":"nonpayable"},{"type":"function","name":"setMinter","inputs":[{"name":"account","type":"address","internalType":"address"},{"name":"enabled","type":"bool","internalType":"bool"}],"outputs":[],"stateMutability":"nonpayable"},{"type":"function","name":"symbol","inputs":[],"outputs":[{"name":"","type":"string","internalType":"string"}],"stateMutability":"pure"},{"type":"function","name":"totalSupply","inputs":[],"outputs":[{"name":"","type":"uint256","internalType":"uint256"}],"stateMutability":"view"},{"type":"function","name":"transfer","inputs":[{"name":"to","type":"address","internalType":"address"},{"name":"amount","type":"uint256","internalType":"uint256"}],"outputs":[{"name":"","type":"bool","internalType":"bool"}],"stateMutability":"nonpayable"},{"type":"function","name":"transferFrom","inputs":[{"name":"from","type":"address","internalType":"address"},{"name":"to","type":"address","internalType":"address"},{"name":"amount","type":"uint256","internalType":"uint256"}],"outputs":[{"name":"","type":"bool","internalType":"bool"}],"stateMutability":"nonpayable"},{"type":"function","name":"unpause","inputs":[],"outputs":[],"stateMutability":"nonpayable"},{"type":"event","name":"AdminChanged","inputs":[{"name":"oldAdmin","type":"address","indexed":true,"internalType":"address"},{"name":"newAdmin","type":"address","indexed":true,"internalType":"address"}],"anonymous":false},{"type":"event","name":"Approval","inputs":[{"name":"owner","type":"address","indexed":true,"internalType":"address"},{"name":"spender","type":"address","indexed":true,"internalType":"address"},{"name":"value","type":"uint256","indexed":false,"internalType":"uint256"}],"anonymous":false},{"type":"event","name":"BurnerSet","inputs":[{"name":"account","type":"address","indexed":true,"internalType":"address"},{"name":"enabled","type":"bool","indexed":false,"internalType":"bool"}],"anonymous":false},{"type":"event","name":"MinterSet","inputs":[{"name":"account","type":"address","indexed":true,"internalType":"address"},{"name":"enabled","type":"bool","indexed":false,"internalType":"bool"}],"anonymous":false},{"type":"event","name":"Paused","inputs":[{"name":"by","type":"address","indexed":true,"internalType":"address"}],"anonymous":false},{"type":"event","name":"Transfer","inputs":[{"name":"from","type":"address","indexed":true,"internalType":"address"},{"name":"to","type":"address","indexed":true,"internalType":"address"},{"name":"value","type":"uint256","indexed":false,"internalType":"uint256"}],"anonymous":false},{"type":"event","name":"Unpaused","inputs":[{"name":"by","type":"address","indexed":true,"internalType":"address"}],"anonymous":false},{"type":"error","name":"ACCESS_DENIED","inputs":[]},{"type":"error","name":"DEADLINE_EXPIRED","inputs":[]},{"type":"error","name":"INSUFFICIENT_ALLOWANCE","inputs":[]},{"type":"error","name":"INSUFFICIENT_BALANCE","inputs":[]},{"type":"error","name":"INVALID_SIGNER","inputs":[]},{"type":"error","name":"PAUSED","inputs":[]},{"type":"error","name":"ZERO_ADDRESS","inputs":[]}],"bytecode":{"object":"0x60c060405234801561001057600080fd5b5060405161120c38038061120c83398101604081905261002f91610176565b6001600160a01b0381166100565760405163538ba4f960e01b815260040160405180910390fd5b600080546001600160a01b0319166001600160a01b03831690811782556040519091907f7e644d79422f17c01e4894b5f4f588d331ebfa28653d42ae832dc59e38c9798f908290a346608081815260408051808201825260058152640c5ad554d160da1b6020918201528151808301835260018152603160f81b9082015281517f8b73c3c69bb8fe3d512ecc4cf759cc79239f7b179b0ffacaa9a75d522b39400f818301527fd96be97c55f13459185fb8d0b98233de4aff6c2d07215667f33a75a8b5dcb110818401527fc89efdaa54c0f20c7adf612882df0950f5a951637e0307cdcb4c672f298b8bc66060820152928301939093523060a0808401919091528151808403909101815260c09092019052805191012060a052506101a6565b60006020828403121561018857600080fd5b81516001600160a01b038116811461019f57600080fd5b9392505050565b60805160a0516110416101cb60003960006105fe0152600061050901526110416000f3fe608060405234801561001057600080fd5b506004361061014d5760003560e01c8063704b6c02116100c3578063a9059cbb1161007c578063a9059cbb146102c1578063aa271e1a146102d4578063cf456ae7146102f7578063d505accf1461030a578063dd62ed3e1461031d578063f851a4401461035657600080fd5b8063704b6c021461024157806370a08231146102545780637ecebe001461027d5780638456cb59146102a657806395d89b41146101525780639dc29fac146102ae57600080fd5b8063313ce56711610115578063313ce567146101df5780633644e515146101ee5780633f4ba83a146101f657806340c10f19146101fe5780634334614a146102115780635c975abb1461023457600080fd5b806306fdde0314610152578063095ea7b3146101825780630d895ee1146101a557806318160ddd146101ba57806323b872dd146101cc575b600080fd5b60408051808201825260058152640c5ad554d160da1b602082015290516101799190610de1565b60405180910390f35b610195610190366004610e4b565b610381565b6040519015158152602001610179565b6101b86101b3366004610e75565b610398565b005b6004545b604051908152602001610179565b6101956101da366004610eb1565b61044a565b60405160128152602001610179565b6101be610505565b6101b8610620565b6101b861020c366004610e4b565b610682565b61019561021f366004610eee565b60026020526000908152604090205460ff1681565b6003546101959060ff1681565b6101b861024f366004610eee565b610787565b6101be610262366004610eee565b6001600160a01b031660009081526005602052604090205490565b6101be61028b366004610eee565b6001600160a01b031660009081526007602052604090205490565b6101b8610834565b6101b86102bc366004610e4b565b610899565b6101956102cf366004610e4b565b6109aa565b6101956102e2366004610eee565b60016020526000908152604090205460ff1681565b6101b8610305366004610e75565b6109b7565b6101b8610318366004610f10565b610a61565b6101be61032b366004610f83565b6001600160a01b03918216600090815260066020908152604080832093909416825291909152205490565b600054610369906001600160a01b031681565b6040516001600160a01b039091168152602001610179565b600061038e338484610c62565b5060015b92915050565b6000546001600160a01b031633146103c3576040516395383ea160e01b815260040160405180910390fd5b6001600160a01b0382166103ea5760405163538ba4f960e01b815260040160405180910390fd5b6001600160a01b038216600081815260026020908152604091829020805460ff191685151590811790915591519182527fd28dc1379d750c7c8137c7ef7b074f62f1361b9becc7f9d77d8c0d6e46a3cd0691015b60405180910390a25050565b6001600160a01b03831660009081526006602090815260408083203384529091528120548281101561048f57604051630fd3919360e01b815260040160405180910390fd5b6001600160a01b038516600081815260066020908152604080832033808552908352928190208786039081905590519081529192917f8c5be1e5ebec7d5bd14f71427d1e84f3dd0314c0f7b2291e5b200ac8c7c3b925910160405180910390a36104fa858585610cfe565b506001949350505050565b60007f000000000000000000000000000000000000000000000000000000000000000046146105fb575060408051808201825260058152640c5ad554d160da1b6020918201528151808301835260018152603160f81b9082015281517f8b73c3c69bb8fe3d512ecc4cf759cc79239f7b179b0ffacaa9a75d522b39400f818301527fd96be97c55f13459185fb8d0b98233de4aff6c2d07215667f33a75a8b5dcb110818401527fc89efdaa54c0f20c7adf612882df0950f5a951637e0307cdcb4c672f298b8bc660608201524660808201523060a0808301919091528351808303909101815260c0909101909252815191012090565b507f000000000000000000000000000000000000000000000000000000000000000090565b6000546001600160a01b0316331461064b576040516395383ea160e01b815260040160405180910390fd5b6003805460ff1916905560405133907f5db9ee0a495bf2e6ff9c91a7834c1ba4fdd244a5e8aa4e537bd38aeae4b073aa90600090a2565b60035460ff16156106a657604051632a6ab56360e21b815260040160405180910390fd5b3360009081526001602052604090205460ff166106d6576040516395383ea160e01b815260040160405180910390fd5b6001600160a01b0382166106fd5760405163538ba4f960e01b815260040160405180910390fd5b806004600082825461070f9190610fcc565b90915550506001600160a01b0382166000908152600560205260408120805483929061073c908490610fcc565b90915550506040518181526001600160a01b038316906000907fddf252ad1be2c89b69c2b068fc378daa952ba7f163c4a11628f55a4df523b3ef906020015b60405180910390a35050565b6000546001600160a01b031633146107b2576040516395383ea160e01b815260040160405180910390fd5b6001600160a01b0381166107d95760405163538ba4f960e01b815260040160405180910390fd5b600080546040516001600160a01b03808516939216917f7e644d79422f17c01e4894b5f4f588d331ebfa28653d42ae832dc59e38c9798f91a3600080546001600160a01b0319166001600160a01b0392909216919091179055565b6000546001600160a01b0316331461085f576040516395383ea160e01b815260040160405180910390fd5b6003805460ff1916600117905560405133907f62e78cea01bee320cd4e420270b5ea74000d11b0c9f74754ebdbfc544b05a25890600090a2565b60035460ff16156108bd57604051632a6ab56360e21b815260040160405180910390fd5b3360009081526002602052604090205460ff166108ed576040516395383ea160e01b815260040160405180910390fd5b6001600160a01b03821660009081526005602052604090205481111561092657604051632858f9ab60e11b815260040160405180910390fd5b6001600160a01b0382166000908152600560205260408120805483929061094e908490610fdf565b9250508190555080600460008282546109679190610fdf565b90915550506040518181526000906001600160a01b038416907fddf252ad1be2c89b69c2b068fc378daa952ba7f163c4a11628f55a4df523b3ef9060200161077b565b600061038e338484610cfe565b6000546001600160a01b031633146109e2576040516395383ea160e01b815260040160405180910390fd5b6001600160a01b038216610a095760405163538ba4f960e01b815260040160405180910390fd5b6001600160a01b038216600081815260016020908152604091829020805460ff191685151590811790915591519182527f583b0aa0e528532caf4b907c11d7a8158a122fe2a6fb80cd9b09776ebea8d92d910161043e565b42841015610a825760405163086014a960e31b815260040160405180910390fd5b6001600160a01b0387161580610a9f57506001600160a01b038616155b15610abd5760405163538ba4f960e01b815260040160405180910390fd5b6000610ac7610505565b6001600160a01b038916600090815260076020526040812080547f6e71edae12b1b97f4d1f60370fef10105fa2faae0126114a169c64845d6126c9928c928c928c92909190610b1583610ff2565b909155506040805160208101969096526001600160a01b0394851690860152929091166060840152608083015260a082015260c0810187905260e00160405160208183030381529060405280519060200120604051602001610b8e92919061190160f01b81526002810192909252602282015260420190565b60408051601f198184030181528282528051602091820120600080855291840180845281905260ff88169284019290925260608301869052608083018590529092509060019060a0016020604051602081039080840390855afa158015610bf9573d6000803e3d6000fd5b5050604051601f1901519150506001600160a01b0381161580610c2e5750886001600160a01b0316816001600160a01b031614155b15610c4c57604051631b2ff60b60e21b815260040160405180910390fd5b610c57898989610c62565b505050505050505050565b6001600160a01b0383161580610c7f57506001600160a01b038216155b15610c9d5760405163538ba4f960e01b815260040160405180910390fd5b6001600160a01b0383811660008181526006602090815260408083209487168084529482529182902085905590518481527f8c5be1e5ebec7d5bd14f71427d1e84f3dd0314c0f7b2291e5b200ac8c7c3b925910160405180910390a3505050565b6001600160a01b0382161580610d1b57506001600160a01b038316155b15610d395760405163538ba4f960e01b815260040160405180910390fd5b6001600160a01b03831660009081526005602052604090205481811015610d7357604051632858f9ab60e11b815260040160405180910390fd5b6001600160a01b0380851660008181526005602052604080822086860390559286168082529083902080548601905591517fddf252ad1be2c89b69c2b068fc378daa952ba7f163c4a11628f55a4df523b3ef90610dd39086815260200190565b60405180910390a350505050565b602081526000825180602084015260005b81811015610e0f5760208186018101516040868401015201610df2565b506000604082850101526040601f19601f83011684010191505092915050565b80356001600160a01b0381168114610e4657600080fd5b919050565b60008060408385031215610e5e57600080fd5b610e6783610e2f565b946020939093013593505050565b60008060408385031215610e8857600080fd5b610e9183610e2f565b915060208301358015158114610ea657600080fd5b809150509250929050565b600080600060608486031215610ec657600080fd5b610ecf84610e2f565b9250610edd60208501610e2f565b929592945050506040919091013590565b600060208284031215610f0057600080fd5b610f0982610e2f565b9392505050565b600080600080600080600060e0888a031215610f2b57600080fd5b610f3488610e2f565b9650610f4260208901610e2f565b95506040880135945060608801359350608088013560ff81168114610f6657600080fd5b9699959850939692959460a0840135945060c09093013592915050565b60008060408385031215610f9657600080fd5b610f9f83610e2f565b9150610fad60208401610e2f565b90509250929050565b634e487b7160e01b600052601160045260246000fd5b8082018082111561039257610392610fb6565b8181038181111561039257610392610fb6565b60006001820161100457611004610fb6565b506001019056fea2646970667358221220b5ac893c4f2003a2bb965a94735506c23aaecca9225c7f5f607cb3910f1af59f64736f6c634300081e0033","linkReferences":{}},"methodIdentifiers":{"DOMAIN_SEPARATOR()":"3644e515","admin()":"f851a440","allowance(address,address)":"dd62ed3e","approve(address,uint256)":"095ea7b3","balanceOf(address)":"70a08231","burn(address,uint256)":"9dc29fac","decimals()":"313ce567","isBurner(address)":"4334614a","isMinter(address)":"aa271e1a","mint(address,uint256)":"40c10f19","name()":"06fdde03","nonces(address)":"7ecebe00","pause()":"8456cb59","paused()":"5c975abb","permit(address,address,uint256,uint256,uint8,bytes32,bytes32)":"d505accf","setAdmin(address)":"704b6c02","setBurner(address,bool)":"0d895ee1","setMinter(address,bool)":"cf456ae7","symbol()":"95d89b41","totalSupply()":"18160ddd","transfer(address,uint256)":"a9059cbb","transferFrom(address,address,uint256)":"23b872dd","unpause()":"3f4ba83a"},"id":5}