{"abi":[{"type":"constructor","inputs":[{"name":"_dao","type":"address","internalType":"address"}],"stateMutability":"nonpayable"},{"type":"function","name":"dao","inputs":[],"outputs":[{"name":"","type":"address","internalType":"address"}],"stateMutability":"view"},{"type":"function","name":"heartbeat","inputs":[],"outputs":[{"name":"","type":"uint256","internalType":"uint256"}],"stateMutability":"view"},{"type":"function","name":"isStale","inputs":[],"outputs":[{"name":"","type":"bool","internalType":"bool"}],"stateMutability":"view"},{"type":"function","name":"lastPrice","inputs":[],"outputs":[{"name":"","type":"uint256","internalType":"uint256"}],"stateMutability":"view"},{"type":"function","name":"lastUpdate","inputs":[],"outputs":[{"name":"","type":"uint256","internalType":"uint256"}],"stateMutability":"view"},{"type":"function","name":"latestPrice","inputs":[],"outputs":[{"name":"","type":"uint256","internalType":"uint256"}],"stateMutability":"view"},{"type":"function","name":"setHeartbeat","inputs":[{"name":"seconds_","type":"uint256","internalType":"uint256"}],"outputs":[],"stateMutability":"nonpayable"},{"type":"function","name":"setPrice","inputs":[{"name":"price","type":"uint256","internalType":"uint256"}],"outputs":[],"stateMutability":"nonpayable"},{"type":"event","name":"HeartbeatChanged","inputs":[{"name":"newHeartbeat","type":"uint256","indexed":false,"internalType":"uint256"}],"anonymous":false},{"type":"event","name":"PricePushed","inputs":[{"name":"price","type":"uint256","indexed":false,"internalType":"uint256"},{"name":"timestamp","type":"uint256","indexed":false,"internalType":"uint256"}],"anonymous":false}],"bytecode":{"object":"0x6080604052610e10600355348015601557600080fd5b506040516103b13803806103b18339810160408190526032916056565b600080546001600160a01b0319166001600160a01b03929092169190911790556084565b600060208284031215606757600080fd5b81516001600160a01b0381168114607d57600080fd5b9392505050565b61031e806100936000396000f3fe608060405234801561001057600080fd5b50600436106100885760003560e01c806391b7f5ed1161005b57806391b7f5ed146100f5578063a3e6ba941461010a578063c046371114610112578063d29dba911461011b57600080fd5b8063053f14da1461008d5780631a26f447146100a95780633defb962146100c15780634162169f146100ca575b600080fd5b61009660015481565b6040519081526020015b60405180910390f35b6100b161012e565b60405190151581526020016100a0565b61009660035481565b6000546100dd906001600160a01b031681565b6040516001600160a01b0390911681526020016100a0565b6101086101033660046102a8565b610147565b005b6100966101d9565b61009660025481565b6101086101293660046102a8565b61022f565b60006003546002544261014191906102c1565b11905090565b6000546001600160a01b031633146101905760405162461bcd60e51b81526020600482015260076024820152666e6f742044414f60c81b60448201526064015b60405180910390fd5b60018190554260028190556040805183815260208101929092527f07a97df0bbdf973749bc44777d982cb8939e45762f751ba079e0508d2fd2595491015b60405180910390a150565b6000600354600254426101ec91906102c1565b11156102285760405162461bcd60e51b815260206004820152600b60248201526a7374616c6520707269636560a81b6044820152606401610187565b5060015490565b6000546001600160a01b031633146102735760405162461bcd60e51b81526020600482015260076024820152666e6f742044414f60c81b6044820152606401610187565b60038190556040518181527fd44b1b7c3f294eb215b645c4fb4d10863d197c3a27226ef6d03d1e050c5b1775906020016101ce565b6000602082840312156102ba57600080fd5b5035919050565b818103818111156102e257634e487b7160e01b600052601160045260246000fd5b9291505056fea2646970667358221220f00bdc426414235ab2072282916720c9a6b5caee2af7b563eb9d0646ce1b4c0364736f6c634300081e0033","linkReferences":{}},"methodIdentifiers":{"dao()":"4162169f","heartbeat()":"3defb962","isStale()":"1a26f447","lastPrice()":"053f14da","lastUpdate()":"c0463711","latestPrice()":"a3e6ba94","setHeartbeat(uint256)":"d29dba91","setPrice(uint256)":"91b7f5ed"},"id":25}