{"abi":[{"type":"function","name":"route","inputs":[{"name":"key","type":"bytes32","internalType":"bytes32"},{"name":"token","type":"address","internalType":"address"},{"name":"amount","type":"uint256","internalType":"uint256"}],"outputs":[{"name":"","type":"bool","internalType":"bool"}],"stateMutability":"nonpayable"},{"type":"event","name":"FeeRouted","inputs":[{"name":"key","type":"bytes32","indexed":true,"internalType":"bytes32"},{"name":"token","type":"address","indexed":false,"internalType":"address"},{"name":"amount","type":"uint256","indexed":false,"internalType":"uint256"}],"anonymous":false}],"bytecode":{"object":"0x6080604052348015600f57600080fd5b506101198061001f6000396000f3fe6080604052348015600f57600080fd5b506004361060285760003560e01c8063bcae5a0414602d575b600080fd5b603c603836600460a1565b6050565b604051901515815260200160405180910390f35b604080516001600160a01b03841681526020810183905260009185917fd6c5ef05fe77ec8d3bc82ddb293e924eaf13453a78a8c2f9e5d192994ea646e3910160405180910390a25060019392505050565b60008060006060848603121560b557600080fd5b8335925060208401356001600160a01b038116811460d257600080fd5b92959294505050604091909101359056fea2646970667358221220baf97944239d0221720b61433e54b676213744314798fecd1da89da488c29f4e64736f6c634300081e0033","linkReferences":{}},"methodIdentifiers":{"route(bytes32,address,uint256)":"bcae5a04"},"id":28}