{"abi":[{"type":"function","name":"balances","inputs":[{"name":"","type":"address","internalType":"address"}],"outputs":[{"name":"","type":"uint256","internalType":"uint256"}],"stateMutability":"view"},{"type":"function","name":"deposit","inputs":[{"name":"asset","type":"address","internalType":"address"},{"name":"from","type":"address","internalType":"address"},{"name":"amount","type":"uint256","internalType":"uint256"}],"outputs":[],"stateMutability":"nonpayable"},{"type":"function","name":"withdraw","inputs":[{"name":"asset","type":"address","internalType":"address"},{"name":"to","type":"address","internalType":"address"},{"name":"amount","type":"uint256","internalType":"uint256"},{"name":"","type":"bytes32","internalType":"bytes32"}],"outputs":[],"stateMutability":"nonpayable"}],"bytecode":{"object":"0x6080604052348015600f57600080fd5b5061034a8061001f6000396000f3fe608060405234801561001057600080fd5b50600436106100415760003560e01c806327e235e3146100465780638340f54914610078578063f4b23e031461008d575b600080fd5b61006661005436600461020f565b60006020819052908152604090205481565b60405190815260200160405180910390f35b61008b610086366004610231565b6100a0565b005b61008b61009b36600461026e565b61014c565b6040516323b872dd60e01b81526001600160a01b038381166004830152306024830152604482018390528416906323b872dd906064016020604051808303816000875af11580156100f5573d6000803e3d6000fd5b505050506040513d601f19601f8201168201806040525081019061011991906102b0565b506001600160a01b038316600090815260208190526040812080548392906101429084906102e8565b9091555050505050565b6001600160a01b03841660009081526020819052604081208054849290610174908490610301565b909155505060405163a9059cbb60e01b81526001600160a01b0384811660048301526024820184905285169063a9059cbb906044016020604051808303816000875af11580156101c8573d6000803e3d6000fd5b505050506040513d601f19601f820116820180604052508101906101ec91906102b0565b5050505050565b80356001600160a01b038116811461020a57600080fd5b919050565b60006020828403121561022157600080fd5b61022a826101f3565b9392505050565b60008060006060848603121561024657600080fd5b61024f846101f3565b925061025d602085016101f3565b929592945050506040919091013590565b6000806000806080858703121561028457600080fd5b61028d856101f3565b935061029b602086016101f3565b93969395505050506040820135916060013590565b6000602082840312156102c257600080fd5b8151801515811461022a57600080fd5b634e487b7160e01b600052601160045260246000fd5b808201808211156102fb576102fb6102d2565b92915050565b818103818111156102fb576102fb6102d256fea26469706673582212205091c7eb96c4db0a6feb31a4e4546e3d13e07f2b6a8cd6aee011367e137f97f564736f6c634300081e0033","linkReferences":{}},"methodIdentifiers":{"balances(address)":"27e235e3","deposit(address,address,uint256)":"8340f549","withdraw(address,address,uint256,bytes32)":"f4b23e03"},"id":14}