{"abi":[{"type":"constructor","inputs":[{"name":"_admin","type":"address","internalType":"address"},{"name":"_safety","type":"address","internalType":"contract ISafetyAutomata"},{"name":"_registry","type":"address","internalType":"contract IParameterRegistry"}],"stateMutability":"nonpayable"},{"type":"function","name":"MODULE_ID","inputs":[],"outputs":[{"name":"","type":"bytes32","internalType":"bytes32"}],"stateMutability":"view"},{"type":"function","name":"admin","inputs":[],"outputs":[{"name":"","type":"address","internalType":"address"}],"stateMutability":"view"},{"type":"function","name":"getPrice","inputs":[{"name":"asset","type":"address","internalType":"address"}],"outputs":[{"name":"p","type":"tuple","internalType":"struct IOracleAggregator.Price","components":[{"name":"price","type":"int256","internalType":"int256"},{"name":"decimals","type":"uint8","internalType":"uint8"},{"name":"healthy","type":"bool","internalType":"bool"},{"name":"updatedAt","type":"uint256","internalType":"uint256"}]}],"stateMutability":"view"},{"type":"function","name":"registry","inputs":[],"outputs":[{"name":"","type":"address","internalType":"contract IParameterRegistry"}],"stateMutability":"view"},{"type":"function","name":"safety","inputs":[],"outputs":[{"name":"","type":"address","internalType":"contract ISafetyAutomata"}],"stateMutability":"view"},{"type":"function","name":"setAdmin","inputs":[{"name":"newAdmin","type":"address","internalType":"address"}],"outputs":[],"stateMutability":"nonpayable"},{"type":"function","name":"setPriceMock","inputs":[{"name":"asset","type":"address","internalType":"address"},{"name":"price","type":"int256","internalType":"int256"},{"name":"decimals","type":"uint8","internalType":"uint8"},{"name":"healthy","type":"bool","internalType":"bool"}],"outputs":[],"stateMutability":"nonpayable"},{"type":"function","name":"setRegistry","inputs":[{"name":"newRegistry","type":"address","internalType":"contract IParameterRegistry"}],"outputs":[],"stateMutability":"nonpayable"},{"type":"event","name":"AdminChanged","inputs":[{"name":"oldAdmin","type":"address","indexed":true,"internalType":"address"},{"name":"newAdmin","type":"address","indexed":true,"internalType":"address"}],"anonymous":false},{"type":"event","name":"OracleUpdated","inputs":[{"name":"asset","type":"address","indexed":true,"internalType":"address"},{"name":"price","type":"int256","indexed":false,"internalType":"int256"},{"name":"decimals","type":"uint8","indexed":false,"internalType":"uint8"},{"name":"healthy","type":"bool","indexed":false,"internalType":"bool"},{"name":"updatedAt","type":"uint256","indexed":false,"internalType":"uint256"}],"anonymous":false},{"type":"event","name":"RegistryUpdated","inputs":[{"name":"oldRegistry","type":"address","indexed":true,"internalType":"address"},{"name":"newRegistry","type":"address","indexed":true,"internalType":"address"}],"anonymous":false},{"type":"error","name":"ACCESS_DENIED","inputs":[]},{"type":"error","name":"PAUSED","inputs":[]},{"type":"error","name":"ZERO_ADDRESS","inputs":[]}],"bytecode":{"object":"0x60a060405234801561001057600080fd5b5060405161080038038061080083398101604081905261002f91610156565b6001600160a01b0383166100565760405163538ba4f960e01b815260040160405180910390fd5b6001600160a01b03821661007d5760405163538ba4f960e01b815260040160405180910390fd5b6001600160a01b0381166100a45760405163538ba4f960e01b815260040160405180910390fd5b600180546001600160a01b038086166001600160a01b0319928316811790935584811660805260008054918516919092161781556040517f7e644d79422f17c01e4894b5f4f588d331ebfa28653d42ae832dc59e38c9798f908290a36040516001600160a01b038216906000907f482b97c53e48ffa324a976e2738053e9aff6eee04d8aac63b10e19411d869b82908290a35050506101a3565b6001600160a01b038116811461015357600080fd5b50565b60008060006060848603121561016b57600080fd5b83516101768161013e565b60208501519093506101878161013e565b60408501519092506101988161013e565b809150509250925092565b60805161063b6101c56000396000818161015a0152610338015261063b6000f3fe608060405234801561001057600080fd5b50600436106100885760003560e01c8063a33661c71161005b578063a33661c7146101bc578063a91ee0dc146101cf578063ed2f21f5146101e2578063f851a4401461021757600080fd5b806341976e091461008d5780636e3f795a14610155578063704b6c02146101945780637b103999146101a9575b600080fd5b61011461009b36600461055d565b604080516080810182526000808252602082018190529181018290526060810191909152506001600160a01b0316600090815260026020818152604092839020835160808101855281548152600182015460ff808216948301949094526101009004909216151593820193909352910154606082015290565b60405161014c91908151815260208083015160ff16908201526040808301511515908201526060918201519181019190915260800190565b60405180910390f35b61017c7f000000000000000000000000000000000000000000000000000000000000000081565b6040516001600160a01b03909116815260200161014c565b6101a76101a236600461055d565b61022a565b005b60005461017c906001600160a01b031681565b6101a76101ca36600461058f565b6102d8565b6101a76101dd36600461055d565b610498565b6102097f352d05fe3946dbe49277552ba941e744d5a96d9c60bc1ba0ea5f1d3ae000f7c881565b60405190815260200161014c565b60015461017c906001600160a01b031681565b6001546001600160a01b03163314610255576040516395383ea160e01b815260040160405180910390fd5b6001600160a01b03811661027c5760405163538ba4f960e01b815260040160405180910390fd5b6001546040516001600160a01b038084169216907f7e644d79422f17c01e4894b5f4f588d331ebfa28653d42ae832dc59e38c9798f90600090a3600180546001600160a01b0319166001600160a01b0392909216919091179055565b6001546001600160a01b03163314610303576040516395383ea160e01b815260040160405180910390fd5b60405163241b71bb60e01b81527f352d05fe3946dbe49277552ba941e744d5a96d9c60bc1ba0ea5f1d3ae000f7c860048201527f00000000000000000000000000000000000000000000000000000000000000006001600160a01b03169063241b71bb90602401602060405180830381865afa158015610387573d6000803e3d6000fd5b505050506040513d601f19601f820116820180604052508101906103ab91906105e8565b156103c957604051632a6ab56360e21b815260040160405180910390fd5b6040805160808101825284815260ff808516602080840191825285151584860190815242606086018181526001600160a01b038c166000818152600295869052899020975188559451600188018054945115156101000261ffff1990951691909716179290921790945551930192909255915190917fbafd23ce96a4b43246c893d3818b6fd25f56a8c0fce746ba1e1a02bce3dd3c7e9161048a9187918791879193845260ff92909216602084015215156040830152606082015260800190565b60405180910390a250505050565b6001546001600160a01b031633146104c3576040516395383ea160e01b815260040160405180910390fd5b6001600160a01b0381166104ea5760405163538ba4f960e01b815260040160405180910390fd5b600080546040516001600160a01b03808516939216917f482b97c53e48ffa324a976e2738053e9aff6eee04d8aac63b10e19411d869b8291a3600080546001600160a01b0319166001600160a01b0392909216919091179055565b6001600160a01b038116811461055a57600080fd5b50565b60006020828403121561056f57600080fd5b813561057a81610545565b9392505050565b801515811461055a57600080fd5b600080600080608085870312156105a557600080fd5b84356105b081610545565b935060208501359250604085013560ff811681146105cd57600080fd5b915060608501356105dd81610581565b939692955090935050565b6000602082840312156105fa57600080fd5b815161057a8161058156fea2646970667358221220ef0dfadafa11f95671af64b4e54e600942f5e999eddc5ba18202022c91108ff464736f6c634300081e0033","linkReferences":{}},"methodIdentifiers":{"MODULE_ID()":"ed2f21f5","admin()":"f851a440","getPrice(address)":"41976e09","registry()":"7b103999","safety()":"6e3f795a","setAdmin(address)":"704b6c02","setPriceMock(address,int256,uint8,bool)":"a33661c7","setRegistry(address)":"a91ee0dc"},"id":6}