{"abi":[{"type":"constructor","inputs":[{"name":"_admin","type":"address","internalType":"address"},{"name":"_safety","type":"address","internalType":"contract ISafetyAutomata"},{"name":"_registry","type":"address","internalType":"contract IParameterRegistry"}],"stateMutability":"nonpayable"},{"type":"function","name":"MODULE_ID","inputs":[],"outputs":[{"name":"","type":"bytes32","internalType":"bytes32"}],"stateMutability":"view"},{"type":"function","name":"admin","inputs":[],"outputs":[{"name":"","type":"address","internalType":"address"}],"stateMutability":"view"},{"type":"function","name":"getPrice","inputs":[{"name":"asset","type":"address","internalType":"address"}],"outputs":[{"name":"p","type":"tuple","internalType":"struct IOracleAggregator.Price","components":[{"name":"price","type":"int256","internalType":"int256"},{"name":"decimals","type":"uint8","internalType":"uint8"},{"name":"healthy","type":"bool","internalType":"bool"},{"name":"updatedAt","type":"uint256","internalType":"uint256"}]}],"stateMutability":"view"},{"type":"function","name":"isOperational","inputs":[],"outputs":[{"name":"","type":"bool","internalType":"bool"}],"stateMutability":"view"},{"type":"function","name":"registry","inputs":[],"outputs":[{"name":"","type":"address","internalType":"contract IParameterRegistry"}],"stateMutability":"view"},{"type":"function","name":"safety","inputs":[],"outputs":[{"name":"","type":"address","internalType":"contract ISafetyAutomata"}],"stateMutability":"view"},{"type":"function","name":"setAdmin","inputs":[{"name":"newAdmin","type":"address","internalType":"address"}],"outputs":[],"stateMutability":"nonpayable"},{"type":"function","name":"setPriceMock","inputs":[{"name":"asset","type":"address","internalType":"address"},{"name":"price","type":"int256","internalType":"int256"},{"name":"decimals","type":"uint8","internalType":"uint8"},{"name":"healthy","type":"bool","internalType":"bool"}],"outputs":[],"stateMutability":"nonpayable"},{"type":"function","name":"setRegistry","inputs":[{"name":"newRegistry","type":"address","internalType":"contract IParameterRegistry"}],"outputs":[],"stateMutability":"nonpayable"},{"type":"event","name":"AdminChanged","inputs":[{"name":"oldAdmin","type":"address","indexed":true,"internalType":"address"},{"name":"newAdmin","type":"address","indexed":true,"internalType":"address"}],"anonymous":false},{"type":"event","name":"OracleUpdated","inputs":[{"name":"asset","type":"address","indexed":true,"internalType":"address"},{"name":"price","type":"int256","indexed":false,"internalType":"int256"},{"name":"decimals","type":"uint8","indexed":false,"internalType":"uint8"},{"name":"healthy","type":"bool","indexed":false,"internalType":"bool"}],"anonymous":false},{"type":"event","name":"RegistryUpdated","inputs":[{"name":"oldRegistry","type":"address","indexed":true,"internalType":"address"},{"name":"newRegistry","type":"address","indexed":true,"internalType":"address"}],"anonymous":false},{"type":"error","name":"ACCESS_DENIED","inputs":[]},{"type":"error","name":"PAUSED","inputs":[]},{"type":"error","name":"ZERO_ADDRESS","inputs":[]}],"bytecode":{"object":"0x60a060405234801561001057600080fd5b50604051610b66380380610b6683398101604081905261002f91610156565b6001600160a01b0383166100565760405163538ba4f960e01b815260040160405180910390fd5b6001600160a01b03821661007d5760405163538ba4f960e01b815260040160405180910390fd5b6001600160a01b0381166100a45760405163538ba4f960e01b815260040160405180910390fd5b600180546001600160a01b038086166001600160a01b0319928316811790935584811660805260008054918516919092161781556040517f7e644d79422f17c01e4894b5f4f588d331ebfa28653d42ae832dc59e38c9798f908290a36040516001600160a01b038216906000907f482b97c53e48ffa324a976e2738053e9aff6eee04d8aac63b10e19411d869b82908290a35050506101a3565b6001600160a01b038116811461015357600080fd5b50565b60008060006060848603121561016b57600080fd5b83516101768161013e565b60208501519093506101878161013e565b60408501519092506101988161013e565b809150509250925092565b60805161099b6101cb6000396000818160f1015281816103cf0152610712015261099b6000f3fe608060405234801561001057600080fd5b50600436106100935760003560e01c8063a33661c711610066578063a33661c714610153578063a91ee0dc14610166578063cd905dff14610179578063ed2f21f514610191578063f851a440146101c657600080fd5b806341976e09146100985780636e3f795a146100ec578063704b6c021461012b5780637b10399914610140575b600080fd5b6100ab6100a636600461082f565b6101d9565b6040516100e391908151815260208083015160ff16908201526040808301511515908201526060918201519181019190915260800190565b60405180910390f35b6101137f000000000000000000000000000000000000000000000000000000000000000081565b6040516001600160a01b0390911681526020016100e3565b61013e61013936600461082f565b6102c1565b005b600054610113906001600160a01b031681565b61013e610161366004610861565b61036f565b61013e61017436600461082f565b61062d565b6101816106da565b60405190151581526020016100e3565b6101b87f352d05fe3946dbe49277552ba941e744d5a96d9c60bc1ba0ea5f1d3ae000f7c881565b6040519081526020016100e3565b600154610113906001600160a01b031681565b604080516080810182526000808252602082018190529181018290526060810191909152506001600160a01b0381166000908152600260208181526040808420815160808101835281548152600182015460ff8082169583019590955261010090049093161515918301919091529091015460608201529061027a7f24596d775c24ed30b7e76cb5200ad81fea7d377d4ebc238b185fc4f796c404ce61078b565b90508060000361028a5750919050565b816060015160000361029c5750919050565b8082606001516102ac91906108d0565b4211156102bb57600060408301525b50919050565b6001546001600160a01b031633146102ec576040516395383ea160e01b815260040160405180910390fd5b6001600160a01b0381166103135760405163538ba4f960e01b815260040160405180910390fd5b6001546040516001600160a01b038084169216907f7e644d79422f17c01e4894b5f4f588d331ebfa28653d42ae832dc59e38c9798f90600090a3600180546001600160a01b0319166001600160a01b0392909216919091179055565b6001546001600160a01b0316331461039a576040516395383ea160e01b815260040160405180910390fd5b60405163241b71bb60e01b81527f352d05fe3946dbe49277552ba941e744d5a96d9c60bc1ba0ea5f1d3ae000f7c860048201527f00000000000000000000000000000000000000000000000000000000000000006001600160a01b03169063241b71bb90602401602060405180830381865afa15801561041e573d6000803e3d6000fd5b505050506040513d601f19601f8201168201806040525081019061044291906108e3565b1561046057604051632a6ab56360e21b815260040160405180910390fd5b6000831361046c575060005b6001600160a01b0384166000908152600260208181526040808420815160808101835281548152600182015460ff808216958301959095526101009004909316151591830191909152909101546060820152906104e87f686fc85dc979e478f07af0cdf673be3bec1c2d07ccaa2c2920f0868a636b4c9761078b565b90506000811180156104fb575081516000125b80156105075750600085135b15610560578151856000828211610527576105228284610900565b610531565b6105318383610900565b905060008361054283612710610913565b61054c919061092a565b90508481111561055b57600096505b505050505b6040805160808101825286815260ff808716602080840191825287151584860190815242606086019081526001600160a01b038d166000818152600294859052889020965187559351600187018054935115156101000261ffff199094169190961617919091179093559151929091019190915590517f78748115378c06eac2e990f6be833c37534266e21a40444ef3b9cd6debf1b01b9061061d9088908890889092835260ff9190911660208301521515604082015260600190565b60405180910390a2505050505050565b6001546001600160a01b03163314610658576040516395383ea160e01b815260040160405180910390fd5b6001600160a01b03811661067f5760405163538ba4f960e01b815260040160405180910390fd5b600080546040516001600160a01b03808516939216917f482b97c53e48ffa324a976e2738053e9aff6eee04d8aac63b10e19411d869b8291a3600080546001600160a01b0319166001600160a01b0392909216919091179055565b60405163241b71bb60e01b81527f352d05fe3946dbe49277552ba941e744d5a96d9c60bc1ba0ea5f1d3ae000f7c860048201526000907f00000000000000000000000000000000000000000000000000000000000000006001600160a01b03169063241b71bb90602401602060405180830381865afa158015610761573d6000803e3d6000fd5b505050506040513d601f19601f8201168201806040525081019061078591906108e3565b15905090565b600080546001600160a01b03166107a457506000919050565b60005460405163bd02d0f560e01b8152600481018490526001600160a01b039091169063bd02d0f590602401602060405180830381865afa1580156107ed573d6000803e3d6000fd5b505050506040513d601f19601f82011682018060405250810190610811919061094c565b92915050565b6001600160a01b038116811461082c57600080fd5b50565b60006020828403121561084157600080fd5b813561084c81610817565b9392505050565b801515811461082c57600080fd5b6000806000806080858703121561087757600080fd5b843561088281610817565b935060208501359250604085013560ff8116811461089f57600080fd5b915060608501356108af81610853565b939692955090935050565b634e487b7160e01b600052601160045260246000fd5b80820180821115610811576108116108ba565b6000602082840312156108f557600080fd5b815161084c81610853565b81810381811115610811576108116108ba565b8082028115828204841417610811576108116108ba565b60008261094757634e487b7160e01b600052601260045260246000fd5b500490565b60006020828403121561095e57600080fd5b505191905056fea2646970667358221220dfedf17727fa160a27a239604d5cba165d94ce6ff8fac7ccc5873a9a67e7422964736f6c634300081e0033","linkReferences":{}},"methodIdentifiers":{"MODULE_ID()":"ed2f21f5","admin()":"f851a440","getPrice(address)":"41976e09","isOperational()":"cd905dff","registry()":"7b103999","safety()":"6e3f795a","setAdmin(address)":"704b6c02","setPriceMock(address,int256,uint8,bool)":"a33661c7","setRegistry(address)":"a91ee0dc"},"id":3}