{"abi":[{"type":"constructor","inputs":[{"name":"_admin","type":"address","internalType":"address"},{"name":"_safety","type":"address","internalType":"contract ISafetyAutomata"},{"name":"_registry","type":"address","internalType":"contract IParameterRegistry"}],"stateMutability":"nonpayable"},{"type":"function","name":"MODULE_ID","inputs":[],"outputs":[{"name":"","type":"bytes32","internalType":"bytes32"}],"stateMutability":"view"},{"type":"function","name":"admin","inputs":[],"outputs":[{"name":"","type":"address","internalType":"address"}],"stateMutability":"view"},{"type":"function","name":"getPrice","inputs":[{"name":"asset","type":"address","internalType":"address"}],"outputs":[{"name":"p","type":"tuple","internalType":"struct IOracleAggregator.Price","components":[{"name":"price","type":"int256","internalType":"int256"},{"name":"decimals","type":"uint8","internalType":"uint8"},{"name":"healthy","type":"bool","internalType":"bool"},{"name":"updatedAt","type":"uint256","internalType":"uint256"}]}],"stateMutability":"view"},{"type":"function","name":"isOperational","inputs":[],"outputs":[{"name":"","type":"bool","internalType":"bool"}],"stateMutability":"view"},{"type":"function","name":"registry","inputs":[],"outputs":[{"name":"","type":"address","internalType":"contract IParameterRegistry"}],"stateMutability":"view"},{"type":"function","name":"safety","inputs":[],"outputs":[{"name":"","type":"address","internalType":"contract ISafetyAutomata"}],"stateMutability":"view"},{"type":"function","name":"setAdmin","inputs":[{"name":"newAdmin","type":"address","internalType":"address"}],"outputs":[],"stateMutability":"nonpayable"},{"type":"function","name":"setPriceMock","inputs":[{"name":"asset","type":"address","internalType":"address"},{"name":"price","type":"int256","internalType":"int256"},{"name":"decimals","type":"uint8","internalType":"uint8"},{"name":"healthy","type":"bool","internalType":"bool"}],"outputs":[],"stateMutability":"nonpayable"},{"type":"function","name":"setRegistry","inputs":[{"name":"newRegistry","type":"address","internalType":"contract IParameterRegistry"}],"outputs":[],"stateMutability":"nonpayable"},{"type":"event","name":"AdminChanged","inputs":[{"name":"oldAdmin","type":"address","indexed":true,"internalType":"address"},{"name":"newAdmin","type":"address","indexed":true,"internalType":"address"}],"anonymous":false},{"type":"event","name":"OracleUpdated","inputs":[{"name":"asset","type":"address","indexed":true,"internalType":"address"},{"name":"price","type":"int256","indexed":false,"internalType":"int256"},{"name":"decimals","type":"uint8","indexed":false,"internalType":"uint8"},{"name":"healthy","type":"bool","indexed":false,"internalType":"bool"}],"anonymous":false},{"type":"event","name":"RegistryUpdated","inputs":[{"name":"oldRegistry","type":"address","indexed":true,"internalType":"address"},{"name":"newRegistry","type":"address","indexed":true,"internalType":"address"}],"anonymous":false},{"type":"error","name":"ACCESS_DENIED","inputs":[]},{"type":"error","name":"PAUSED","inputs":[]},{"type":"error","name":"ZERO_ADDRESS","inputs":[]}],"bytecode":{"object":"0x60a060405234801561001057600080fd5b506040516108c63803806108c683398101604081905261002f91610156565b6001600160a01b0383166100565760405163538ba4f960e01b815260040160405180910390fd5b6001600160a01b03821661007d5760405163538ba4f960e01b815260040160405180910390fd5b6001600160a01b0381166100a45760405163538ba4f960e01b815260040160405180910390fd5b600180546001600160a01b038086166001600160a01b0319928316811790935584811660805260008054918516919092161781556040517f7e644d79422f17c01e4894b5f4f588d331ebfa28653d42ae832dc59e38c9798f908290a36040516001600160a01b038216906000907f482b97c53e48ffa324a976e2738053e9aff6eee04d8aac63b10e19411d869b82908290a35050506101a3565b6001600160a01b038116811461015357600080fd5b50565b60008060006060848603121561016b57600080fd5b83516101768161013e565b60208501519093506101878161013e565b60408501519092506101988161013e565b809150509250925092565b6080516106fa6101cc600039600081816101650152818161035b015261058b01526106fa6000f3fe608060405234801561001057600080fd5b50600436106100935760003560e01c8063a33661c711610066578063a33661c7146101c7578063a91ee0dc146101da578063cd905dff146101ed578063ed2f21f514610205578063f851a4401461023a57600080fd5b806341976e09146100985780636e3f795a14610160578063704b6c021461019f5780637b103999146101b4575b600080fd5b61011f6100a636600461061c565b604080516080810182526000808252602082018190529181018290526060810191909152506001600160a01b0316600090815260026020818152604092839020835160808101855281548152600182015460ff808216948301949094526101009004909216151593820193909352910154606082015290565b60405161015791908151815260208083015160ff16908201526040808301511515908201526060918201519181019190915260800190565b60405180910390f35b6101877f000000000000000000000000000000000000000000000000000000000000000081565b6040516001600160a01b039091168152602001610157565b6101b26101ad36600461061c565b61024d565b005b600054610187906001600160a01b031681565b6101b26101d536600461064e565b6102fb565b6101b26101e836600461061c565b6104a6565b6101f5610553565b6040519015158152602001610157565b61022c7f352d05fe3946dbe49277552ba941e744d5a96d9c60bc1ba0ea5f1d3ae000f7c881565b604051908152602001610157565b600154610187906001600160a01b031681565b6001546001600160a01b03163314610278576040516395383ea160e01b815260040160405180910390fd5b6001600160a01b03811661029f5760405163538ba4f960e01b815260040160405180910390fd5b6001546040516001600160a01b038084169216907f7e644d79422f17c01e4894b5f4f588d331ebfa28653d42ae832dc59e38c9798f90600090a3600180546001600160a01b0319166001600160a01b0392909216919091179055565b6001546001600160a01b03163314610326576040516395383ea160e01b815260040160405180910390fd5b60405163241b71bb60e01b81527f352d05fe3946dbe49277552ba941e744d5a96d9c60bc1ba0ea5f1d3ae000f7c860048201527f00000000000000000000000000000000000000000000000000000000000000006001600160a01b03169063241b71bb90602401602060405180830381865afa1580156103aa573d6000803e3d6000fd5b505050506040513d601f19601f820116820180604052508101906103ce91906106a7565b156103ec57604051632a6ab56360e21b815260040160405180910390fd5b6040805160808101825284815260ff84811660208084018281528615158587018181524260608089019182526001600160a01b038e1660008181526002808952908c90209a518b55955160018b018054955115156101000261ffff1990961691909a1617939093179097555196909201959095558551898152918201929092529384019290925290917f78748115378c06eac2e990f6be833c37534266e21a40444ef3b9cd6debf1b01b910160405180910390a250505050565b6001546001600160a01b031633146104d1576040516395383ea160e01b815260040160405180910390fd5b6001600160a01b0381166104f85760405163538ba4f960e01b815260040160405180910390fd5b600080546040516001600160a01b03808516939216917f482b97c53e48ffa324a976e2738053e9aff6eee04d8aac63b10e19411d869b8291a3600080546001600160a01b0319166001600160a01b0392909216919091179055565b60405163241b71bb60e01b81527f352d05fe3946dbe49277552ba941e744d5a96d9c60bc1ba0ea5f1d3ae000f7c860048201526000907f00000000000000000000000000000000000000000000000000000000000000006001600160a01b03169063241b71bb90602401602060405180830381865afa1580156105da573d6000803e3d6000fd5b505050506040513d601f19601f820116820180604052508101906105fe91906106a7565b15905090565b6001600160a01b038116811461061957600080fd5b50565b60006020828403121561062e57600080fd5b813561063981610604565b9392505050565b801515811461061957600080fd5b6000806000806080858703121561066457600080fd5b843561066f81610604565b935060208501359250604085013560ff8116811461068c57600080fd5b9150606085013561069c81610640565b939692955090935050565b6000602082840312156106b957600080fd5b81516106398161064056fea2646970667358221220bf9a3ee0ed528d4b6f61723cf4b42396e670a3d1d0532a8d3519ed2006132cb064736f6c634300081e0033","linkReferences":{}},"methodIdentifiers":{"MODULE_ID()":"ed2f21f5","admin()":"f851a440","getPrice(address)":"41976e09","isOperational()":"cd905dff","registry()":"7b103999","safety()":"6e3f795a","setAdmin(address)":"704b6c02","setPriceMock(address,int256,uint8,bool)":"a33661c7","setRegistry(address)":"a91ee0dc"},"id":6}