{"abi":[{"type":"constructor","inputs":[{"name":"_admin","type":"address","internalType":"address"},{"name":"_minDelay","type":"uint256","internalType":"uint256"}],"stateMutability":"nonpayable"},{"type":"function","name":"admin","inputs":[],"outputs":[{"name":"","type":"address","internalType":"address"}],"stateMutability":"view"},{"type":"function","name":"cancel","inputs":[{"name":"opId","type":"bytes32","internalType":"bytes32"}],"outputs":[],"stateMutability":"nonpayable"},{"type":"function","name":"execute","inputs":[{"name":"opId","type":"bytes32","internalType":"bytes32"},{"name":"target","type":"address","internalType":"address"},{"name":"value","type":"uint256","internalType":"uint256"},{"name":"data","type":"bytes","internalType":"bytes"}],"outputs":[],"stateMutability":"payable"},{"type":"function","name":"minDelay","inputs":[],"outputs":[{"name":"","type":"uint256","internalType":"uint256"}],"stateMutability":"view"},{"type":"function","name":"queue","inputs":[{"name":"opId","type":"bytes32","internalType":"bytes32"},{"name":"target","type":"address","internalType":"address"},{"name":"value","type":"uint256","internalType":"uint256"},{"name":"data","type":"bytes","internalType":"bytes"},{"name":"eta","type":"uint256","internalType":"uint256"}],"outputs":[],"stateMutability":"nonpayable"},{"type":"function","name":"setAdmin","inputs":[{"name":"newAdmin","type":"address","internalType":"address"}],"outputs":[],"stateMutability":"nonpayable"},{"type":"function","name":"setMinDelay","inputs":[{"name":"newDelay","type":"uint256","internalType":"uint256"}],"outputs":[],"stateMutability":"nonpayable"},{"type":"event","name":"AdminChanged","inputs":[{"name":"oldAdmin","type":"address","indexed":true,"internalType":"address"},{"name":"newAdmin","type":"address","indexed":true,"internalType":"address"}],"anonymous":false},{"type":"event","name":"Canceled","inputs":[{"name":"opId","type":"bytes32","indexed":true,"internalType":"bytes32"}],"anonymous":false},{"type":"event","name":"Executed","inputs":[{"name":"opId","type":"bytes32","indexed":true,"internalType":"bytes32"},{"name":"target","type":"address","indexed":false,"internalType":"address"},{"name":"value","type":"uint256","indexed":false,"internalType":"uint256"},{"name":"data","type":"bytes","indexed":false,"internalType":"bytes"}],"anonymous":false},{"type":"event","name":"MinDelayUpdated","inputs":[{"name":"oldDelay","type":"uint256","indexed":false,"internalType":"uint256"},{"name":"newDelay","type":"uint256","indexed":false,"internalType":"uint256"}],"anonymous":false},{"type":"event","name":"Queued","inputs":[{"name":"opId","type":"bytes32","indexed":true,"internalType":"bytes32"},{"name":"target","type":"address","indexed":false,"internalType":"address"},{"name":"value","type":"uint256","indexed":false,"internalType":"uint256"},{"name":"data","type":"bytes","indexed":false,"internalType":"bytes"},{"name":"eta","type":"uint256","indexed":false,"internalType":"uint256"}],"anonymous":false},{"type":"error","name":"ACCESS_DENIED","inputs":[]},{"type":"error","name":"NOT_IMPLEMENTED","inputs":[]},{"type":"error","name":"ZERO_ADDRESS","inputs":[]}],"bytecode":{"object":"0x608060405234801561001057600080fd5b5060405161074238038061074283398101604081905261002f916100e4565b6001600160a01b0382166100565760405163538ba4f960e01b815260040160405180910390fd5b600080546001600160a01b0319166001600160a01b038416908117825560018390556040519091907f7e644d79422f17c01e4894b5f4f588d331ebfa28653d42ae832dc59e38c9798f908290a36040805160008152602081018390527f2077aa4cabbdf22e003752854fd58bb19dad1171bc2fa83a0fb6033421e17e7a910160405180910390a1505061011e565b600080604083850312156100f757600080fd5b82516001600160a01b038116811461010e57600080fd5b6020939093015192949293505050565b6106158061012d6000396000f3fe6080604052600436106100705760003560e01c8063c4d252f51161004e578063c4d252f5146100d7578063c63c4e9b146100f7578063f851a44014610120578063fce670fd1461015857600080fd5b8063704b6c021461007557806398709da214610097578063ba29482f146100b7575b600080fd5b34801561008157600080fd5b506100956100903660046103ee565b61016b565b005b3480156100a357600080fd5b506100956100b2366004610459565b610218565b3480156100c357600080fd5b506100956100d23660046104c9565b61028b565b3480156100e357600080fd5b506100956100f23660046104c9565b6102f7565b34801561010357600080fd5b5061010d60015481565b6040519081526020015b60405180910390f35b34801561012c57600080fd5b50600054610140906001600160a01b031681565b6040516001600160a01b039091168152602001610117565b6100956101663660046104e2565b610350565b6000546001600160a01b03163314610196576040516395383ea160e01b815260040160405180910390fd5b6001600160a01b0381166101bd5760405163538ba4f960e01b815260040160405180910390fd5b600080546040516001600160a01b03808516939216917f7e644d79422f17c01e4894b5f4f588d331ebfa28653d42ae832dc59e38c9798f91a3600080546001600160a01b0319166001600160a01b0392909216919091179055565b6000546001600160a01b03163314610243576040516395383ea160e01b815260040160405180910390fd5b857f8d6fedd41517ab865c3658696c50923b3493c8a93ffd016d919a599f03c7531b868686868660405161027b959493929190610573565b60405180910390a2505050505050565b6000546001600160a01b031633146102b6576040516395383ea160e01b815260040160405180910390fd5b60015460408051918252602082018390527f2077aa4cabbdf22e003752854fd58bb19dad1171bc2fa83a0fb6033421e17e7a910160405180910390a1600155565b6000546001600160a01b03163314610322576040516395383ea160e01b815260040160405180910390fd5b60405181907f134fdd648feeaf30251f0157f9624ef8608ff9a042aad6d13e73f35d21d3f88d90600090a250565b6000546001600160a01b0316331461037b576040516395383ea160e01b815260040160405180910390fd5b847f891620feea776cf69790ff4762cadfde7978845aa23ca09793211aab2a850c3f858585856040516103b194939291906105ad565b60405180910390a26040516343f6e4ab60e01b815260040160405180910390fd5b80356001600160a01b03811681146103e957600080fd5b919050565b60006020828403121561040057600080fd5b610409826103d2565b9392505050565b60008083601f84011261042257600080fd5b50813567ffffffffffffffff81111561043a57600080fd5b60208301915083602082850101111561045257600080fd5b9250929050565b60008060008060008060a0878903121561047257600080fd5b86359550610482602088016103d2565b945060408701359350606087013567ffffffffffffffff8111156104a557600080fd5b6104b189828a01610410565b979a9699509497949695608090950135949350505050565b6000602082840312156104db57600080fd5b5035919050565b6000806000806000608086880312156104fa57600080fd5b8535945061050a602087016103d2565b935060408601359250606086013567ffffffffffffffff81111561052d57600080fd5b61053988828901610410565b969995985093965092949392505050565b81835281816020850137506000828201602090810191909152601f909101601f19169091010190565b60018060a01b038616815284602082015260806040820152600061059b60808301858761054a565b90508260608301529695505050505050565b60018060a01b03851681528360208201526060604082015260006105d560608301848661054a565b969550505050505056fea26469706673582212206cfa6c796f46964895a679ef1bc59212f3756f6f6ca2de26510ad898992f560e64736f6c634300081e0033","linkReferences":{}},"methodIdentifiers":{"admin()":"f851a440","cancel(bytes32)":"c4d252f5","execute(bytes32,address,uint256,bytes)":"fce670fd","minDelay()":"c63c4e9b","queue(bytes32,address,uint256,bytes,uint256)":"98709da2","setAdmin(address)":"704b6c02","setMinDelay(uint256)":"ba29482f"},"id":2}