{"abi":[{"type":"function","name":"ping","inputs":[],"outputs":[{"name":"","type":"string","internalType":"string"}],"stateMutability":"pure"}],"bytecode":{"object":"0x6080604052348015600f57600080fd5b5060ee8061001e6000396000f3fe6080604052348015600f57600080fd5b506004361060285760003560e01c80635c36b18614602d575b600080fd5b6040805180820182526016815275477561726469616e4d6f6e69746f722061637469766560501b6020820152905160639190606c565b60405180910390f35b602081526000825180602084015260005b8181101560985760208186018101516040868401015201607d565b506000604082850101526040601f19601f8301168401019150509291505056fea264697066735822122063b6c1b98fb84adcf3fda2267b27807004ce7c08a3868155d7fa29cab78d63dd64736f6c634300081e0033","linkReferences":{}},"methodIdentifiers":{"ping()":"5c36b186"},"id":4}