{"abi":[{"type":"function","name":"status","inputs":[],"outputs":[{"name":"","type":"bool","internalType":"bool"}],"stateMutability":"pure"}],"bytecode":{"object":"0x6080604052348015600f57600080fd5b50607780601d6000396000f3fe6080604052348015600f57600080fd5b506004361060285760003560e01c8063200d2ed214602d575b600080fd5b604080516001815290519081900360200190f3fea26469706673582212205589ae6bc5d563d61a65af6def2dd3fa8651afba054e72ff5fe84f3d4837fa7564736f6c634300081e0033","linkReferences":{}},"methodIdentifiers":{"status()":"200d2ed2"},"id":9}