{"abi":[{"type":"constructor","inputs":[{"name":"admin","type":"address","internalType":"address"},{"name":"guardianSunsetTimestamp","type":"uint256","internalType":"uint256"}],"stateMutability":"nonpayable"},{"type":"function","name":"ADMIN_ROLE","inputs":[],"outputs":[{"name":"","type":"bytes32","internalType":"bytes32"}],"stateMutability":"view"},{"type":"function","name":"DAO_ROLE","inputs":[],"outputs":[{"name":"","type":"bytes32","internalType":"bytes32"}],"stateMutability":"view"},{"type":"function","name":"DEFAULT_ADMIN_ROLE","inputs":[],"outputs":[{"name":"","type":"bytes32","internalType":"bytes32"}],"stateMutability":"view"},{"type":"function","name":"GUARDIAN_ROLE","inputs":[],"outputs":[{"name":"","type":"bytes32","internalType":"bytes32"}],"stateMutability":"view"},{"type":"function","name":"getRoleAdmin","inputs":[{"name":"role","type":"bytes32","internalType":"bytes32"}],"outputs":[{"name":"","type":"bytes32","internalType":"bytes32"}],"stateMutability":"view"},{"type":"function","name":"grantGuardian","inputs":[{"name":"guardian","type":"address","internalType":"address"}],"outputs":[],"stateMutability":"nonpayable"},{"type":"function","name":"grantRole","inputs":[{"name":"role","type":"bytes32","internalType":"bytes32"},{"name":"account","type":"address","internalType":"address"}],"outputs":[],"stateMutability":"nonpayable"},{"type":"function","name":"guardianSunset","inputs":[],"outputs":[{"name":"","type":"uint256","internalType":"uint256"}],"stateMutability":"view"},{"type":"function","name":"hasRole","inputs":[{"name":"role","type":"bytes32","internalType":"bytes32"},{"name":"account","type":"address","internalType":"address"}],"outputs":[{"name":"","type":"bool","internalType":"bool"}],"stateMutability":"view"},{"type":"function","name":"isModuleEnabled","inputs":[{"name":"moduleId","type":"bytes32","internalType":"bytes32"}],"outputs":[{"name":"","type":"bool","internalType":"bool"}],"stateMutability":"view"},{"type":"function","name":"isPaused","inputs":[{"name":"moduleId","type":"bytes32","internalType":"bytes32"}],"outputs":[{"name":"","type":"bool","internalType":"bool"}],"stateMutability":"view"},{"type":"function","name":"pauseModule","inputs":[{"name":"moduleId","type":"bytes32","internalType":"bytes32"}],"outputs":[],"stateMutability":"nonpayable"},{"type":"function","name":"renounceRole","inputs":[{"name":"role","type":"bytes32","internalType":"bytes32"},{"name":"callerConfirmation","type":"address","internalType":"address"}],"outputs":[],"stateMutability":"nonpayable"},{"type":"function","name":"resumeModule","inputs":[{"name":"moduleId","type":"bytes32","internalType":"bytes32"}],"outputs":[],"stateMutability":"nonpayable"},{"type":"function","name":"revokeRole","inputs":[{"name":"role","type":"bytes32","internalType":"bytes32"},{"name":"account","type":"address","internalType":"address"}],"outputs":[],"stateMutability":"nonpayable"},{"type":"function","name":"supportsInterface","inputs":[{"name":"interfaceId","type":"bytes4","internalType":"bytes4"}],"outputs":[{"name":"","type":"bool","internalType":"bool"}],"stateMutability":"view"},{"type":"event","name":"Paused","inputs":[{"name":"moduleId","type":"bytes32","indexed":true,"internalType":"bytes32"},{"name":"by","type":"address","indexed":true,"internalType":"address"}],"anonymous":false},{"type":"event","name":"Resumed","inputs":[{"name":"moduleId","type":"bytes32","indexed":true,"internalType":"bytes32"},{"name":"by","type":"address","indexed":true,"internalType":"address"}],"anonymous":false},{"type":"event","name":"RoleAdminChanged","inputs":[{"name":"role","type":"bytes32","indexed":true,"internalType":"bytes32"},{"name":"previousAdminRole","type":"bytes32","indexed":true,"internalType":"bytes32"},{"name":"newAdminRole","type":"bytes32","indexed":true,"internalType":"bytes32"}],"anonymous":false},{"type":"event","name":"RoleGranted","inputs":[{"name":"role","type":"bytes32","indexed":true,"internalType":"bytes32"},{"name":"account","type":"address","indexed":true,"internalType":"address"},{"name":"sender","type":"address","indexed":true,"internalType":"address"}],"anonymous":false},{"type":"event","name":"RoleRevoked","inputs":[{"name":"role","type":"bytes32","indexed":true,"internalType":"bytes32"},{"name":"account","type":"address","indexed":true,"internalType":"address"},{"name":"sender","type":"address","indexed":true,"internalType":"address"}],"anonymous":false},{"type":"error","name":"AccessControlBadConfirmation","inputs":[]},{"type":"error","name":"AccessControlUnauthorizedAccount","inputs":[{"name":"account","type":"address","internalType":"address"},{"name":"neededRole","type":"bytes32","internalType":"bytes32"}]},{"type":"error","name":"GuardianExpired","inputs":[]}],"bytecode":{"object":"0x60a060405234801561001057600080fd5b506040516109e13803806109e183398101604081905261002f91610146565b61003a60008361009a565b506100657fa49807205ce4d355092ef5a8a18f56e8913cf4a201fbe287825b095693c217758361009a565b506100907f55435dd261a4b9b3364963f7738a7a662ad9c84396d64be3365284bb7f0a50418361009a565b5060805250610180565b6000828152602081815260408083206001600160a01b038516845290915281205460ff1661013c576000838152602081815260408083206001600160a01b03861684529091529020805460ff191660011790556100f43390565b6001600160a01b0316826001600160a01b0316847f2f8788117e7eff1d82e926ec794901d17c78024a50270940304540a733656f0d60405160405180910390a4506001610140565b5060005b92915050565b6000806040838503121561015957600080fd5b82516001600160a01b038116811461017057600080fd5b6020939093015192949293505050565b60805161083f6101a2600039600081816102620152610455015261083f6000f3fe608060405234801561001057600080fd5b50600436106101005760003560e01c8063816eda2011610097578063b6450b8d11610066578063b6450b8d14610239578063c5f62ca21461025d578063d547741f14610284578063e9c265181461029757600080fd5b8063816eda20146101f857806391d148541461020b57806394b1d2c01461021e578063a217fddf1461023157600080fd5b80632f2ff15d116100d35780632f2ff15d146101a857806336568abe146101bd5780636e518c49146101d057806375b238fc146101e357600080fd5b806301ffc9a714610105578063241b71bb1461012d578063248a9ca31461015057806324ea54f414610181575b600080fd5b61011861011336600461073c565b6102be565b60405190151581526020015b60405180910390f35b61011861013b36600461076d565b60009081526001602052604090205460ff1690565b61017361015e36600461076d565b60009081526020819052604090206001015490565b604051908152602001610124565b6101737f55435dd261a4b9b3364963f7738a7a662ad9c84396d64be3365284bb7f0a504181565b6101bb6101b63660046107a2565b6102f5565b005b6101bb6101cb3660046107a2565b610320565b6101bb6101de36600461076d565b610358565b6101736000805160206107ea83398151915281565b6101bb61020636600461076d565b610424565b6101186102193660046107a2565b610565565b6101bb61022c3660046107ce565b61058e565b610173600081565b61011861024736600461076d565b60009081526001602052604090205460ff161590565b6101737f000000000000000000000000000000000000000000000000000000000000000081565b6101bb6102923660046107a2565b6105d0565b6101737f3b5d4cc60d3ec3516ee8ae083bd60934f6eb2a6c54b1229985c41bfb092b260381565b60006001600160e01b03198216637965db0b60e01b14806102ef57506301ffc9a760e01b6001600160e01b03198316145b92915050565b600082815260208190526040902060010154610310816105f5565b61031a8383610602565b50505050565b6001600160a01b03811633146103495760405163334bd91960e11b815260040160405180910390fd5b6103538282610694565b505050565b6103706000805160206107ea83398151915233610565565b806103a057506103a07f3b5d4cc60d3ec3516ee8ae083bd60934f6eb2a6c54b1229985c41bfb092b260333610565565b6103e15760405162461bcd60e51b815260206004820152600d60248201526c1050d0d154d4d7d11153925151609a1b60448201526064015b60405180910390fd5b600081815260016020526040808220805460ff1916905551339183917f787eb09593d179f0cdc2ae5ad0d875ec614deffd8e52089d8429dc45932261ca9190a350565b61044e7f55435dd261a4b9b3364963f7738a7a662ad9c84396d64be3365284bb7f0a504133610565565b15610498577f000000000000000000000000000000000000000000000000000000000000000042106104935760405163e91d1a5f60e01b815260040160405180910390fd5b61051c565b6104b06000805160206107ea83398151915233610565565b806104e057506104e07f3b5d4cc60d3ec3516ee8ae083bd60934f6eb2a6c54b1229985c41bfb092b260333610565565b61051c5760405162461bcd60e51b815260206004820152600d60248201526c1050d0d154d4d7d11153925151609a1b60448201526064016103d8565b6000818152600160208190526040808320805460ff191690921790915551339183917f3744e75c880ad028c816826c1d28654b9ac6656a7fd918d5057b186e145972849190a350565b6000918252602082815260408084206001600160a01b0393909316845291905290205460ff1690565b6000805160206107ea8339815191526105a6816105f5565b6103537f55435dd261a4b9b3364963f7738a7a662ad9c84396d64be3365284bb7f0a504183610602565b6000828152602081905260409020600101546105eb816105f5565b61031a8383610694565b6105ff81336106ff565b50565b600061060e8383610565565b61068c576000838152602081815260408083206001600160a01b03861684529091529020805460ff191660011790556106443390565b6001600160a01b0316826001600160a01b0316847f2f8788117e7eff1d82e926ec794901d17c78024a50270940304540a733656f0d60405160405180910390a45060016102ef565b5060006102ef565b60006106a08383610565565b1561068c576000838152602081815260408083206001600160a01b0386168085529252808320805460ff1916905551339286917ff6391f5c32d9c69d2a47ea670b442974b53935d1edc7fd64eb21e047a839171b9190a45060016102ef565b6107098282610565565b6107385760405163e2517d3f60e01b81526001600160a01b0382166004820152602481018390526044016103d8565b5050565b60006020828403121561074e57600080fd5b81356001600160e01b03198116811461076657600080fd5b9392505050565b60006020828403121561077f57600080fd5b5035919050565b80356001600160a01b038116811461079d57600080fd5b919050565b600080604083850312156107b557600080fd5b823591506107c560208401610786565b90509250929050565b6000602082840312156107e057600080fd5b6107668261078656fea49807205ce4d355092ef5a8a18f56e8913cf4a201fbe287825b095693c21775a26469706673582212203720b280d85af6bfb5ce6b08e52f3ccc3c9e98328239ed9991b24b055b053cf964736f6c634300081e0033","linkReferences":{}},"methodIdentifiers":{"ADMIN_ROLE()":"75b238fc","DAO_ROLE()":"e9c26518","DEFAULT_ADMIN_ROLE()":"a217fddf","GUARDIAN_ROLE()":"24ea54f4","getRoleAdmin(bytes32)":"248a9ca3","grantGuardian(address)":"94b1d2c0","grantRole(bytes32,address)":"2f2ff15d","guardianSunset()":"c5f62ca2","hasRole(bytes32,address)":"91d14854","isModuleEnabled(bytes32)":"b6450b8d","isPaused(bytes32)":"241b71bb","pauseModule(bytes32)":"816eda20","renounceRole(bytes32,address)":"36568abe","resumeModule(bytes32)":"6e518c49","revokeRole(bytes32,address)":"d547741f","supportsInterface(bytes4)":"01ffc9a7"},"id":10}