{"abi":[{"type":"constructor","inputs":[{"name":"admin","type":"address","internalType":"address"},{"name":"guardianSunsetTimestamp","type":"uint256","internalType":"uint256"}],"stateMutability":"nonpayable"},{"type":"function","name":"ADMIN_ROLE","inputs":[],"outputs":[{"name":"","type":"bytes32","internalType":"bytes32"}],"stateMutability":"view"},{"type":"function","name":"DAO_ROLE","inputs":[],"outputs":[{"name":"","type":"bytes32","internalType":"bytes32"}],"stateMutability":"view"},{"type":"function","name":"DEFAULT_ADMIN_ROLE","inputs":[],"outputs":[{"name":"","type":"bytes32","internalType":"bytes32"}],"stateMutability":"view"},{"type":"function","name":"GUARDIAN_ROLE","inputs":[],"outputs":[{"name":"","type":"bytes32","internalType":"bytes32"}],"stateMutability":"view"},{"type":"function","name":"getRoleAdmin","inputs":[{"name":"role","type":"bytes32","internalType":"bytes32"}],"outputs":[{"name":"","type":"bytes32","internalType":"bytes32"}],"stateMutability":"view"},{"type":"function","name":"grantRole","inputs":[{"name":"role","type":"bytes32","internalType":"bytes32"},{"name":"account","type":"address","internalType":"address"}],"outputs":[],"stateMutability":"nonpayable"},{"type":"function","name":"guardianSunset","inputs":[],"outputs":[{"name":"","type":"uint256","internalType":"uint256"}],"stateMutability":"view"},{"type":"function","name":"hasRole","inputs":[{"name":"role","type":"bytes32","internalType":"bytes32"},{"name":"account","type":"address","internalType":"address"}],"outputs":[{"name":"","type":"bool","internalType":"bool"}],"stateMutability":"view"},{"type":"function","name":"isModuleEnabled","inputs":[{"name":"moduleId","type":"bytes32","internalType":"bytes32"}],"outputs":[{"name":"","type":"bool","internalType":"bool"}],"stateMutability":"view"},{"type":"function","name":"isPaused","inputs":[{"name":"moduleId","type":"bytes32","internalType":"bytes32"}],"outputs":[{"name":"","type":"bool","internalType":"bool"}],"stateMutability":"view"},{"type":"function","name":"pauseModule","inputs":[{"name":"moduleId","type":"bytes32","internalType":"bytes32"}],"outputs":[],"stateMutability":"nonpayable"},{"type":"function","name":"renounceRole","inputs":[{"name":"role","type":"bytes32","internalType":"bytes32"},{"name":"callerConfirmation","type":"address","internalType":"address"}],"outputs":[],"stateMutability":"nonpayable"},{"type":"function","name":"resumeModule","inputs":[{"name":"moduleId","type":"bytes32","internalType":"bytes32"}],"outputs":[],"stateMutability":"nonpayable"},{"type":"function","name":"revokeRole","inputs":[{"name":"role","type":"bytes32","internalType":"bytes32"},{"name":"account","type":"address","internalType":"address"}],"outputs":[],"stateMutability":"nonpayable"},{"type":"function","name":"supportsInterface","inputs":[{"name":"interfaceId","type":"bytes4","internalType":"bytes4"}],"outputs":[{"name":"","type":"bool","internalType":"bool"}],"stateMutability":"view"},{"type":"event","name":"Paused","inputs":[{"name":"moduleId","type":"bytes32","indexed":true,"internalType":"bytes32"},{"name":"by","type":"address","indexed":true,"internalType":"address"}],"anonymous":false},{"type":"event","name":"Resumed","inputs":[{"name":"moduleId","type":"bytes32","indexed":true,"internalType":"bytes32"},{"name":"by","type":"address","indexed":true,"internalType":"address"}],"anonymous":false},{"type":"event","name":"RoleAdminChanged","inputs":[{"name":"role","type":"bytes32","indexed":true,"internalType":"bytes32"},{"name":"previousAdminRole","type":"bytes32","indexed":true,"internalType":"bytes32"},{"name":"newAdminRole","type":"bytes32","indexed":true,"internalType":"bytes32"}],"anonymous":false},{"type":"event","name":"RoleGranted","inputs":[{"name":"role","type":"bytes32","indexed":true,"internalType":"bytes32"},{"name":"account","type":"address","indexed":true,"internalType":"address"},{"name":"sender","type":"address","indexed":true,"internalType":"address"}],"anonymous":false},{"type":"event","name":"RoleRevoked","inputs":[{"name":"role","type":"bytes32","indexed":true,"internalType":"bytes32"},{"name":"account","type":"address","indexed":true,"internalType":"address"},{"name":"sender","type":"address","indexed":true,"internalType":"address"}],"anonymous":false},{"type":"error","name":"AccessControlBadConfirmation","inputs":[]},{"type":"error","name":"AccessControlUnauthorizedAccount","inputs":[{"name":"account","type":"address","internalType":"address"},{"name":"neededRole","type":"bytes32","internalType":"bytes32"}]},{"type":"error","name":"GuardianExpired","inputs":[]}],"bytecode":{"object":"0x60a060405234801561001057600080fd5b5060405161094538038061094583398101604081905261002f9161011b565b61003a60008361006f565b506100657fa49807205ce4d355092ef5a8a18f56e8913cf4a201fbe287825b095693c217758361006f565b5060805250610155565b6000828152602081815260408083206001600160a01b038516845290915281205460ff16610111576000838152602081815260408083206001600160a01b03861684529091529020805460ff191660011790556100c93390565b6001600160a01b0316826001600160a01b0316847f2f8788117e7eff1d82e926ec794901d17c78024a50270940304540a733656f0d60405160405180910390a4506001610115565b5060005b92915050565b6000806040838503121561012e57600080fd5b82516001600160a01b038116811461014557600080fd5b6020939093015192949293505050565b6080516107ce61017760003960008181610256015261045b01526107ce6000f3fe608060405234801561001057600080fd5b50600436106100f55760003560e01c806375b238fc11610097578063b6450b8d11610066578063b6450b8d1461022d578063c5f62ca214610251578063d547741f14610278578063e9c265181461028b57600080fd5b806375b238fc146101d8578063816eda20146101ff57806391d1485414610212578063a217fddf1461022557600080fd5b806324ea54f4116100d357806324ea54f4146101765780632f2ff15d1461019d57806336568abe146101b25780636e518c49146101c557600080fd5b806301ffc9a7146100fa578063241b71bb14610122578063248a9ca314610145575b600080fd5b61010d610108366004610712565b6102b2565b60405190151581526020015b60405180910390f35b61010d610130366004610743565b60009081526001602052604090205460ff1690565b610168610153366004610743565b60009081526020819052604090206001015490565b604051908152602001610119565b6101687f55435dd261a4b9b3364963f7738a7a662ad9c84396d64be3365284bb7f0a504181565b6101b06101ab36600461075c565b6102e9565b005b6101b06101c036600461075c565b610314565b6101b06101d3366004610743565b61034c565b6101687fa49807205ce4d355092ef5a8a18f56e8913cf4a201fbe287825b095693c2177581565b6101b061020d366004610743565b61042a565b61010d61022036600461075c565b61057d565b610168600081565b61010d61023b366004610743565b60009081526001602052604090205460ff161590565b6101687f000000000000000000000000000000000000000000000000000000000000000081565b6101b061028636600461075c565b6105a6565b6101687f3b5d4cc60d3ec3516ee8ae083bd60934f6eb2a6c54b1229985c41bfb092b260381565b60006001600160e01b03198216637965db0b60e01b14806102e357506301ffc9a760e01b6001600160e01b03198316145b92915050565b600082815260208190526040902060010154610304816105cb565b61030e83836105d8565b50505050565b6001600160a01b038116331461033d5760405163334bd91960e11b815260040160405180910390fd5b610347828261066a565b505050565b6103767fa49807205ce4d355092ef5a8a18f56e8913cf4a201fbe287825b095693c217753361057d565b806103a657506103a67f3b5d4cc60d3ec3516ee8ae083bd60934f6eb2a6c54b1229985c41bfb092b26033361057d565b6103e75760405162461bcd60e51b815260206004820152600d60248201526c1050d0d154d4d7d11153925151609a1b60448201526064015b60405180910390fd5b600081815260016020526040808220805460ff1916905551339183917f787eb09593d179f0cdc2ae5ad0d875ec614deffd8e52089d8429dc45932261ca9190a350565b6104547f55435dd261a4b9b3364963f7738a7a662ad9c84396d64be3365284bb7f0a50413361057d565b1561049e577f000000000000000000000000000000000000000000000000000000000000000042106104995760405163e91d1a5f60e01b815260040160405180910390fd5b610534565b6104c87fa49807205ce4d355092ef5a8a18f56e8913cf4a201fbe287825b095693c217753361057d565b806104f857506104f87f3b5d4cc60d3ec3516ee8ae083bd60934f6eb2a6c54b1229985c41bfb092b26033361057d565b6105345760405162461bcd60e51b815260206004820152600d60248201526c1050d0d154d4d7d11153925151609a1b60448201526064016103de565b6000818152600160208190526040808320805460ff191690921790915551339183917f3744e75c880ad028c816826c1d28654b9ac6656a7fd918d5057b186e145972849190a350565b6000918252602082815260408084206001600160a01b0393909316845291905290205460ff1690565b6000828152602081905260409020600101546105c1816105cb565b61030e838361066a565b6105d581336106d5565b50565b60006105e4838361057d565b610662576000838152602081815260408083206001600160a01b03861684529091529020805460ff1916600117905561061a3390565b6001600160a01b0316826001600160a01b0316847f2f8788117e7eff1d82e926ec794901d17c78024a50270940304540a733656f0d60405160405180910390a45060016102e3565b5060006102e3565b6000610676838361057d565b15610662576000838152602081815260408083206001600160a01b0386168085529252808320805460ff1916905551339286917ff6391f5c32d9c69d2a47ea670b442974b53935d1edc7fd64eb21e047a839171b9190a45060016102e3565b6106df828261057d565b61070e5760405163e2517d3f60e01b81526001600160a01b0382166004820152602481018390526044016103de565b5050565b60006020828403121561072457600080fd5b81356001600160e01b03198116811461073c57600080fd5b9392505050565b60006020828403121561075557600080fd5b5035919050565b6000806040838503121561076f57600080fd5b8235915060208301356001600160a01b038116811461078d57600080fd5b80915050925092905056fea26469706673582212202d673497d45c9def7f492524b3b7ed2583c180b0613eaa4da0146c0429f2cf4e64736f6c634300081e0033","linkReferences":{}},"methodIdentifiers":{"ADMIN_ROLE()":"75b238fc","DAO_ROLE()":"e9c26518","DEFAULT_ADMIN_ROLE()":"a217fddf","GUARDIAN_ROLE()":"24ea54f4","getRoleAdmin(bytes32)":"248a9ca3","grantRole(bytes32,address)":"2f2ff15d","guardianSunset()":"c5f62ca2","hasRole(bytes32,address)":"91d14854","isModuleEnabled(bytes32)":"b6450b8d","isPaused(bytes32)":"241b71bb","pauseModule(bytes32)":"816eda20","renounceRole(bytes32,address)":"36568abe","resumeModule(bytes32)":"6e518c49","revokeRole(bytes32,address)":"d547741f","supportsInterface(bytes4)":"01ffc9a7"},"id":0}