{"abi":[{"type":"constructor","inputs":[{"name":"_admin","type":"address","internalType":"address"}],"stateMutability":"nonpayable"},{"type":"function","name":"admin","inputs":[],"outputs":[{"name":"","type":"address","internalType":"address"}],"stateMutability":"view"},{"type":"function","name":"getAddress","inputs":[{"name":"key","type":"bytes32","internalType":"bytes32"}],"outputs":[{"name":"","type":"address","internalType":"address"}],"stateMutability":"view"},{"type":"function","name":"getBool","inputs":[{"name":"key","type":"bytes32","internalType":"bytes32"}],"outputs":[{"name":"","type":"bool","internalType":"bool"}],"stateMutability":"view"},{"type":"function","name":"getUint","inputs":[{"name":"key","type":"bytes32","internalType":"bytes32"}],"outputs":[{"name":"","type":"uint256","internalType":"uint256"}],"stateMutability":"view"},{"type":"function","name":"setAddress","inputs":[{"name":"key","type":"bytes32","internalType":"bytes32"},{"name":"value","type":"address","internalType":"address"}],"outputs":[],"stateMutability":"nonpayable"},{"type":"function","name":"setAdmin","inputs":[{"name":"newAdmin","type":"address","internalType":"address"}],"outputs":[],"stateMutability":"nonpayable"},{"type":"function","name":"setBool","inputs":[{"name":"key","type":"bytes32","internalType":"bytes32"},{"name":"value","type":"bool","internalType":"bool"}],"outputs":[],"stateMutability":"nonpayable"},{"type":"function","name":"setUint","inputs":[{"name":"key","type":"bytes32","internalType":"bytes32"},{"name":"value","type":"uint256","internalType":"uint256"}],"outputs":[],"stateMutability":"nonpayable"},{"type":"event","name":"AddressSet","inputs":[{"name":"key","type":"bytes32","indexed":true,"internalType":"bytes32"},{"name":"value","type":"address","indexed":false,"internalType":"address"}],"anonymous":false},{"type":"event","name":"AdminChanged","inputs":[{"name":"oldAdmin","type":"address","indexed":true,"internalType":"address"},{"name":"newAdmin","type":"address","indexed":true,"internalType":"address"}],"anonymous":false},{"type":"event","name":"BoolSet","inputs":[{"name":"key","type":"bytes32","indexed":true,"internalType":"bytes32"},{"name":"value","type":"bool","indexed":false,"internalType":"bool"}],"anonymous":false},{"type":"event","name":"UintSet","inputs":[{"name":"key","type":"bytes32","indexed":true,"internalType":"bytes32"},{"name":"value","type":"uint256","indexed":false,"internalType":"uint256"}],"anonymous":false},{"type":"error","name":"ACCESS_DENIED","inputs":[]},{"type":"error","name":"ZERO_ADDRESS","inputs":[]}],"bytecode":{"object":"0x6080604052348015600f57600080fd5b506040516105a83803806105a8833981016040819052602c91609f565b6001600160a01b03811660525760405163538ba4f960e01b815260040160405180910390fd5b600080546001600160a01b0319166001600160a01b03831690811782556040519091907f7e644d79422f17c01e4894b5f4f588d331ebfa28653d42ae832dc59e38c9798f908290a35060cd565b60006020828403121560b057600080fd5b81516001600160a01b038116811460c657600080fd5b9392505050565b6104cc806100dc6000396000f3fe608060405234801561001057600080fd5b50600436106100885760003560e01c8063bd02d0f51161005b578063bd02d0f51461012e578063ca446dd91461015c578063e2a4853a1461016f578063f851a4401461018257600080fd5b806321f8a7211461008d578063704b6c02146100d35780637ae1cfca146100e8578063abfdcced1461011b575b600080fd5b6100b661009b3660046103bc565b6000908152600260205260409020546001600160a01b031690565b6040516001600160a01b0390911681526020015b60405180910390f35b6100e66100e13660046103f1565b610195565b005b61010b6100f63660046103bc565b60009081526003602052604090205460ff1690565b60405190151581526020016100ca565b6100e6610129366004610413565b610242565b61014e61013c3660046103bc565b60009081526001602052604090205490565b6040519081526020016100ca565b6100e661016a366004610448565b6102c4565b6100e661017d366004610474565b61034c565b6000546100b6906001600160a01b031681565b6000546001600160a01b031633146101c0576040516395383ea160e01b815260040160405180910390fd5b6001600160a01b0381166101e75760405163538ba4f960e01b815260040160405180910390fd5b600080546040516001600160a01b03808516939216917f7e644d79422f17c01e4894b5f4f588d331ebfa28653d42ae832dc59e38c9798f91a3600080546001600160a01b0319166001600160a01b0392909216919091179055565b6000546001600160a01b0316331461026d576040516395383ea160e01b815260040160405180910390fd5b600082815260036020908152604091829020805460ff1916841515908117909155915191825283917e31697d8ae724df6411ee2343e3ae265725e43ccce29cc2f0ccb56d6ccbd81091015b60405180910390a25050565b6000546001600160a01b031633146102ef576040516395383ea160e01b815260040160405180910390fd5b60008281526002602090815260409182902080546001600160a01b0319166001600160a01b038516908117909155915191825283917fb37614c7d254ea8d16eb81fa11dddaeb266aa8ba4917980859c7740aff30c69191016102b8565b6000546001600160a01b03163314610377576040516395383ea160e01b815260040160405180910390fd5b600082815260016020526040908190208290555182907fdfe633a6a8d59fad9066cdc5e822206790f068f0807e428f42ae5c43e1c165ff906102b89084815260200190565b6000602082840312156103ce57600080fd5b5035919050565b80356001600160a01b03811681146103ec57600080fd5b919050565b60006020828403121561040357600080fd5b61040c826103d5565b9392505050565b6000806040838503121561042657600080fd5b823591506020830135801515811461043d57600080fd5b809150509250929050565b6000806040838503121561045b57600080fd5b8235915061046b602084016103d5565b90509250929050565b6000806040838503121561048757600080fd5b5050803592602090910135915056fea2646970667358221220e981e77aeaf1a21ec3a9b89410221d9be46385a1027c4e7a73ff54769e2bfba264736f6c634300081e0033","linkReferences":{}},"methodIdentifiers":{"admin()":"f851a440","getAddress(bytes32)":"21f8a721","getBool(bytes32)":"7ae1cfca","getUint(bytes32)":"bd02d0f5","setAddress(bytes32,address)":"ca446dd9","setAdmin(address)":"704b6c02","setBool(bytes32,bool)":"abfdcced","setUint(bytes32,uint256)":"e2a4853a"},"id":7}