{"abi":[{"type":"function","name":"getPriceWAD","inputs":[{"name":"","type":"address","internalType":"address"}],"outputs":[{"name":"","type":"uint256","internalType":"uint256"},{"name":"","type":"uint256","internalType":"uint256"}],"stateMutability":"view"},{"type":"function","name":"lastUpdated","inputs":[],"outputs":[{"name":"","type":"uint256","internalType":"uint256"}],"stateMutability":"view"},{"type":"function","name":"priceWAD","inputs":[],"outputs":[{"name":"","type":"uint256","internalType":"uint256"}],"stateMutability":"view"},{"type":"function","name":"setPrice","inputs":[{"name":"p","type":"uint256","internalType":"uint256"}],"outputs":[],"stateMutability":"nonpayable"},{"type":"function","name":"setTimestamp","inputs":[{"name":"t","type":"uint256","internalType":"uint256"}],"outputs":[],"stateMutability":"nonpayable"}],"bytecode":{"object":"0x6080604052670de0b6b3a764000060005542600155348015601f57600080fd5b506101568061002f6000396000f3fe608060405234801561001057600080fd5b50600436106100575760003560e01c806301c57b1a1461005c57806366f500c21461008f57806391b7f5ed146100a6578063a0a2b573146100bb578063d0b06f5d146100ce575b600080fd5b61007561006a3660046100d7565b506000546001549091565b604080519283526020830191909152015b60405180910390f35b61009860005481565b604051908152602001610086565b6100b96100b4366004610107565b600055565b005b6100b96100c9366004610107565b600155565b61009860015481565b6000602082840312156100e957600080fd5b81356001600160a01b038116811461010057600080fd5b9392505050565b60006020828403121561011957600080fd5b503591905056fea2646970667358221220a6ce3d7d5db9536bad186174f84c0a86856ab68255263700b75d3d87df6fa33d64736f6c634300081e0033","linkReferences":{}},"methodIdentifiers":{"getPriceWAD(address)":"01c57b1a","lastUpdated()":"d0b06f5d","priceWAD()":"66f500c2","setPrice(uint256)":"91b7f5ed","setTimestamp(uint256)":"a0a2b573"},"id":41}