{"abi":[{"type":"function","name":"getPrice","inputs":[{"name":"","type":"address","internalType":"address"}],"outputs":[{"name":"p","type":"tuple","internalType":"struct IOracleAggregator.Price","components":[{"name":"price","type":"int256","internalType":"int256"},{"name":"decimals","type":"uint8","internalType":"uint8"},{"name":"healthy","type":"bool","internalType":"bool"},{"name":"updatedAt","type":"uint256","internalType":"uint256"}]}],"stateMutability":"view"},{"type":"function","name":"isOperational","inputs":[],"outputs":[{"name":"","type":"bool","internalType":"bool"}],"stateMutability":"view"},{"type":"function","name":"setPrice","inputs":[{"name":"price","type":"int256","internalType":"int256"},{"name":"decimals","type":"uint8","internalType":"uint8"},{"name":"healthy","type":"bool","internalType":"bool"}],"outputs":[],"stateMutability":"nonpayable"}],"bytecode":{"object":"0x6080604052348015600f57600080fd5b506102208061001f6000396000f3fe608060405234801561001057600080fd5b50600436106100415760003560e01c806341976e09146100465780638d40ab5c146100f2578063cd905dff14610152575b600080fd5b6100b161005436600461016d565b604080516080810182526000808252602082018190529181018290526060810191909152505060408051608081018252600054815260015460ff808216602084015261010090910416151591810191909152600254606082015290565b6040516100e991908151815260208083015160ff16908201526040808301511515908201526060918201519181019190915260800190565b60405180910390f35b61015061010036600461019d565b6040805160808101825284815260ff93909316602084018190529115159083018190524260609093018390526000939093556001805461ffff191690911761010090930292909217909155600255565b005b600154610100900460ff1660405190151581526020016100e9565b60006020828403121561017f57600080fd5b81356001600160a01b038116811461019657600080fd5b9392505050565b6000806000606084860312156101b257600080fd5b83359250602084013560ff811681146101ca57600080fd5b9150604084013580151581146101df57600080fd5b80915050925092509256fea2646970667358221220168405c7ac7f2375890129ac45b0ccaca926703e466735e84220c82568fe5f8b64736f6c634300081e0033","linkReferences":{}},"methodIdentifiers":{"getPrice(address)":"41976e09","isOperational()":"cd905dff","setPrice(int256,uint8,bool)":"8d40ab5c"},"id":14}