{"abi":[{"type":"function","name":"isPaused","inputs":[],"outputs":[{"name":"","type":"bool","internalType":"bool"}],"stateMutability":"view"},{"type":"function","name":"pause","inputs":[],"outputs":[],"stateMutability":"nonpayable"},{"type":"function","name":"paused","inputs":[],"outputs":[{"name":"","type":"bool","internalType":"bool"}],"stateMutability":"view"}],"bytecode":{"object":"0x6080604052348015600f57600080fd5b5060b480601d6000396000f3fe6080604052348015600f57600080fd5b5060043610603c5760003560e01c80635c975abb1460415780638456cb59146061578063b187bd26146074575b600080fd5b600054604d9060ff1681565b604051901515815260200160405180910390f35b60726000805460ff19166001179055565b005b60005460ff16604d56fea2646970667358221220623bb2b8fcefa9252678c390dba246841234892a2236c08d9b921c65d5a18eb964736f6c634300081e0033","linkReferences":{}},"methodIdentifiers":{"isPaused()":"b187bd26","pause()":"8456cb59","paused()":"5c975abb"},"id":47}