{"abi":[{"type":"function","name":"quoteFrom1kUSD","inputs":[{"name":"","type":"address","internalType":"address"},{"name":"amountIn1k","type":"uint256","internalType":"uint256"},{"name":"feeBps","type":"uint16","internalType":"uint16"},{"name":"tokenOutDecimals","type":"uint8","internalType":"uint8"}],"outputs":[{"name":"q","type":"tuple","internalType":"struct IPSM.QuoteOut","components":[{"name":"grossOut","type":"uint256","internalType":"uint256"},{"name":"fee","type":"uint256","internalType":"uint256"},{"name":"netOut","type":"uint256","internalType":"uint256"},{"name":"outDecimals","type":"uint8","internalType":"uint8"}]}],"stateMutability":"view"},{"type":"function","name":"quoteTo1kUSD","inputs":[{"name":"","type":"address","internalType":"address"},{"name":"amountIn","type":"uint256","internalType":"uint256"},{"name":"feeBps","type":"uint16","internalType":"uint16"},{"name":"","type":"uint8","internalType":"uint8"}],"outputs":[{"name":"q","type":"tuple","internalType":"struct IPSM.QuoteOut","components":[{"name":"grossOut","type":"uint256","internalType":"uint256"},{"name":"fee","type":"uint256","internalType":"uint256"},{"name":"netOut","type":"uint256","internalType":"uint256"},{"name":"outDecimals","type":"uint8","internalType":"uint8"}]}],"stateMutability":"view"},{"type":"function","name":"swapFrom1kUSD","inputs":[{"name":"tokenOut","type":"address","internalType":"address"},{"name":"amountIn1k","type":"uint256","internalType":"uint256"},{"name":"","type":"address","internalType":"address"},{"name":"","type":"uint256","internalType":"uint256"},{"name":"","type":"uint256","internalType":"uint256"}],"outputs":[{"name":"netOut","type":"uint256","internalType":"uint256"}],"stateMutability":"nonpayable"},{"type":"function","name":"swapTo1kUSD","inputs":[{"name":"tokenIn","type":"address","internalType":"address"},{"name":"amountIn","type":"uint256","internalType":"uint256"},{"name":"","type":"address","internalType":"address"},{"name":"","type":"uint256","internalType":"uint256"},{"name":"","type":"uint256","internalType":"uint256"}],"outputs":[{"name":"netOut","type":"uint256","internalType":"uint256"}],"stateMutability":"nonpayable"},{"type":"event","name":"FeeAccrued","inputs":[{"name":"asset","type":"address","indexed":true,"internalType":"address"},{"name":"amount","type":"uint256","indexed":false,"internalType":"uint256"}],"anonymous":false},{"type":"event","name":"SwapFrom1kUSD","inputs":[{"name":"user","type":"address","indexed":true,"internalType":"address"},{"name":"tokenOut","type":"address","indexed":false,"internalType":"address"},{"name":"amountIn","type":"uint256","indexed":false,"internalType":"uint256"},{"name":"fee","type":"uint256","indexed":false,"internalType":"uint256"},{"name":"netOut","type":"uint256","indexed":false,"internalType":"uint256"},{"name":"ts","type":"uint256","indexed":false,"internalType":"uint256"}],"anonymous":false},{"type":"event","name":"SwapTo1kUSD","inputs":[{"name":"user","type":"address","indexed":true,"internalType":"address"},{"name":"tokenIn","type":"address","indexed":false,"internalType":"address"},{"name":"amountIn","type":"uint256","indexed":false,"internalType":"uint256"},{"name":"fee","type":"uint256","indexed":false,"internalType":"uint256"},{"name":"netOut","type":"uint256","indexed":false,"internalType":"uint256"},{"name":"ts","type":"uint256","indexed":false,"internalType":"uint256"}],"anonymous":false},{"type":"error","name":"ACCESS_DENIED","inputs":[]},{"type":"error","name":"CAP_EXCEEDED","inputs":[]},{"type":"error","name":"DEVIATION_EXCEEDED","inputs":[]},{"type":"error","name":"INSUFFICIENT_LIQUIDITY","inputs":[]},{"type":"error","name":"ORACLE_STALE","inputs":[]},{"type":"error","name":"ORACLE_UNHEALTHY","inputs":[]},{"type":"error","name":"PAUSED","inputs":[]},{"type":"error","name":"SLIPPAGE","inputs":[]},{"type":"error","name":"UNSUPPORTED_ASSET","inputs":[]},{"type":"error","name":"ZERO_AMOUNT","inputs":[]}],"bytecode":{"object":"0x6080604052348015600f57600080fd5b506104668061001f6000396000f3fe608060405234801561001057600080fd5b506004361061004c5760003560e01c806334f98bde146100515780638318c76d1461007757806394c5a3781461008a578063facf40c8146100d3575b600080fd5b61006461005f36600461031c565b6100e6565b6040519081526020015b60405180910390f35b61006461008536600461031c565b610175565b61009d61009836600461036a565b6101f5565b60405161006e919081518152602080830151908201526040808301519082015260609182015160ff169181019190915260800190565b61009d6100e136600461036a565b61027b565b600080806127106100f782896103de565b61010191906103fb565b905061010d818861041d565b604080516001600160a01b038b168152602081018a90529081018390526060810182905242608082015290935033907f658d4e439126bca4a27d834c36c73df99a10c1d39e2c439bd54c2223632f95ba9060a0015b60405180910390a2505095945050505050565b6000808061271061018682896103de565b61019091906103fb565b905061019c818861041d565b604080516001600160a01b038b168152602081018a90529081018390526060810182905242608082015290935033907fc32bc6394da23465a544c4df789da1aadd72beb16a566d844ff490d78ec027799060a001610162565b6102236040518060800160405280600081526020016000815260200160008152602001600060ff1681525090565b600061271061023661ffff8616876103de565b61024091906103fb565b9050600061024e828761041d565b60408051608081018252978852602088019390935291860191909152505060126060840152509092915050565b6102a96040518060800160405280600081526020016000815260200160008152602001600060ff1681525090565b60006127106102bc61ffff8616876103de565b6102c691906103fb565b905060006102d4828761041d565b60408051608081018252978852602088019390935291860191909152505060ff16606083015250919050565b80356001600160a01b038116811461031757600080fd5b919050565b600080600080600060a0868803121561033457600080fd5b61033d86610300565b94506020860135935061035260408701610300565b94979396509394606081013594506080013592915050565b6000806000806080858703121561038057600080fd5b61038985610300565b935060208501359250604085013561ffff811681146103a757600080fd5b9150606085013560ff811681146103bd57600080fd5b939692955090935050565b634e487b7160e01b600052601160045260246000fd5b80820281158282048414176103f5576103f56103c8565b92915050565b60008261041857634e487b7160e01b600052601260045260246000fd5b500490565b818103818111156103f5576103f56103c856fea2646970667358221220fa25342c261c396fc3d1ba118e36e1d4471f5adcdd6cc643e05d02cccf62c39f64736f6c634300081e0033","linkReferences":{}},"methodIdentifiers":{"quoteFrom1kUSD(address,uint256,uint16,uint8)":"facf40c8","quoteTo1kUSD(address,uint256,uint16,uint8)":"94c5a378","swapFrom1kUSD(address,uint256,address,uint256,uint256)":"8318c76d","swapTo1kUSD(address,uint256,address,uint256,uint256)":"34f98bde"},"id":8}