{"abi":[{"type":"constructor","inputs":[{"name":"_dao","type":"address","internalType":"address"},{"name":"_daily","type":"uint256","internalType":"uint256"},{"name":"_single","type":"uint256","internalType":"uint256"}],"stateMutability":"nonpayable"},{"type":"function","name":"_updateVolume","inputs":[{"name":"amount","type":"uint256","internalType":"uint256"}],"outputs":[],"stateMutability":"nonpayable"},{"type":"function","name":"checkAndUpdate","inputs":[{"name":"amount","type":"uint256","internalType":"uint256"}],"outputs":[],"stateMutability":"nonpayable"},{"type":"function","name":"dailyCap","inputs":[],"outputs":[{"name":"","type":"uint256","internalType":"uint256"}],"stateMutability":"view"},{"type":"function","name":"dailyVolume","inputs":[],"outputs":[{"name":"","type":"uint256","internalType":"uint256"}],"stateMutability":"view"},{"type":"function","name":"dailyVolumeView","inputs":[],"outputs":[{"name":"","type":"uint256","internalType":"uint256"}],"stateMutability":"view"},{"type":"function","name":"dao","inputs":[],"outputs":[{"name":"","type":"address","internalType":"address"}],"stateMutability":"view"},{"type":"function","name":"lastDay","inputs":[],"outputs":[{"name":"","type":"uint256","internalType":"uint256"}],"stateMutability":"view"},{"type":"function","name":"lastUpdatedDay","inputs":[],"outputs":[{"name":"","type":"uint256","internalType":"uint256"}],"stateMutability":"view"},{"type":"function","name":"setLimits","inputs":[{"name":"_daily","type":"uint256","internalType":"uint256"},{"name":"_single","type":"uint256","internalType":"uint256"}],"outputs":[],"stateMutability":"nonpayable"},{"type":"function","name":"singleTxCap","inputs":[],"outputs":[{"name":"","type":"uint256","internalType":"uint256"}],"stateMutability":"view"}],"bytecode":{"object":"0x6080604052348015600f57600080fd5b50604051610415380380610415833981016040819052602c916067565b600080546001600160a01b0319166001600160a01b03851617905560018290556002819055605c620151804260a8565b6003555060c9915050565b600080600060608486031215607b57600080fd5b83516001600160a01b0381168114609157600080fd5b602085015160409095015190969495509392505050565b60008260c457634e487b7160e01b600052601260045260246000fd5b500490565b61033d806100d86000396000f3fe608060405234801561001057600080fd5b506004361061009d5760003560e01c806398c8877e1161006657806398c8877e1461010e578063c4590d3f14610117578063d5d97e781461012a578063e30691ed14610133578063eb3393911461014657600080fd5b80626514cb146100a25780631e073b29146100be5780634162169f146100d3578063416742a7146100fe5780636b0c932d14610106575b600080fd5b6100ab60025481565b6040519081526020015b60405180910390f35b6100d16100cc366004610283565b61014f565b005b6000546100e6906001600160a01b031681565b6040516001600160a01b0390911681526020016100b5565b6004546100ab565b6003546100ab565b6100ab60045481565b6100d161012536600461029c565b61015b565b6100ab60035481565b6100d1610141366004610283565b6101af565b6100ab60015481565b610158816101af565b50565b6000546001600160a01b031633146101a45760405162461bcd60e51b81526020600482015260076024820152666e6f742044414f60c81b60448201526064015b60405180910390fd5b600191909155600255565b60006101be62015180426102be565b90506003548111156101d557600060045560038190555b6002548211156102185760405162461bcd60e51b815260206004820152600e60248201526d7377617020746f6f206c6172676560901b604482015260640161019b565b6001548260045461022991906102e0565b11156102685760405162461bcd60e51b815260206004820152600e60248201526d7377617020746f6f206c6172676560901b604482015260640161019b565b816004600082825461027a91906102e0565b90915550505050565b60006020828403121561029557600080fd5b5035919050565b600080604083850312156102af57600080fd5b50508035926020909101359150565b6000826102db57634e487b7160e01b600052601260045260246000fd5b500490565b8082018082111561030157634e487b7160e01b600052601160045260246000fd5b9291505056fea26469706673582212206421cbd6b38d83aab7191c76152f0b5b3e1f8f8dc3c7e96155ad1eab3faf2dbc64736f6c634300081e0033","linkReferences":{}},"methodIdentifiers":{"_updateVolume(uint256)":"1e073b29","checkAndUpdate(uint256)":"e30691ed","dailyCap()":"eb339391","dailyVolume()":"98c8877e","dailyVolumeView()":"416742a7","dao()":"4162169f","lastDay()":"6b0c932d","lastUpdatedDay()":"d5d97e78","setLimits(uint256,uint256)":"c4590d3f","singleTxCap()":"006514cb"},"id":28}