{"abi":[{"type":"function","name":"routeToTreasury","inputs":[{"name":"token","type":"address","internalType":"address"},{"name":"treasury","type":"address","internalType":"address"},{"name":"amount","type":"uint256","internalType":"uint256"},{"name":"tag","type":"bytes32","internalType":"bytes32"}],"outputs":[],"stateMutability":"nonpayable"},{"type":"event","name":"FeeRouted","inputs":[{"name":"token","type":"address","indexed":true,"internalType":"address"},{"name":"from","type":"address","indexed":true,"internalType":"address"},{"name":"to","type":"address","indexed":true,"internalType":"address"},{"name":"amount","type":"uint256","indexed":false,"internalType":"uint256"},{"name":"tag","type":"bytes32","indexed":false,"internalType":"bytes32"}],"anonymous":false},{"type":"error","name":"SafeERC20FailedOperation","inputs":[{"name":"token","type":"address","internalType":"address"}]},{"type":"error","name":"ZeroAddress","inputs":[]},{"type":"error","name":"ZeroAmount","inputs":[]}],"bytecode":{"object":"0x6080604052348015600f57600080fd5b5061026c8061001f6000396000f3fe608060405234801561001057600080fd5b506004361061002b5760003560e01c8063c87bc47114610030575b600080fd5b61004361003e3660046101f4565b610045565b005b6001600160a01b038416158061006257506001600160a01b038316155b156100805760405163d92e233d60e01b815260040160405180910390fd5b816000036100a157604051631f2a200560e01b815260040160405180910390fd5b6100b56001600160a01b0385168484610106565b60408051838152602081018390526001600160a01b03808616923392918816917f9e4544824255bf1c96557ff5a80274e7af550dac8dbbb672342295540c3dffca910160405180910390a450505050565b604080516001600160a01b038416602482015260448082018490528251808303909101815260649091019091526020810180516001600160e01b031663a9059cbb60e01b17905261015890849061015d565b505050565b600080602060008451602086016000885af180610180576040513d6000823e3d81fd5b50506000513d915081156101985780600114156101a5565b6001600160a01b0384163b155b156101d257604051635274afe760e01b81526001600160a01b038516600482015260240160405180910390fd5b50505050565b80356001600160a01b03811681146101ef57600080fd5b919050565b6000806000806080858703121561020a57600080fd5b610213856101d8565b9350610221602086016101d8565b9396939550505050604082013591606001359056fea264697066735822122004bf3f3bd102c073e9093754858c788fe9bab58c6a8f9b1372af99b7288b313d64736f6c634300081e0033","linkReferences":{}},"methodIdentifiers":{"routeToTreasury(address,address,uint256,bytes32)":"c87bc471"},"id":3}