{"abi":[{"type":"function","name":"routeToTreasury","inputs":[{"name":"token","type":"address","internalType":"address"},{"name":"treasury","type":"address","internalType":"address"},{"name":"amount","type":"uint256","internalType":"uint256"},{"name":"tag","type":"bytes32","internalType":"bytes32"}],"outputs":[],"stateMutability":"nonpayable"},{"type":"event","name":"FeeRouted","inputs":[{"name":"token","type":"address","indexed":true,"internalType":"address"},{"name":"from","type":"address","indexed":true,"internalType":"address"},{"name":"to","type":"address","indexed":true,"internalType":"address"},{"name":"amount","type":"uint256","indexed":false,"internalType":"uint256"},{"name":"tag","type":"bytes32","indexed":false,"internalType":"bytes32"}],"anonymous":false},{"type":"error","name":"AddressEmptyCode","inputs":[{"name":"target","type":"address","internalType":"address"}]},{"type":"error","name":"AddressInsufficientBalance","inputs":[{"name":"account","type":"address","internalType":"address"}]},{"type":"error","name":"FailedInnerCall","inputs":[]},{"type":"error","name":"SafeERC20FailedOperation","inputs":[{"name":"token","type":"address","internalType":"address"}]},{"type":"error","name":"ZeroAddress","inputs":[]},{"type":"error","name":"ZeroAmount","inputs":[]}],"bytecode":{"object":"0x6080604052348015600f57600080fd5b506103e18061001f6000396000f3fe608060405234801561001057600080fd5b506004361061002b5760003560e01c8063c87bc47114610030575b600080fd5b61004361003e366004610318565b610045565b005b6001600160a01b038416158061006257506001600160a01b038316155b156100805760405163d92e233d60e01b815260040160405180910390fd5b816000036100a157604051631f2a200560e01b815260040160405180910390fd5b6100b56001600160a01b0385168484610106565b60408051838152602081018390526001600160a01b03808616923392918816917f9e4544824255bf1c96557ff5a80274e7af550dac8dbbb672342295540c3dffca910160405180910390a450505050565b604080516001600160a01b038416602482015260448082018490528251808303909101815260649091019091526020810180516001600160e01b031663a9059cbb60e01b17905261015890849061015d565b505050565b60006101726001600160a01b038416836101c5565b90508051600014158015610197575080806020019051810190610195919061035a565b155b1561015857604051635274afe760e01b81526001600160a01b03841660048201526024015b60405180910390fd5b60606101d3838360006101da565b9392505050565b6060814710156101ff5760405163cd78605960e01b81523060048201526024016101bc565b600080856001600160a01b0316848660405161021b919061037c565b60006040518083038185875af1925050503d8060008114610258576040519150601f19603f3d011682016040523d82523d6000602084013e61025d565b606091505b509150915061026d868383610277565b9695505050505050565b60608261028c57610287826102d3565b6101d3565b81511580156102a357506001600160a01b0384163b155b156102cc57604051639996b31560e01b81526001600160a01b03851660048201526024016101bc565b50806101d3565b8051156102e35780518082602001fd5b604051630a12f52160e11b815260040160405180910390fd5b80356001600160a01b038116811461031357600080fd5b919050565b6000806000806080858703121561032e57600080fd5b610337856102fc565b9350610345602086016102fc565b93969395505050506040820135916060013590565b60006020828403121561036c57600080fd5b815180151581146101d357600080fd5b6000825160005b8181101561039d5760208186018101518583015201610383565b50600092019182525091905056fea2646970667358221220713ad37f7ae6374c33389f26c78a0da442586dc6669f3f4d336b7b2d18bea4d764736f6c634300081e0033","linkReferences":{}},"methodIdentifiers":{"routeToTreasury(address,address,uint256,bytes32)":"c87bc471"},"id":3}