{"abi":[{"type":"constructor","inputs":[{"name":"_admin","type":"address","internalType":"address"},{"name":"_safety","type":"address","internalType":"contract ISafetyAutomata"},{"name":"_registry","type":"address","internalType":"contract IParameterRegistry"}],"stateMutability":"nonpayable"},{"type":"function","name":"MODULE_ID","inputs":[],"outputs":[{"name":"","type":"bytes32","internalType":"bytes32"}],"stateMutability":"view"},{"type":"function","name":"admin","inputs":[],"outputs":[{"name":"","type":"address","internalType":"address"}],"stateMutability":"view"},{"type":"function","name":"areAssetsSupported","inputs":[{"name":"assets","type":"address[]","internalType":"address[]"}],"outputs":[{"name":"out","type":"bool[]","internalType":"bool[]"}],"stateMutability":"view"},{"type":"function","name":"balanceOf","inputs":[{"name":"","type":"address","internalType":"address"}],"outputs":[{"name":"","type":"uint256","internalType":"uint256"}],"stateMutability":"pure"},{"type":"function","name":"deposit","inputs":[{"name":"asset","type":"address","internalType":"address"},{"name":"from","type":"address","internalType":"address"},{"name":"amount","type":"uint256","internalType":"uint256"}],"outputs":[],"stateMutability":"nonpayable"},{"type":"function","name":"isAssetSupported","inputs":[{"name":"asset","type":"address","internalType":"address"}],"outputs":[{"name":"","type":"bool","internalType":"bool"}],"stateMutability":"view"},{"type":"function","name":"registry","inputs":[],"outputs":[{"name":"","type":"address","internalType":"contract IParameterRegistry"}],"stateMutability":"view"},{"type":"function","name":"safety","inputs":[],"outputs":[{"name":"","type":"address","internalType":"contract ISafetyAutomata"}],"stateMutability":"view"},{"type":"function","name":"setAdmin","inputs":[{"name":"newAdmin","type":"address","internalType":"address"}],"outputs":[],"stateMutability":"nonpayable"},{"type":"function","name":"setAssetSupported","inputs":[{"name":"asset","type":"address","internalType":"address"},{"name":"supported","type":"bool","internalType":"bool"}],"outputs":[],"stateMutability":"nonpayable"},{"type":"function","name":"setRegistry","inputs":[{"name":"newRegistry","type":"address","internalType":"contract IParameterRegistry"}],"outputs":[],"stateMutability":"nonpayable"},{"type":"function","name":"withdraw","inputs":[{"name":"asset","type":"address","internalType":"address"},{"name":"to","type":"address","internalType":"address"},{"name":"amount","type":"uint256","internalType":"uint256"},{"name":"reason","type":"bytes32","internalType":"bytes32"}],"outputs":[],"stateMutability":"nonpayable"},{"type":"event","name":"AdminChanged","inputs":[{"name":"oldAdmin","type":"address","indexed":true,"internalType":"address"},{"name":"newAdmin","type":"address","indexed":true,"internalType":"address"}],"anonymous":false},{"type":"event","name":"AssetSupportSet","inputs":[{"name":"asset","type":"address","indexed":true,"internalType":"address"},{"name":"supported","type":"bool","indexed":false,"internalType":"bool"}],"anonymous":false},{"type":"event","name":"Deposit","inputs":[{"name":"asset","type":"address","indexed":true,"internalType":"address"},{"name":"from","type":"address","indexed":true,"internalType":"address"},{"name":"amount","type":"uint256","indexed":false,"internalType":"uint256"}],"anonymous":false},{"type":"event","name":"RegistryUpdated","inputs":[{"name":"oldRegistry","type":"address","indexed":true,"internalType":"address"},{"name":"newRegistry","type":"address","indexed":true,"internalType":"address"}],"anonymous":false},{"type":"event","name":"Withdraw","inputs":[{"name":"asset","type":"address","indexed":true,"internalType":"address"},{"name":"to","type":"address","indexed":true,"internalType":"address"},{"name":"amount","type":"uint256","indexed":false,"internalType":"uint256"},{"name":"reason","type":"bytes32","indexed":false,"internalType":"bytes32"}],"anonymous":false},{"type":"error","name":"ACCESS_DENIED","inputs":[]},{"type":"error","name":"ASSET_NOT_SUPPORTED","inputs":[]},{"type":"error","name":"NOT_IMPLEMENTED","inputs":[]},{"type":"error","name":"PAUSED","inputs":[]},{"type":"error","name":"ZERO_ADDRESS","inputs":[]}],"bytecode":{"object":"0x60a060405234801561001057600080fd5b50604051610b33380380610b3383398101604081905261002f91610156565b6001600160a01b0383166100565760405163538ba4f960e01b815260040160405180910390fd5b6001600160a01b03821661007d5760405163538ba4f960e01b815260040160405180910390fd5b6001600160a01b0381166100a45760405163538ba4f960e01b815260040160405180910390fd5b600180546001600160a01b038086166001600160a01b0319928316811790935584811660805260008054918516919092161781556040517f7e644d79422f17c01e4894b5f4f588d331ebfa28653d42ae832dc59e38c9798f908290a36040516001600160a01b038216906000907f482b97c53e48ffa324a976e2738053e9aff6eee04d8aac63b10e19411d869b82908290a35050506101a3565b6001600160a01b038116811461015357600080fd5b50565b60008060006060848603121561016b57600080fd5b83516101768161013e565b60208501519093506101878161013e565b60408501519092506101988161013e565b809150509250925092565b6080516109676101cc6000396000818161011f015281816103de015261065601526109676000f3fe608060405234801561001057600080fd5b50600436106100b45760003560e01c80638340f549116100715780638340f549146101a35780639d520ba5146101b6578063a91ee0dc146101c9578063ed2f21f5146101dc578063f4b23e0314610203578063f851a4401461021657600080fd5b8063464b4158146100b9578063647182df146100fa5780636e3f795a1461011a578063704b6c021461015957806370a082311461016e5780637b10399914610190575b600080fd5b6100e56100c736600461073a565b6001600160a01b031660009081526002602052604090205460ff1690565b60405190151581526020015b60405180910390f35b61010d61010836600461075e565b610229565b6040516100f191906107d5565b6101417f000000000000000000000000000000000000000000000000000000000000000081565b6040516001600160a01b0390911681526020016100f1565b61016c61016736600461073a565b6102fb565b005b61018261017c36600461073a565b50600090565b6040519081526020016100f1565b600054610141906001600160a01b031681565b61016c6101b136600461081a565b6103a9565b61016c6101c4366004610869565b6104c3565b61016c6101d736600461073a565b610574565b6101827f68fc488efe30251cadb6ac88bdeef3f1a5e6048808baf387258d1d78e986720c81565b61016c6102113660046108a2565b610621565b600154610141906001600160a01b031681565b6060818067ffffffffffffffff811115610245576102456108e8565b60405190808252806020026020018201604052801561026e578160200160208202803683370190505b50915060005b818110156102f35760026000868684818110610292576102926108fe565b90506020020160208101906102a7919061073a565b6001600160a01b03168152602081019190915260400160002054835160ff909116908490839081106102db576102db6108fe565b91151560209283029190910190910152600101610274565b505092915050565b6001546001600160a01b03163314610326576040516395383ea160e01b815260040160405180910390fd5b6001600160a01b03811661034d5760405163538ba4f960e01b815260040160405180910390fd5b6001546040516001600160a01b038084169216907f7e644d79422f17c01e4894b5f4f588d331ebfa28653d42ae832dc59e38c9798f90600090a3600180546001600160a01b0319166001600160a01b0392909216919091179055565b60405163241b71bb60e01b81527f68fc488efe30251cadb6ac88bdeef3f1a5e6048808baf387258d1d78e986720c60048201527f00000000000000000000000000000000000000000000000000000000000000006001600160a01b03169063241b71bb90602401602060405180830381865afa15801561042d573d6000803e3d6000fd5b505050506040513d601f19601f820116820180604052508101906104519190610914565b1561046f57604051632a6ab56360e21b815260040160405180910390fd5b6001600160a01b038316600090815260026020526040902054839060ff166104aa57604051632777659360e11b815260040160405180910390fd5b6040516343f6e4ab60e01b815260040160405180910390fd5b6001546001600160a01b031633146104ee576040516395383ea160e01b815260040160405180910390fd5b6001600160a01b0382166105155760405163538ba4f960e01b815260040160405180910390fd5b6001600160a01b038216600081815260026020908152604091829020805460ff191685151590811790915591519182527f671e258c44613671cfeff29904d70848119e7c6e6518ee899a12bd8231ae129b910160405180910390a25050565b6001546001600160a01b0316331461059f576040516395383ea160e01b815260040160405180910390fd5b6001600160a01b0381166105c65760405163538ba4f960e01b815260040160405180910390fd5b600080546040516001600160a01b03808516939216917f482b97c53e48ffa324a976e2738053e9aff6eee04d8aac63b10e19411d869b8291a3600080546001600160a01b0319166001600160a01b0392909216919091179055565b60405163241b71bb60e01b81527f68fc488efe30251cadb6ac88bdeef3f1a5e6048808baf387258d1d78e986720c60048201527f00000000000000000000000000000000000000000000000000000000000000006001600160a01b03169063241b71bb90602401602060405180830381865afa1580156106a5573d6000803e3d6000fd5b505050506040513d601f19601f820116820180604052508101906106c99190610914565b156106e757604051632a6ab56360e21b815260040160405180910390fd5b6001600160a01b038416600090815260026020526040902054849060ff166104aa57604051632777659360e11b815260040160405180910390fd5b6001600160a01b038116811461073757600080fd5b50565b60006020828403121561074c57600080fd5b813561075781610722565b9392505050565b6000806020838503121561077157600080fd5b823567ffffffffffffffff81111561078857600080fd5b8301601f8101851361079957600080fd5b803567ffffffffffffffff8111156107b057600080fd5b8560208260051b84010111156107c557600080fd5b6020919091019590945092505050565b602080825282518282018190526000918401906040840190835b8181101561080f57835115158352602093840193909201916001016107ef565b509095945050505050565b60008060006060848603121561082f57600080fd5b833561083a81610722565b9250602084013561084a81610722565b929592945050506040919091013590565b801515811461073757600080fd5b6000806040838503121561087c57600080fd5b823561088781610722565b915060208301356108978161085b565b809150509250929050565b600080600080608085870312156108b857600080fd5b84356108c381610722565b935060208501356108d381610722565b93969395505050506040820135916060013590565b634e487b7160e01b600052604160045260246000fd5b634e487b7160e01b600052603260045260246000fd5b60006020828403121561092657600080fd5b81516107578161085b56fea2646970667358221220d236d9d5d16e24bb374a700aac6cc531b1858d5f4d22ca8ab23ef1cf8524242164736f6c634300081e0033","linkReferences":{}},"methodIdentifiers":{"MODULE_ID()":"ed2f21f5","admin()":"f851a440","areAssetsSupported(address[])":"647182df","balanceOf(address)":"70a08231","deposit(address,address,uint256)":"8340f549","isAssetSupported(address)":"464b4158","registry()":"7b103999","safety()":"6e3f795a","setAdmin(address)":"704b6c02","setAssetSupported(address,bool)":"9d520ba5","setRegistry(address)":"a91ee0dc","withdraw(address,address,uint256,bytes32)":"f4b23e03"},"id":1}